:020000040800F2
:10000000E0A10020D50200087D3D0008B93B0008B2
:10001000793D000885040008397B000800000000D5
:1000200000000000000000000000000011020008B5
:1000300015050008000000006D0200082B3E0008B6
:10004000EF020008EF020008EF020008EF020008CC
:10005000EF020008EF020008EF020008EF020008BC
:10006000EF020008EF020008EF020008EF020008AC
:10007000EF020008EF020008EF020008EF0200089C
:10008000EF020008EF020008EF020008EF0200088C
:10009000EF020008EF020008EF020008EF0200087C
:1000A000EF020008EF020008EF020008EF0200086C
:1000B000EF020008EF020008EF020008EF0200085C
:1000C000EF020008EF020008EF020008EF0200084C
:1000D000EF02000865480008EF020008EF02000880
:1000E000EF020008EF020008EF020008EF0200082C
:1000F000EF020008EF020008EF020008EF0200081C
:10010000EF020008EF020008EF020008EF0200080B
:10011000EF020008EF020008EF020008EF020008FB
:10012000EF020008EF020008EF020008EF020008EB
:10013000EF020008EF020008EF020008EF020008DB
:10014000EF020008EF020008EF020008853D0008FA
:10015000EF020008EF020008EF020008EF020008BB
:10016000EF020008EF020008EF020008EF020008AB
:10017000EF020008EF020008EF0200080000000094
:10018000EF020008EF020008EF020008EF0200088B
:10019000EF020008EF020008EF020008EF0200087B
:1001A000EF020008EF020008EF020008EF0200086B
:1001B000EF020008EF020008EF020008EF0200085B
:1001C000EF020008EF02000800000000EF02000844
:1001D000EF020008EF020008EF020008EF0200083B
:1001E000EF020008EF020008EF020008EF0200082B
:1001F000EF020008EF020008DFF810D000F030F93D
:10020000004800470D820008AFF30080E0A1002005
:100210002D4B19680868B0E8F04F80F30988BFF3E8
:100220006F8F4FF0000080F31188704700000000CE
:1002300008480068006880F308884FF0000080F3E9
:10024000148862B661B6BFF34F8FBFF36F8F00DFC4
:1002500000BF00BF08ED00E0DFF80C00016841F4CA
:1002600070010160704700BF88ED00E0EFF3098086
:10027000BFF36F8F144B1A681EF0100F08BF20EDEC
:10028000108A20E9F04F106009B44FF0500072B6A8
:1002900080F31188BFF34F8FBFF36F8F62B608F002
:1002A00011FF4FF0000080F3118809BC196808683D
:1002B000B0E8F04F1EF0100F08BFB0EC108A80F3CA
:1002C0000988BFF36F8F704738000020EFF3058077
:1002D000704700000648804706480047FEE7FEE7F3
:1002E000FEE7FEE7FEE7FEE7FEE7FEE7FEE7FEE7E6
:1002F000013F0008F90100082DE9F05F05460020E4
:1003000092469B4688460646814640241BE0284686
:1003100041464746224600F092F853465A46C01AD4
:10032000914110D311461846224600F079F82D1A53
:1003300067EB01084F4622460120002100F070F8CB
:1003400017EB00094E41201EA4F10104DFDC4846F2
:1003500031462A464346BDE8F09F40EA01039B0729
:1003600003D009E008C9121F08C0042AFAD203E02A
:1003700011F8013B00F8013B521EF9D27047D2B28E
:1003800001E000F8012B491EFBD270470022F6E77E
:1003900010B513460A4604461946FFF7F0FF2046FB
:1003A00010BD10B5002200E0521C835C8C5CA3429F
:1003B00001D1002BF8D1D8B2E1B2401A10BD30B54E
:1003C00005460020034600E05B1C934205D2EC5C2E
:1003D000C85C201A01D1002CF6D130BD70B50F4D8C
:1003E00000B92868002412E00A4602E09E4203D0C9
:1003F000521C1378002BF9D1DAB2224305D02BB16D
:1004000024B1002100F8011B04E00446401C0678DA
:10041000002EE9D12860204670BD0000E0000020D9
:10042000202A04DB203A00FA02F1002070479140B4
:10043000C2F1200320FA03F3194390407047202AA9
:1004400004DB203A21FA02F00021704721FA02F37E
:10045000D040C2F120029140084319467047000085
:10046000064C074D06E0E06840F0010394E8070001
:1004700098471034AC42F6D3FFF7C2FE2CA1000817
:100480004CA1000800BFFEE770B50446002505E05A
:10049000002104F5747040F825106D1C102DF7D361
:1004A000002504E0002104F58E7041556D1CB5F562
:1004B000007FF7D30020207060700120A070002022
:1004C000C4F81004012121764021A1710021617638
:1004D00084F81C13012184F81D13002184F81F13D4
:1004E00084F81E134FF4807104F11C00FFF74EFFD7
:1004F0004FF4007104F58E70FFF748FF122104F2EB
:100500002630FFF743FF8C2104F54E70FFF73EFFC6
:10051000002070BD704772B600BFFEE770B504469C
:10052000A56D00F08FF9064694F83500022808D032
:100530008020606500BF002084F8340000BF0120E7
:1005400070BD2068006820F01600216808602068EF
:10055000406920F0800021684861206C08B9A06CD7
:1005600028B12068006820F0080021680860206831
:10057000006820F001002168086010E000F062F9D6
:10058000801B05280BD920206065032084F83500E6
:1005900000BF002084F8340000BF0320D0E72068AB
:1005A000006800F001000028E8D194F85C103F20BA
:1005B0008840A860012084F8350000BF002084F83E
:1005C000340000BF00BFBBE7014691F835000228A8
:1005D00003D08020486501207047052081F8350050
:1005E0000868006820F001000A6810600020F3E746
:1005F00070B5044600F026F906462546681C10B181
:1006000004480078054400BF00F01CF9801BA84294
:10061000FAD370BD14000020F8B502460B46002145
:1006200000250024002000BFDEE0012606FA01F5C7
:100630001E6806EA0504AC4272D11E7906F0030674
:10064000012E04D01E7906F00306022E13D1906805
:100650004F000326BE40B0434F00DE68BE4030432B
:100660009060506801268E40B0431E79C6F3001694
:100670008E40304350601E7906F00306032E09D0E9
:10068000D0684F000326BE40B0434F009E68BE4076
:100690003043D0601E7906F00306022E13D1CF0836
:1006A00002F1200656F827004E07F70E0F26BE402F
:1006B000B0434F07FF0E1E69BE403043CF0802F122
:1006C000200646F8270010684F000326BE40B043BE
:1006D0001E7906F003064F00BE40304310605E688E
:1006E00006F44036002E7ED000BF414E366846F4F8
:1006F00080463F4F3E603E46366806F48046009690
:1007000000BF00BF3B4E8F0856F827008E07370FFB
:100710000F26BE40B043384EB24202D100262EE032
:1007200061E0364EB24201D1012628E0344EB24299
:1007300001D1022623E0334EB24201D103261EE04E
:10074000314EB24201D1042619E0304EB24201D1FD
:10075000052614E02E4EB24201D106260FE02D4EA2
:10076000B24201D107260AE02B4EB24201D108263F
:1007700005E02A4EB24201D1092600E00A268F0781
:100780003F0FBE4030431B4E8F0846F82700244ED3
:100790003068A0435E6806F4801606B12043204E00
:1007A0003060361D3068A0435E6806F4001606B15E
:1007B00020431B4E361D3060194E361F3068A04353
:1007C0005E6806F4003606B12043154E361F3060D1
:1007D000361F3068A0435E6806F4803606B12043B9
:1007E0000F4E083E3060491C1029FFF41EAFF8BDC3
:1007F0004438024008380140000002400004024032
:1008000000080240000C02400010024000140240A8
:1008100000180240001C0240002002400024024058
:10082000083C014010B5426921EA020302EA0104D2
:1008300043EA0443836110BD0AB1816101E00B0406
:100840008361704701480068704700000C00002079
:1008500010B50446D4F8DC0305F00CFB10BD10B550
:100860000446D4F8DC0305F017FB10BD10B50446B0
:10087000206806F0FFFB10BD10B50446206806F0A6
:1008800000FC10BD10B502460023C1EB011402F1BB
:10089000140000EB84008371C1EB011402F1140019
:1008A00000EB8400C371C1EB011402F1140000EBF2
:1008B00084004374C1EB011402F1140000EB8400C6
:1008C0000374002010BD0246C1EB011302F11400B5
:1008D00000EB830090F8380070470246C1EB01132B
:1008E00002F1140000EB8300406A704770B50446C3
:1008F0000D46002600BF94F8D403012801D1022040
:1009000070BD012084F8D40300BF2946206806F09A
:10091000C9FB00BF002084F8D40300BF3046EFE7D6
:100920002DE9FF5F04460D4616469B46DDE90E782D
:10093000DDF840A000BF94F8D403012803D10220C1
:1009400004B0BDE8F09F012084F8D40300BF00216B
:10095000C5EB051204F1140000EB82004171C5EBF8
:10096000051104F1140000F821B0C5EB051100EBEE
:1009700081004570C5EB051104F1140000EB810006
:1009800080F8128006F07F01C5EB051204F1140017
:1009900000EB8200817029462046FFF773FF06F0C6
:1009A0008000802808D10121C5EB051204F1140054
:1009B00000EB8200C17007E00021C5EB051204F1D5
:1009C000140000EB8200C170206806F05AFB8146DB
:1009D000B8F1010F09D1012F07D1B9F1000F04D1EE
:1009E000BAF1BC0F01D94FF0BC0AC5EB051104F1F7
:1009F000140000EB81000771C5EB051204F114002F
:100A000000EB8200A0F814A01FFA8AF0CDE900786C
:100A100002905B4632462946206806F01FFC039090
:100A200000BF002084F8D40300BF039888E770B5A6
:100A300004460D461646D4F8DC0305F0B9FA70BD3D
:100A40002DE9F05F04460D4616461F46DDE90C9B76
:100A5000DDE90A8AC5EB051104F1140000EB810001
:100A6000C670C5EB051104F1140000EB810087741A
:100A7000B8F1000F10D10321C5EB051204F11400E9
:100A800000EB82008175C5EB051104F1140000EB49
:100A9000810080F805B007E00221C5EB051204F1E2
:100AA000140000EB8200817537B1012F6FD0022F47
:100AB00051D0032F6CD187E0B8F1010F4AD136BB7A
:100AC000B9F1000F08D10121C5EB051204F11400A2
:100AD00000EB820080F82910C5EB051104F1140029
:100AE00000EB810090F8290040B90021C5EB051208
:100AF00004F1140000EB820081752BE00221C5EBAC
:100B0000051204F1140000EB8200817522E0C5EBB0
:100B1000051104F1140000EB81008079012819D13E
:100B2000C5EB051104F1140000EB810090F82800DA
:100B300040B90021C5EB051204F1140000EB82005E
:100B4000817507E00221C5EB051204F1140000EBEA
:100B50008200817579E0E6B9C5EB051104F1140056
:100B600000EB810090F8290040B90021C5EB051287
:100B700004F1140000EB8200817524E00221C5EB32
:100B8000051204F1140000EB820081751BE052E0B5
:100B90005AE0C5EB051104F1140000EB810090F858
:100BA000280040B90021C5EB051204F1140000EB48
:100BB0008200817507E00221C5EB051204F11400E3
:100BC00000EB8200817540E0D6B9C5EB051104F158
:100BD000140000EB810090F8290040B90021C5EB1A
:100BE000051204F1140000EB8200817522E002215D
:100BF000C5EB051204F1140000EB8200817519E0C9
:100C0000C5EB051104F1140000EB810090F82800F9
:100C100040B90021C5EB051204F1140000EB82007D
:100C2000817507E00221C5EB051204F1140000EB09
:100C30008200817509E00021C5EB051204F1140062
:100C400000EB8200817500E000BF00BFC5EB05111D
:100C500004F1140000EB8100C0F818A0C5EB0511E9
:100C600004F1140000EB8100C0F820900021C5EBD6
:100C7000051204F1140000EB820080F83810C5EB77
:100C8000051204F1140000EB82004162C5EB05116E
:100C900004F1140000EB810045700021C5EB051242
:100CA00004F1140000EB820080F83910A279C5EB42
:100CB000051C04F1140303EB8C01206806F0C0FB53
:100CC000BDE8F09F2DE9F04104462768B84620684A
:100CD00006F0E3F901287AD1206806F021FE08B970
:100CE000BDE8F081206806F01BFE00F40010B0F5AE
:100CF000001F03D14FF4001021684861206806F0FE
:100D00000FFE00F48010B0F5801F03D14FF4801067
:100D100021684861206806F003FE00F08060B0F1B1
:100D2000806F03D14FF0806021684861206806F031
:100D3000F7FD00F00200022801D121684861206817
:100D400006F0EEFD00F00050B0F1005F19D14FF059
:100D5000005021684861D8F8400400F0010080B9D3
:100D60001021384606F05CF9384606F031F9607A11
:100D7000022803D10121206806F09EFD2046FFF7DE
:100D80006EFD206806F0CCFD00F08070B0F1807F31
:100D900002D1204602F00AFE206806F0C1FD00F0F4
:100DA0000800082805D1204600F010F90820216825
:100DB0004861206806F0B4FD00F00070B0F1007FDB
:100DC00027D1206806F034FB064600251AE035E0FE
:100DD00005F00F0101208840304090B108F5A06077
:100DE00000EB4510006800F40040B0F5004F04D15E
:100DF000E9B2204601F040FD03E0E9B2204602F0EE
:100E00002BFA6D1C6079A842E2D84FF0007021687F
:100E10004861206806F084FDC0F3001070B12068BE
:100E2000806920F0100021688861204602F019FED8
:100E30002068806940F010002168886100BF4FE79A
:100E400038B504460CB9012038BD256894F8D5039F
:100E500028B9002084F8D403204600F035F8032098
:100E600084F8D503B5F1A04F01D10021A17120680C
:100E700006F059F8207C8DF8000094E80F0005F08A
:100E8000E3FF20B1022084F8D5030120DCE7012133
:100E9000206806F098FD20B1022084F8D5030120D7
:100EA000D2E7207C8DF8000094E80F0006F08CFC5F
:100EB00020B1022084F8D5030120C5E7012084F881
:100EC000D5030020C0E7000010B5ACB004461421E3
:100ED00027A8FFF75BFA902103A8FFF757FA2068CD
:100EE000B0F1A04F58D14FF4001003900020229091
:100EF00003A800F017FA08B1FFF70DFB00BF274861
:100F0000006840F00100254908600846006800F0CC
:100F10000100029000BF00BF4815279000202890D4
:100F2000299027A91E48FFF777FB4FF4C050279060
:100F3000022028900020299003202A900A202B903C
:100F400027A91748FFF768FB00BF1448001D006879
:100F500040F080001149091D08600846006800F053
:100F60008000029000BF00BF0C481430006840F4BD
:100F700080400A49143108600846006800F4804047
:100F8000019000BF00BF00BF00220621432000F0F7
:100F90002FF9432000F01CF92CB010BD303802406E
:100FA0000000024010B50446D4F8DC0305F02AF82E
:100FB00010BD10B50446D4F8DC0305F02AF810BDC6
:100FC00010B50446206806F0E0FC10BD10B50446DC
:100FD000D4F8DC0304F0B4FF10BD10B5044600BF24
:100FE00094F8D403012801D1022010BD012084F817
:100FF000D40300BF0121206805F0BEFF206805F082
:10100000E0FF00BF002084F8D40300BF00BFECE77E
:1010100010B5044600BF94F8D403012801D1022082
:1010200010BD012084F8D40300BF206806F0FFFC47
:1010300000BF002084F8D40300BF00BFF0E7000029
:10104000034800680349097808440149086070476B
:101050000C0000201400002010B5032000F006F959
:101060000F2000F005F800F08DF8002010BD000002
:1010700070B504460E4800784FF47A71B1FBF0F079
:101080000C490968B1FBF0F5284601F0E7F808B112
:10109000012070BD102C07D200222146501E00F006
:1010A000A7F80548046001E00120F2E70020F0E71E
:1010B0001400002018000020100000204178154A7C
:1010C000116014490831096821F00101114A083200
:1010D0001160121F41681160017B0907C27A41EA61
:1010E0000261827A41EAC241427B41EA8241827BCB
:1010F00041EA4241C27B41EA0241427A41EA02218D
:10110000027A41EA420102781143024A0832116030
:101110007047000098ED00E000BF00BF00BFBFF3C4
:101120005F8F00BF00BF00BF0548006820F480301B
:1011300003490860002002497031086070470000D0
:1011400024ED00E040F001010D4A11600C497039B6
:10115000096841F480310A4A703A116000BF00BF4B
:1011600000BFBFF34F8F00BF00BF00BF00BF00BF75
:1011700000BFBFF36F8F00BF00BF00BF704700000C
:1011800094ED00E008B500BF1048006840F08050C2
:101190000E4908600846006800F08050009000BFCB
:1011A00000BF00BF081D006840F48040091D0860B2
:1011B0000846006800F48040009000BF00BF002295
:1011C0000F21901E00F014F808BD000040380240C6
:1011D00001460846002809DB00F01F0301229A405F
:1011E00043099B0003F1E023C3F8002100BF7047CF
:1011F0002DE9F05F80460D461646002706F0C2FC3A
:10120000074639462A46334601F00700C0F1070A6F
:10121000BAF1040F02D94FF0040A01E0C0F1070A45
:10122000D14600F1040ABAF1070F02D24FF0000ACA
:1012300001E0A0F1030AD4464FF0010A0AFA09FAC4
:10124000AAF1010A0AEA020A0AFA0CFA4FF0010BA3
:101250000BFA0CFBABF1010B0BEA030B4AEA0B0494
:101260002146404606F096FCBDE8F09F00BF00F026
:101270000702064B19684FF6FF031940044B0B4356
:1012800043EA0221014B196000BF70470CED00E0FA
:101290000000FA0538B5002400BF2048006840F07F
:1012A00080501E4908600846006800F08050009099
:1012B00000BF00BF1A48006840F480301849086039
:1012C000FFF7C0FA044607E0FFF7BCFA001BB0F5D1
:1012D0007A7F01D9032038BD1148406800F480307E
:1012E000B0F5803FF0D10E48006840F400300C4962
:1012F0000860FFF7A7FA044607E0FFF7A3FA001B10
:10130000B0F57A7F01D90320E5E70548406800F48D
:101310000030B0F5003FF0D10020DCE7403802405B
:10132000007000402DE9F843044600260025002700
:10133000A846A946207800F0010088B100BFFE4809
:10134000006820F40000FC49086008460068616BF2
:101350000843F949086000BF606B08B94FF0010805
:10136000206800F40020B0F5002F13D1F24884303B
:10137000006820F44010E16B0843EF4984310860B5
:10138000E06BB0F5801F01D14FF00108E06B08B9A8
:101390004FF00109206800F48010B0F5801F13D1D0
:1013A000E5488430006820F44000216C0843E2499D
:1013B00084310860206CB0F5800F01D14FF0010836
:1013C000206C08B94FF00109206800F08070B0F17E
:1013D000807F01D14FF00108207800F02000202804
:1013E00070D100BFD4483830006840F08050D249F6
:1013F000383108600846006800F08050009000BF57
:1014000000BFCE48006840F48070CC490860FFF708
:1014100019FA064607E0FFF715FA801B642802D97F
:101420000320BDE8F883C548006800F480700028F8
:10143000F1D0C1486830006800F4407585B3208E53
:1014400000F44070A8422BD0BB486830006820F4FC
:101450004075B9486830006840F48030B64968315A
:1014600008600846006820F480300860084605607F
:10147000006800F0010098B1FFF7E4F9064608E0C3
:10148000FFF7E0F9801B41F28831884201D903203F
:10149000C7E7A94868300068C0F340000028EFD0D3
:1014A00000BF208E00F44070B0F5407F0BD1A24801
:1014B000006820F4F810A24A216B114008439E49AD
:1014C000086006E010E09C48006820F4F8109A4993
:1014D0000860994868300068218EC1F30B01084309
:1014E00095496831086000BF207800F0100010288E
:1014F00010D100BF90488430006820F080708E4981
:101500008431086008460068A16B08438A49843129
:10151000086000BF208800F48040B0F5804F09D1FA
:1015200085488830006820F44030616E0843824965
:1015300088310860208800F40040B0F5004F09D1E0
:101540007D488830006820F44020A16E08437A4925
:1015500088310860206800F48030B0F5803F09D100
:1015600075488830006820F44010E16E08437249E5
:1015700088310860206800F40030B0F5003F09D1E0
:101580006D488830006820F44000216F08436A49A4
:1015900088310860207800F04000402809D1664872
:1015A0008830006820F00300616C0843624988318C
:1015B0000860207800F08000802809D15E488830DB
:1015C000006820F00C00A16C08435B49883108607A
:1015D000208800F48070B0F5807F09D156488830AB
:1015E000006820F03000E16C0843534988310860FE
:1015F000208800F40070B0F5007F09D14E48883093
:10160000006820F0C000216D08434B498831086014
:10161000208800F48060B0F5806F09D1464888309A
:10162000006820F44070616D0843434988310860C8
:10163000208800F40060B0F5006F09D13E48883082
:10164000006820F44060A16D08433B498831086080
:10165000208800F48050B0F5805F09D1364888308A
:10166000006820F44050E16D084333498831086038
:10167000208800F40050B0F5005F09D12E48883072
:10168000006820F44040216E08432B4988310860EF
:10169000206800F48000B0F5800F09D1264888301A
:1016A000006820F08060A16F0843234988310860FA
:1016B000206800F40010B0F5001F0FD11E488830DC
:1016C000006820F00060E16F08431B498831086022
:1016D000E06FB0F1006F01D14FF00109207800F008
:1016E0000800082801D14FF00109206800F480208B
:1016F000B0F5802F09D110488830006820F0407084
:10170000616F08430C4988310860206800F40000CC
:10171000B0F5000F0AD108488830006820F08050EA
:10172000D4F880100843044988310860206800F02C
:101730008060B0F1806F05E0083802400070004022
:10174000FFFCFF0F08D1CD48006820F00050D4F80E
:1017500084100843C9490860206800F00060B0F1B7
:10176000006F0AD1C548001F006820F00070D4F84F
:1017700088100843C149091F0860206800F08050A4
:10178000B0F1805F0AD1BD48001F006820F0806082
:10179000D4F88C100843B949091F0860B8F1010F4B
:1017A00005D0206800F00070B0F1007F7ED1B34812
:1017B0009038006820F08060B04990390860FFF7E9
:1017C00041F8064606E0FFF73DF8801B642801D982
:1017D000032026E6A94890380068C0F3C0600028BE
:1017E000F1D1207800F00100B8B1606BA8B9A3482E
:1017F0000C380068C0F30145A0480C380068C0F3FD
:1018000003676068800140EA054040EA0761207A8A
:1018100041EA007099490C390860206800F4002002
:10182000B0F5002F03D1E06BB0F5801F09D0206820
:1018300000F48010B0F5801F24D1206CB0F5800F2B
:1018400020D18E480C380068C0F301458B480C3815
:101850000068C0F302776068800140EA0541207BA0
:1018600041EA006040EA077084490C390860834807
:10187000001F006820F01F00616A491E08437F496D
:10188000091F0860206800F08070B0F1807F17D1D8
:101890007A480C380068C0F3036578480C38006853
:1018A000C0F3027760688101208A00E036E041EAF7
:1018B000004040EA056040EA077070490C39086052
:1018C000206800F00070B0F1007F0DD160688101E8
:1018D000208A41EA0041207B41EA0061207A41EA06
:1018E000007066490C39086064489038006840F020
:1018F0008060624990390860FEF7A4FF064606E062
:10190000FEF7A0FF801B642801D9032089E55B480E
:1019100090380068C0F3C0600028F1D0B9F1010F21
:101920007ED156489038006820F080505349903955
:101930000860FEF787FF064606E0FEF783FF801B80
:10194000642801D903206CE54C4890380068C0F346
:1019500040700028F1D1206800F40020B0F5002F7D
:1019600001D1E06B38B1206800F48010B0F5801F21
:1019700022D1206C00BB414808380068C0F3014503
:101980003E4808380068C0F302776069800140EA89
:101990000541207E41EA006040EA07703749083976
:1019A0000860081D006820F4F851A06A401E41EA52
:1019B00000203249091F0860206800F40010B0F5CB
:1019C000001F19D1E06FB0F1006F15D12B48083816
:1019D0000068C0F30365294808380068C0F302773F
:1019E00060698101208C41EA004040EA056040EADC
:1019F0000770224908390860207800F0080008289C
:101A000020D11E4808380068C0F303651B48083819
:101A10000068C0F301476069800140EA074000E0C8
:101A20002AE040EA0561207F41EA00701349083945
:101A30000860081D006820F44030E16A08430F493F
:101A4000091F08600D489038006840F080500B492D
:101A500090390860FEF7F6FE064606E0FEF7F2FE55
:101A6000801B642801D90320DBE404489038006817
:101A7000C0F340700028F1D00020D2E4903802403A
:101A80007047000070B504460D4600260CB90120D1
:101A900070BD5C48006800F00F00A8420ED25948A3
:101AA000006820F00F002843564908600846006887
:101AB00000F00F00A84201D00120E9E7207800F0F3
:101AC000020002281DD1207800F00400042805D16E
:101AD0004D48006840F4E0504B490860207800F021
:101AE0000800082805D14848006840F4604046498D
:101AF00008604548006820F0F000A16808434249AA
:101B00000860207800F0010090B36068012807D1D8
:101B10003D4808380068C0F34040A0B90120B7E74D
:101B20006068022807D1384808380068C0F3406070
:101B300048B90120ACE7344808380068C0F34000D9
:101B400008B90120A4E73048006820F0030061686C
:101B500008432D490860FEF775FE064609E0FEF7CA
:101B600071FE801B41F28831884202D903208FE741
:101B700007E02548006800F00C006168B0EB810FB9
:101B8000EDD12048006800F00F00A8420ED91D4892
:101B9000006820F00F0028431A49086008460068D2
:101BA00000F00F00A84201D0012071E7207800F07A
:101BB0000400042807D11448006820F4E050E168CC
:101BC000084311490860207800F00800082808D16F
:101BD0000D48006820F46040216940EAC1000A49CC
:101BE000086000F049F808490968C1F30311074A81
:101BF000515CC8400649086006480068FFF738FA9B
:101C0000002045E7003C0240083802405C9F000885
:101C100018000020100000200348006840F4002055
:101C20000149086070470000003802400148006820
:101C3000704700001800002000B5FFF7F7FF0449C7
:101C40000968C1F38221034A515CC84000BD00000D
:101C5000083802406C9F000800B5FFF7E7FF044911
:101C60000968C1F34231034A515CC84000BD00001D
:101C7000083802406C9F00082DE9F0470024002539
:101C80000026A1462548006800F00C0020B1042879
:101C900005D008283AD105E0DFF8849039E0DFF874
:101CA000849036E01D48001F006800F03F041B4888
:101CB000001F006800F4800078B11A481749091F16
:101CC0000968C1F38811A0FB017001462246002378
:101CD0003846FEF711FB05460EE011480F49091F73
:101CE0000968C1F38811A0FB017001462246002358
:101CF0003846FEF701FB05460848001F0068C0F3A0
:101D00000140401C4600B5FBF6F902E0DFF81090F8
:101D100000BF00BF4846BDE8F08700000838024019
:101D20000024F40040787D0110B50648006800F0FA
:101D30008000802805D1FFF7A3FE80200149891C7F
:101D4000087010BD0C380240F8B5044600270CB9E5
:101D50000120F8BD207800F00100002871D0F9487A
:101D6000006800F00C0004280DD0F648006800F070
:101D70000C00082813D1F348001F006800F480000D
:101D8000B0F5800F0BD1EF4808380068C0F3404031
:101D9000002869D06068002866D10120D9E700BF1B
:101DA0006068B0F5803F08D1E6480838006840F424
:101DB0008030E449083908602EE0606868B9E1487D
:101DC0000838006820F48030DE4908390860084689
:101DD000006820F4802008601EE06068B0F5A02F45
:101DE0000DD1D8480838006840F48020D54908391A
:101DF00008600846006840F4803008600CE0D14874
:101E00000838006820F48030CE4908390860084658
:101E1000006820F48020086000BF606890B1FEF781
:101E200011FD054606E0FEF70DFD401B642801D9B3
:101E300003208EE7C34808380068C0F340400028FC
:101E4000F1D011E0FEF7FEFC054606E0FEF7FAFCD5
:101E5000401B642801D903207BE7BA480838006892
:101E6000C0F340400028F1D1207800F002000228A1
:101E700069D1B448006800F00C0058B1B14800685E
:101E800000F00C0008281CD1AE48001F006800F4C8
:101E90008000B0B9AB4808380068C0F3400020B1FA
:101EA000E068012801D0012053E7A64808380068FF
:101EB00020F0F800216940EAC100A2490839086011
:101EC00041E0E06828B39F480838006840F001000E
:101ED0009C4908390860FEF7B5FC054606E0FEF7A8
:101EE000B1FC401B022801D9032032E7954808388D
:101EF0000068C0F340000028F1D09248083800681C
:101F000020F0F800216940EAC1008E4908390860D4
:101F100019E08C480838006820F001008949083928
:101F20000860FEF78FFC054606E0FEF78BFC401BC1
:101F3000022801D903200CE7824808380068C0F362
:101F400040000028F1D1207800F00800082836D1A0
:101F50006069D0B17B486C30006840F0010079497D
:101F60006C310860FEF76EFC054606E0FEF76AFC81
:101F7000401B022801D90320EBE672486C30006850
:101F8000C0F340000028F1D019E06E486C300068C2
:101F900020F001006B496C310860FEF753FC0546E8
:101FA00006E0FEF74FFC401B022801D90320D0E6D3
:101FB00064486C300068C0F340000028F1D12078FC
:101FC00000F00400042874D15E483830006800F046
:101FD000805080B900BF5B483830006840F08050C6
:101FE0005849383108600846006800F08050009079
:101FF00000BF00BF01275448006800F48070B0B9EA
:102000005148006840F480704F490860FEF71AFCA0
:10201000054606E0FEF716FC401B642801D90320A4
:1020200097E64948006800F480700028F2D000BFAD
:10203000A068012808D143486830006840F00100DA
:102040004049683108602DE0A06868B93D486830B3
:10205000006820F001003B496831086008460068CC
:1020600020F0040008601DE0A06805280DD1354867
:102070006830006840F00400324968310860084662
:10208000006840F0010008600CE02E4868300068ED
:1020900020F001002B49683108600846006820F0F4
:1020A0000400086000BFA068A8B1FEF7CBFB05469E
:1020B00009E02EE0FEF7C6FB401B41F28831884262
:1020C00001D9032045E61F4868300068C0F340008E
:1020D0000028EFD013E0FEF7B5FB054608E0FEF759
:1020E000B1FB401B41F28831884201D9032030E620
:1020F000144868300068C0F340000028EFD1012F79
:1021000007D110483830006820F080500D49383130
:102110000860A069002854D00A48006800F00C004C
:10212000082867D0A06902284CD106480838006802
:1021300020F08070034908390860FEF783FB0546EC
:102140000BE000000838024000700040FEF77AFB08
:10215000401B022801D90320FBE53F480068C0F37B
:1021600040600028F2D1D4E907010843616A40EADF
:1021700081110122A06AC2EB500041EA00412C20EB
:10218000005D41EA00613020005D41EA00703249A3
:10219000091D0860081F006840F08070091F086072
:1021A000FEF750FB054606E0FEF74CFB401B0228FD
:1021B00001D90320CDE528480068C0F3406000281D
:1021C000F2D047E02448006820F08070224908607F
:1021D000FEF738FB054606E0FEF734FB401B0228FD
:1021E00001D90320B5E51C480068C0F34060002811
:1021F000F2D12FE01848001D0668A069012827D0F9
:1022000006F48001E069814222D106F03F01206A94
:1022100081421DD147F6C0703040616AB0EB811F2A
:1022200016D106F440310122A06AC2EB5000B1EB96
:10223000004F0DD106F070612C20005DB1EB006FF6
:1022400006D106F0E0413020005DB1EB007F01D007
:1022500001207EE500207CE50038024070B5044690
:102260002546681EB0F1807F01D301200FE0681E73
:102270004FF0E02148610F214FF0FF3005F08AFC5C
:1022800000204FF0E021886107200861002070BD28
:1022900070477047704700002DE9F04704462068FA
:1022A000C569206806682068876840F60F0005EA5F
:1022B0000009B9F1000F0CD105F0200048B106F07B
:1022C000200030B1A06E10B12046A16E8847BDE855
:1022D000F087B9F1000F7DD007F0010018B9C948A7
:1022E00030400028F7D005F0010058B106F48070A6
:1022F00040B1012021680862D4F8840040F0010058
:10230000C4F8840005F0020058B107F0010040B1A4
:10231000022021680862D4F8840040F00400C4F868
:10232000840005F0040058B107F0010040B104201A
:1023300021680862D4F8840040F00200C4F88400E8
:1023400005F0080070B106F0200010B907F0010098
:1023500040B1082021680862D4F8840040F00800E9
:10236000C4F8840005F4006060B106F0806048B1F4
:102370004FF4006021680862D4F8840040F0200027
:10238000C4F88400D4F8840000284BD005F0200065
:1023900038B106F0200020B1A06E10B12046A16E29
:1023A0008847D4F884A02068806800F04000402866
:1023B00002D00AF0280070B3204601F0A4FE206885
:1023C000806800F04000402821D100BF00BF216894
:1023D000083100E027E051E8001F21F040002168AB
:1023E000083141E80002002AF1D100BF606F50B10E
:1023F0008548616F0865606FFEF7E6F890B1606F21
:10240000016D88470EE02046FFF744FF0AE02046B2
:10241000FFF740FF06E0FFE72046FFF73BFF002005
:10242000C4F8840053E7206E01286FD105F0100036
:1024300000286BD006F010000028FAD01020216888
:1024400008622068806800F04000402871D1606F09
:10245000006840681FFA80F8B8F1000F57D0B4F850
:102460005800404553DDA4F85A80606FC069B0F54C
:10247000807F3FD000BF00BF216851E8001F21F4DA
:102480008070226842E800010029F5D100BF00BF3A
:1024900000BF2168083151E8001F21F001002168C8
:1024A000083141E80002002AF3D100BF00BF00BF9D
:1024B0002168083151E8001F21F0400021680831EF
:1024C00041E80002002AF3D100BF2020C4F88000B8
:1024D0000020206600BF00BF216851E8001F21F0E6
:1024E0001000226842E800010029F5D100BF606FAA
:1024F000FEF714F802206066B4F85800B4F85A20C9
:10250000801A81B22046FFF7C3FE10E053E0B4F812
:10251000580040450BD1606FC069B0F5807F06D18F
:1025200002206066B4F858102046FFF7B1FECEE6F0
:10253000FFE734F8580F6188401A1FFA80F8608866
:10254000583CB8B3B8F1000F34D000BF00BF2168C9
:1025500051E8001F21F49070226842E80001002930
:10256000F5D100BF00BF00BF2168083151E8001F4E
:1025700021F001002168083141E80002002AF3D16E
:1025800000BF2020C4F8800000202066A06600BFA5
:1025900000BF216851E8001F21F01000226842E8C6
:1025A00000010029F5D100BF0220606641462046A7
:1025B000FFF76EFE8BE605F4801050B107F4800043
:1025C00038B14FF48010216808622046FFF761FEA1
:1025D0007DE605F0800040B106F0800028B1E06E95
:1025E00010B12046E16E884771E605F0400030B139
:1025F00006F0400018B1204601F0B8FD67E600BFC4
:1026000065E6000020010004F340000810B5044610
:102610000CB9012010BDA06900B100E000BFE06F5F
:1026200028B9002084F87800204600F029F82420FA
:10263000E0672068006820F0010021680860606A97
:1026400010B1204601F066FC204601F09DFE0128F5
:1026500000D1DFE72068406820F49040216848609E
:102660002068806820F02A0021688860206800685F
:1026700040F0010021680860204601F0C7FCC9E76E
:1026800010B5AAB00446142125A8FDF77FFE9021BD
:1026900001A8FDF77BFE2249206888423ED14020F8
:1026A00001900020129001A8FEF73CFE08B1FDF752
:1026B00032FF00BF1B48006840F010001949086055
:1026C0000846006800F01000009000BF00BF00BF87
:1026D00014481438006840F00200124914390860A8
:1026E0000846006800F00200009000BF00BF4FF4F1
:1026F000404025900220269000202790032028901B
:102700000420299025A90848FDF786FF002206210C
:102710002520FEF76DFD2520FEF75AFD2AB010BDDD
:1027200000100140443802400004024070B50446E5
:102730000D461646D4F8800020281DD105B10EB9EB
:10274000012070BD002020662068406800F4000071
:1027500060B100BF00BF216851E8001F41F08060F8
:10276000226842E800010029F5D100BF324629461F
:10277000204601F0A7FFE4E70220E2E710B5044697
:102780000949206888420ED1084801780848026843
:102790000068401C064B186006488154012203491A
:1027A0000548FFF7C3FF10BD0010014004000020E2
:1027B0000800002044030020440B00202DE9F84FBE
:1027C00004460E4617469946E06F202851D106B1BF
:1027D00017B90120BDE8F88F002050346063212034
:1027E000E062FEF72FF8824627806780503CA068A1
:1027F000B0F5805F04D1206910B90025B04602E031
:1028000035464FF000081FE0534600228021204645
:10281000CDF8009001F0D0FF18B12020E067032030
:10282000D8E745B9B8F80000C0F30800216888620D
:1028300008F1020803E02878216888626D1CB4F86A
:102840005200401EA4F85200B4F852000028DBD118
:102850005346002240212046CDF8009001F0ACFF05
:1028600018B12020E0670320B4E72020E0670020B3
:10287000B0E70220AEE770472DE9F04105460C466F
:10288000D5F8008046462146286805F03AF800F061
:102890000400042813D1042106F5A06000EB4410C5
:1028A00081600721C4EB041205F1140000EB8200E3
:1028B00080F839102146286804F0F4FB72E02146C4
:1028C000286805F01EF800F48070B0F5807F14D100
:1028D0004FF4807106F5A06000EB44108160082180
:1028E000C4EB041205F1140000EB820080F83910EB
:1028F0002146286804F0D6FB54E02146286805F0FC
:1029000000F800F00800082813D1082106F5A0609F
:1029100000EB441081600621C4EB041205F11400A1
:1029200000EB820080F839102146286804F0BAFBD9
:1029300038E02146286804F0E4FF00F48060B0F538
:10294000806F14D14FF4806106F5A06000EB441055
:1029500081600921C4EB041205F1140000EB820030
:1029600080F839102146286804F09CFB1AE02146C3
:10297000286804F0C6FF00F08000802812D1802172
:1029800006F5A06000EB441081600721C4EB04123F
:1029900005F1140000EB820080F839102146286808
:1029A00004F080FB2146286804F0ABFF00F40070BF
:1029B000B0F5007F0BD12146286804F073FB4FF47B
:1029C000007106F5A06000EB44108160DCE0214658
:1029D000286804F096FF00F0010000287ED0202136
:1029E00006F5A06000EB44108160C4EB041105F112
:1029F000140000EB8100C079012813D10021C4EB41
:102A0000041205F1140000EB8200C17106F5A0600C
:102A100000EB4410406820F4803106F5A06000EB24
:102A200044104160A879A8B1C4EB041105F1140069
:102A300000EB8100C16906F5A06000EB441000695D
:102A4000C0F31200091AC4EB041205F1140000EBE4
:102A5000820041620121C4EB041205F1140000EB75
:102A6000820080F839100021C4EB041205F1140033
:102A700000EB82000163012106F5A06000EB441029
:102A80008160C4EB041105F1140000EB8100807C2F
:102A900040B1C4EB041105F1140000EB8100807C0F
:102AA00002280AD12146286804F0FCFA102106F514
:102AB000A06000EB4410816034E0C4EB041105F128
:102AC000140000EB8100807C03280AD0C4EB0411C1
:102AD00005F1140000EB8100807C00E068E0012833
:102AE00020D106F5A06000EB4410006840F00051D2
:102AF00006F5A06000EB441001600121C4EB041254
:102B000005F1140000EB820080F83810C4EB0411CA
:102B100005F1140000EB810090F83820214628468A
:102B2000FDF785FFA87901282FD1C4EB041105F129
:102B3000140000EB8100C4EB0412416A05F114009B
:102B400000EB8200808A0844401EC4EB041205F1A9
:102B5000140101EB8201898AB0FBF1F000F0010061
:102B6000002811D0C4EB041105F1140000EB810022
:102B700090F8280080F00101C4EB041205F1140064
:102B800000EB820080F8281064E3C4EB041105F127
:102B9000140000EB810090F8280080F00101C4EBE4
:102BA000041205F1140000EB820080F8281051E3B4
:102BB0002146286804F0A5FE00F02000202824D13A
:102BC000202106F5A06000EB44108160C4EB0411E5
:102BD00005F1140000EB810080790128D4D1012196
:102BE000C4EB041205F1140000EB8200C171032153
:102BF000C4EB041205F1140000EB820080F83910D8
:102C00002146286804F04EFA24E32146286804F09F
:102C100078FE00F0020002287DD1022106F5A060B6
:102C200000EB44108160C4EB041105F1140000EBCB
:102C3000810090F83900012812D10221C4EB04125E
:102C400005F1140000EB820080F839100121C4EB7B
:102C5000041205F1140000EB820080F8381037E20E
:102C6000C4EB041105F1140000EB810090F8390069
:102C7000062812D10221C4EB041205F1140000EB66
:102C8000820080F839100521C4EB041205F114000C
:102C900000EB820080F838101AE2C4EB041105F151
:102CA000140000EB810090F83900072809D0C4EB2C
:102CB000041105F1140000EB810090F83900092897
:102CC0007ED10221C4EB041205F1140000EB820056
:102CD00080F83910C4EB041105F1140000EB8100F9
:102CE000006B401CC4EB041205F1140101EB8201DE
:102CF0000863C4EB041105F1140000EB8100006BC4
:102D0000022837D90021C4EB041205F1140000EBAE
:102D10008200016300E0E8E1C4EB041105F1140056
:102D200000EB8100807901281AD10021C4EB041244
:102D300005F1140000EB8200C171C4EB041205F12F
:102D4000140000EB8200017206F5A06000EB441055
:102D5000406820F4803106F5A06000EB441041602B
:102D60000421C4EB041205F1140000EB820080F88A
:102D70003810ADE10221C4EB041205F1140000EBA0
:102D8000820080F83810C4EB041105F1140000EB48
:102D90008100807C40B1C4EB041105F1140000EB0C
:102DA0008100807C0228E4D106F5A06000EB44108D
:102DB000076827F0804747F0004706F5A06000E06D
:102DC00003E000EB4410076082E1C4EB041105F15D
:102DD000140000EB810090F83900052872D102211F
:102DE000C4EB041205F1140000EB820080F83910E6
:102DF000C4EB041105F1140000EB8100C079012837
:102E0000B7D1C4EB041105F1140000EB8100807C04
:102E1000032858D1C4EB041105F1140000EB810024
:102E2000406B401CC4EB041205F1140101EB82015C
:102E30004863C4EB041105F1140000EB8100406B02
:102E4000022835D90021C4EB041205F1140000EB6F
:102E500082004163C4EB041205F1140000EB820010
:102E6000C171C4EB041105F1140000EB8100006B8B
:102E7000032807D20121C4EB041205F1140000EB72
:102E80008200017206F5A06000EB4410406820F457
:102E9000803106F5A06000EB441041600421C4EBD2
:102EA000041205F1140000EB820080F8381013E0E2
:102EB0000221C4EB041205F1140000EB820080F83B
:102EC000381009E028E00221C4EB041205F11400D7
:102ED00000EB820080F83810C4EB041105F11400F7
:102EE00000EB8100807C40B1C4EB041105F11400BB
:102EF00000EB8100807C02280DD106F5A06000EB7C
:102F00004410076827F0804747F0004706F5A060A7
:102F100000EB44100760DBE0C4EB041105F1140082
:102F200000EB810090F8390003285ED10221C4EB48
:102F3000041205F1140000EB820080F83910C4EB94
:102F4000041105F1140000EB8100C07901284BD178
:102F50000221C4EB041205F1140000EB820080F89A
:102F6000381006F5A06000EB4410406840F4803152
:102F700006F5A06000EB4410416006F5A06000EB90
:102F80004410C06840F0400106F5A06000EB44101A
:102F9000C16006F5A06000EB4410C06820F020017D
:102FA00006F5A06000EB4410C160C4EB041105F10C
:102FB000140000EB8100807C40B1C4EB041105F1EA
:102FC000140000EB8100807C02280DD106F5A06082
:102FD00000EB4410076827F0804747F0004706F5EC
:102FE000A06000EB4410076072E0C4EB041105F12F
:102FF000140000EB810090F83900042830D1022140
:10300000C4EB041205F1140000EB820080F83910C3
:10301000C4EB041205F1140000EB820080F83810B4
:10302000C4EB041105F1140000EB8100807C40B179
:10303000C4EB041105F1140000EB8100807C022830
:1030400046D106F5A06000EB4410076827F08047E2
:1030500047F0004706F5A06000EB4410076037E03A
:10306000C4EB041105F1140000EB810090F8390065
:10307000082821D10221C4EB041205F1140000EB51
:10308000820080F83910C4EB041105F1140000EB44
:103090008100006B401CC4EB041205F1140101EB2C
:1030A000820108630421C4EB041205F1140000EB53
:1030B000820080F838100BE0C4EB041105F1140015
:1030C00000EB810090F83900022801D1BDE8F081C1
:1030D000C4EB041105F1140000EB810090F83820D6
:1030E00021462846FDF7A3FCB4E02146286804F0F9
:1030F00008FC00F04000402823D1402106F5A060E4
:1031000000EB441081600521C4EB041205F11400AA
:1031100000EB820080F83910C4EB041105F11400B3
:1031200000EB8100807938B90021C4EB041205F16D
:10313000140000EB820001632146286803F0B2FF0F
:1031400088E02146286804F0DCFB00F0100010281D
:103150007ED1C4EB041105F1140000EB8100807CEA
:10316000032815D10021C4EB041205F1140000EB73
:10317000820001630421C4EB041205F1140000EB8A
:10318000820080F839102146286803F08BFF30E078
:10319000C4EB041105F1140000EB8100807C40B108
:1031A000C4EB041105F1140000EB8100807C0228BF
:1031B0001FD10021C4EB041205F1140000EB8200C2
:1031C0000163A87940B1C4EB041105F1140000EBD0
:1031D0008100C07901280CD10421C4EB041205F14F
:1031E000140000EB820080F839102146286803F0B3
:1031F00059FFC4EB041105F1140000EB8100C07904
:1032000001281FD10021C4EB041205F1140000EBCA
:103210008200C17106F5A06000EB4410406820F404
:10322000803106F5A06000EB4410416006F5A06017
:1032300000EB4410C06840F0200106F5A06000EBF0
:103240004410C160102106F5A06000EB441000E0BE
:1032500000E0816000BF39E72DE9F04705460C46E4
:10326000D5F800904E462146286804F04AFB00F04D
:103270000400042813D1042106F5A06000EB4410DB
:1032800081600721C4EB041205F1140000EB8200F9
:1032900080F839102146286803F004FF84E32146B2
:1032A000286804F02EFB00F02000202865D12021A2
:1032B00006F5A06000EB44108160C4EB041105F139
:1032C000140000EB8100407901281DD10021C4EBDE
:1032D000041205F1140000EB820041710221C4EBDD
:1032E000041205F1140000EB820080F8381003216D
:1032F000C4EB041205F1140000EB820080F83910D1
:103300002146286803F0CEFEC4EB041105F1140039
:1033100000EB810080790128C0D1C4EB041105F1D4
:10332000140000EB8100C0790028B7D1C4EB041170
:1033300005F1140000EB8100807C012807D00121F9
:10334000C4EB041205F1140000EB8200C1710321EB
:10335000C4EB041205F1140000EB820080F8391070
:103360002146286803F09EFE0021C4EB041205F1FB
:10337000140000EB8200016316E32146286804F084
:10338000C0FA00F40070B0F5007F0BD14FF400716B
:1033900006F5A06000EB441081602146286803F028
:1033A00081FE01E32146286804F0ABFA00F0010039
:1033B000E8B30021C4EB041205F1140000EB820015
:1033C00001632146286804F09CFA00F04000402880
:1033D0000DD10121C4EB041205F1140000EB8200B1
:1033E0004171402106F5A06000EB44108160C4EB00
:1033F000041105F1140000EB8100C07998B100219F
:10340000C4EB041205F1140000EB8200C17106F553
:10341000A06000EB4410406820F4803106F5A06005
:1034200000EB44104160012106F5A06000E00FE0D0
:1034300000EB44108160C4EB041205F1140000EBB2
:10344000820080F839102146286803F02BFEABE299
:103450002146286804F055FA00F0400040282BD19E
:103460000521C4EB041205F1140000EB820080F882
:103470003910C4EB041105F1140000EB81008079D0
:1034800038B90121C4EB041205F1140000EB8200ED
:1034900041710021C4EB041205F1140000EB82001D
:1034A00001632146286803F0FDFD402106F5A06078
:1034B00000EB4410816077E22146286804F021FA8D
:1034C00000F00800082813D1082106F5A06000EBE1
:1034D000441081600621C4EB041205F1140000EBD6
:1034E000820080F839102146286803F0DBFD5BE29A
:1034F0002146286804F005FA00F01000102833D1A6
:103500000021C4EB041205F1140000EB82000163FA
:103510000421C4EB041205F1140000EB820080F8D2
:103520003910C4EB041105F1140000EB810040795F
:1035300078B9C4EB041105F1140000EB81000079A7
:1035400038B90121C4EB041205F1140000EB82002C
:1035500041712146286803F0A5FD102106F5A06001
:1035600000EB441081601FE22146286804F0C9F98D
:1035700000F08000802863D1A87968B90721C4EBE6
:10358000041205F1140000EB820080F83910214686
:10359000286803F087FD4CE0C4EB041105F114002A
:1035A00000EB8100006B401CC4EB041205F1140118
:1035B00001EB82010863C4EB041105F1140000EB78
:1035C0008100006B02281DD90021C4EB041205F113
:1035D000140000EB820001630421C4EB041205F126
:1035E000140000EB820080F83810C4EB041105F1E0
:1035F000140000EB810090F8382021462846FDF7A2
:1036000016FA16E00221C4EB041205F1140000EBD7
:10361000820080F8381006F5A06000EB44100768BF
:1036200027F0804747F0004706F5A06000EB441004
:103630000760802106F5A06000EB44108160B3E1D3
:103640002146286804F05DF900F48060B0F5806FD1
:1036500014D10921C4EB041205F1140000EB82001F
:1036600080F839102146286803F01CFD4FF4806172
:1036700006F5A06000EB4410816095E121462868C2
:1036800004F03FF900F0020002287DD1022106F586
:10369000A06000EB44108160C4EB041105F114003C
:1036A00000EB810090F83900012876D10221C4EBAB
:1036B000041205F1140000EB820080F8391001219A
:1036C000C4EB041205F1140000EB820080F83810FE
:1036D000C4EB041105F1140000EB8100807C02288A
:1036E00008D0C4EB041105F1140000EB8100807CCC
:1036F000032851D1A87988B9C4EB041105F114004D
:1037000000EB810090F8290080F00101C4EB041265
:1037100005F1140000EB820080F82910A879012837
:10372000E7D1C4EB041105F1140000EB8100006A3D
:10373000002831D0C4EB041105F1140000EB810026
:10374000C4EB0412016A05F1140000EB8200808AC8
:103750000844401EC4EB041205F1140101EB820180
:10376000898AB0FBF1F808F001000028E1D0C4EB31
:10377000041105F1140000EB810090F8290080F09D
:103780000101C4EB041201E00DE106E005F11400B3
:1037900000EB820080F82910F8E0C4EB041105F179
:1037A000140000EB810090F8390003281BD102219E
:1037B000C4EB041205F1140000EB820080F839100C
:1037C000C4EB041105F1140000EB8100C07901285D
:1037D00008D10221C4EB041205F1140000EB8200B1
:1037E00080F83810D2E0C4EB041105F1140000EBAE
:1037F000810090F8390004282ED10221C4EB041274
:1038000005F1140000EB820080F83910C4EB0412BB
:1038100005F1140000EB820080F83810C4EB0411AD
:1038200005F1140000EB8100C079012813D10021BB
:10383000C4EB041205F1140000EB8200C17106F51F
:10384000A06000EB4410406820F4803106F5A060D1
:1038500000EB4410416099E0C4EB041105F1140041
:1038600000EB810090F83900052811D10221C4EB4A
:10387000041205F1140000EB820080F83910C4EB4B
:10388000041205F1140000EB820080F838107DE08E
:10389000C4EB041105F1140000EB810090F839002D
:1038A000062812D10221C4EB041205F1140000EB2A
:1038B000820080F839100521C4EB041205F11400D0
:1038C00000EB820080F8381060E0C4EB041105F1D1
:1038D000140000EB810090F83900072809D0C4EBF0
:1038E000041105F1140000EB810090F8390009285B
:1038F0004AD10221C4EB041205F1140000EB82004E
:1039000080F83910C4EB041105F1140000EB8100BC
:10391000006B401CC4EB041205F1140101EB8201A1
:103920000863C4EB041105F1140000EB8100006B87
:10393000022811D90021C4EB041205F1140000EB98
:10394000820001630421C4EB041205F1140000EBB2
:10395000820080F8381019E00221C4EB041205F14E
:10396000140000EB820080F8381006F5A06000EB30
:103970004410076827F0804747F0004706F5A0602D
:1039800000EB4410076001E0BDE8F087C4EB0411D0
:1039900005F1140000EB810090F8382021462846FC
:1039A000FDF745F800E0EFE700BFEDE77CB5044622
:1039B00026683546D5F840040190D5F840040090BB
:1039C000009820F02E000090019800F002000228DC
:1039D0000AD1019800F0010010B12046FCF738FF31
:1039E000009840F002000090019800F008000828BC
:1039F0002AD1009840F008000090019800F00400DF
:103A000004281ED1607A02280FD1019800F4C0204A
:103A1000B0F5802F04D10221206803F04DFF0CE0A7
:103A20000121206803F048FF07E0E079012804D174
:103A30004EF6602140F2044041512046FDF7B9FAAC
:103A400002E02046FDF7AEFA019800F020002028A1
:103A500003D1009840F0200000900098C5F8400481
:103A60007CBD2DE9F84F0546D5F800B05F462868C3
:103A7000D0F8208008F00F04C8F343400090C8F34A
:103A80000A160098022806D003287DD005287CD08D
:103A900007287BD18CE0002E79D0C4EB041105F10E
:103AA000140000EB8100806900287DD0C4EB041174
:103AB00005F1140000EB8100406A8119C4EB041287
:103AC00005F1140000EB8200006A814263D8B2B2B3
:103AD000C4EB041C05F1140303EB8C0399692868FB
:103AE00003F023FFC4EB041105F1140000EB810087
:103AF00080698119C4EB041205F1140000EB820007
:103B00008161C4EB041105F1140000EB8100406AEF
:103B10008119C4EB041205F1140000EB820041622C
:103B200007F5A06000EB44100069C0F3C94AC4EB7C
:103B3000041105F1140000EB8100808AB04233D1FA
:103B4000BAF1000F30D007F5A06000EB4410D0F8B8
:103B5000009029F0804949F0004907F5A06000EB8A
:103B60004410C0F80090C4EB041105F1140000EB00
:103B7000810090F8280080F00101C4EB041205F1E7
:103B8000140000EB820003E011E00EE00EE00BE019
:103B900080F8281008E00421C4EB041205F1140099
:103BA00000EB820080F8381003E002E000BF00BFA5
:103BB00000BF00BFBDE8F88F00BFFEE700B587B0CB
:103BC00000BF1248006840F0020010490860084633
:103BD000006800F00200019000BF00BF03200290C7
:103BE0000120039004900320059002A90848FCF7E7
:103BF00013FD012211460648FCF71EFE0122022198
:103C00000348FCF719FE07B000BD00003038024041
:103C1000000402401FB50020009001900290039024
:103C2000FDF77AFA01208DF8000000208DF80100E0
:103C300001901F208DF8080087208DF809000020D2
:103C40008DF80A008DF80B0001208DF80C008DF81E
:103C50000D0000208DF80E008DF80F006846FDF76E
:103C60002DFA0420FDF76EFA1FBD000000B587B0E5
:103C70001C2206496846FCF770FB0021684604F0E8
:103C8000F8FB0349086007B000BD0000409F000832
:103C90000000002008B500BF1348006840F0800015
:103CA000114908600846006800F08000009000BFDD
:103CB00000BF00BF0846006840F0020008600846E8
:103CC000006800F00200009000BF00BF00BF08467F
:103CD000006840F0010008600846006800F001003C
:103CE000009000BF00BF08BD3038024010B510483A
:103CF000104908604FF4E130486000210D488160B0
:103D0000C16001610C21416100218161C1610162D9
:103D10000020084948620846FEF778FC08B1FCF725
:103D2000FAFB012204490348FEF700FD10BD000024
:103D300000100140440B00200400002010B50122B7
:103D40000A490B4802F014F808B1FCF7E4FB0949F2
:103D5000074802F0EDFE08B1FCF7DDFB044803F074
:103D600003F808B1FCF7D7FB10BD0000816D000817
:103D7000CC0C00209800002000BFFEE7FDF7D4FF28
:103D800000BFFEE710B50248FCF79CFF10BD000025
:103D9000FC100020F8B5074607F54E7529790DA0EF
:103DA00003F0CCFE002611E006EB860000EBC60116
:103DB00005F10A0000EB4104E0790090A3796279F3
:103DC000A1780AA003F0BAFE701CC6B22879B042EE
:103DD000EADCF8BD546F74616C20496E74657266DC
:103DE000616365733A2025640D0A0000494620236B
:103DF00025643A20436C6173733D30782530325826
:103E0000205375623D3078253032582050726F74DF
:103E10006F3D3078253032580D0A0000FFF78EFFD5
:103E200000BF012004F074FAFBE710B5FDF708F9B4
:103E300005F096FE012801D005F016FA10BD00002D
:103E400000B593B0342106A8FCF7A0FA142101A80C
:103E5000FCF79CFA00BF2848006840F080502649D3
:103E600008600846006800F08050009000BF00BF66
:103E700000BF2248006840F44040204908600846DE
:103E8000006800F44040009000BF00BF0120069091
:103E90000004079002200C9041050D9119210E910C
:103EA0004FF4D8710F910221109109211191022133
:103EB000129106A8FDF748FF08B1FCF72CFBFDF7AF
:103EC000E9F908B1FCF727FB0F20019002200290CE
:103ED000002003904FF4A05004904FF480500590C0
:103EE000072101A8FDF7CEFD08B1FCF714FBFDF793
:103EF00093FE13B000BD0000403802400070004047
:103F00000348006840F470000149086070470000F1
:103F100088ED00E090F8241001F00801082907D18D
:103F20000168496821F40041426B11430268516005
:103F300090F8241001F0010139B10168496821F4B9
:103F40000031826A11430268516090F8241001F038
:103F50000201022907D10168496821F48031C26A4F
:103F600011430268516090F8241001F00401042903
:103F700007D10168496821F48021026B114302686E
:103F8000516090F8241001F01001102907D1016848
:103F9000896821F48051826B11430268916090F826
:103FA000241001F02001202907D10168896821F43B
:103FB0000051C26B11430268916090F8241001F027
:103FC0004001402913D10168496821F48011026C35
:103FD000114302685160016CB1F5801F07D101687F
:103FE000496821F4C001426C11430268516090F8A5
:103FF000241001F08001802907D10168496821F46B
:104000000021826C114302685160704738B5044644
:104010000020C4F88400FCF715FC05462068006801
:1040200000F00800082820D16FF07E402B460022C7
:104030004FF400110090204600F0BEFBA8B100BF75
:1040400000BF216851E8001F21F08000226842E88B
:1040500000010029F5D100BF2020E06700BF00204B
:1040600084F8780000BF032038BD2068006800F0A5
:104070000400042830D16FF07E402B4600224FF41C
:1040800080010090204600F097FB28B300BF00BFDE
:10409000216851E8001F21F49070226842E8000175
:1040A0000029F5D100BF00BF00BF2168083151E8E9
:1040B000001F21F001002168083141E80002002AB8
:1040C000F3D100BF2020C4F8800000BF002084F896
:1040D000780000BF0320C7E72020E067C4F8800015
:1040E00000202066606600BF84F8780000BF00BF33
:1040F000BAE770B50446A56B0020A5F85A0028461B
:10410000FEF7C8F870BD00BF00BF026852E8002F7C
:1041100022F49071036843E80012002AF5D100BF31
:1041200000BF00BF0268083252E8002F22F00101F0
:104130000268083242E80013002BF3D100BF016E81
:1041400001290CD100BF00BF026852E8002F22F005
:104150001001036843E80012002AF5D100BF2021B6
:10416000C0F88010002101668166704710B50446D2
:1041700000BF00BF216851E8001F21F04000226805
:1041800042E800010029F5D100BF2020E0670020AF
:10419000E0662046FEF76FFB10BD2DE9F0410446B6
:1041A000B4F85C70D4F8800022286AD12068406A94
:1041B00086B2656D06EA07002880606D801C606528
:1041C000B4F85A00401EA4F85A00B4F85A00002867
:1041D0005DD100BF00BF216851E8001F21F490703D
:1041E000226842E800010029F5D100BF00BF00BFEE
:1041F0002168083151E8001F21F0010021680831D1
:1042000041E80002002AF3D100BF2020C4F880005A
:104210000020A06660662068406800F4000060B17D
:1042200000BF00BF216851E8001F21F080602268B4
:1042300042E800010029F5D100BF206E01281CD101
:104240000020206600BF00BF216851E8001F21F058
:104250001000226842E800010029F5D100BF206863
:10426000C069C0F3001010B1102021680862B4F8D2
:1042700058102046FEF70CF809E02046FEF77EFABB
:1042800005E02068806940F0080021688861BDE889
:10429000F08170B50446B4F85C60D4F88000222840
:1042A0006AD12068406A85B2F0B22840616D08701A
:1042B000606D401C6065B4F85A00401EA4F85A00B6
:1042C000B4F85A0000285DD100BF00BF216851E852
:1042D000001F21F49070226842E800010029F5D106
:1042E00000BF00BF00BF2168083151E8001F21F066
:1042F00001002168083141E80002002AF3D100BF23
:104300002020C4F880000020A06660662068406815
:1043100000F4000060B100BF00BF216851E8001F39
:1043200021F08060226842E800010029F5D100BF39
:10433000206E01281CD10020206600BF00BF21682C
:1043400051E8001F21F01000226842E80001002916
:10435000F5D100BF2068C069C0F3001010B1102073
:1043600021680862B4F858102046FDF791FF09E073
:104370002046FEF703FA05E02068806940F0080057
:104380002168886170BD00002DE9F04705464FF0B7
:10439000000A2969A868084369690843E96940EA8D
:1043A000010828680068BC49084040EA08002968FC
:1043B00008602868406820F44050E968084329688C
:1043C0004860D5F81880286A40EA0808286880689C
:1043D00020F4306040EA08002968886000BFAF49D7
:1043E0002868884216D1AE48006800F0030030B15A
:1043F000012808D0022804D0032808D105E00124B0
:1044000007E0022405E0042403E0082401E010246E
:1044100000BFC9E0A3492868884216D1A0480068B7
:1044200000F00C0030B1042808D0082804D00C2873
:1044300008D105E0002407E0022405E0042403E09D
:10444000082401E0102400BFAEE0974928688842A4
:1044500016D19348006800F0300030B1102808D021
:10446000202804D0302808D105E0002407E00224E9
:1044700005E0042403E0082401E0102400BF93E0D9
:104480008A492868884216D18548006800F0C00033
:1044900030B1402808D0802804D0C02808D105E0D9
:1044A000002407E0022405E0042403E0082401E0DE
:1044B000102400BF78E07E492868884219D17848E6
:1044C000006800F4407048B1B0F5807F0AD0B0F5C4
:1044D000007F05D0B0F5407F08D105E0002407E05B
:1044E000022405E0042403E0082401E0102400BFB6
:1044F0005AE070492868884219D16948006800F478
:10450000406048B1B0F5806F0AD0B0F5006F05D0BB
:10451000B0F5406F08D105E0012407E0022405E072
:10452000042403E0082401E0102400BF3CE06249B9
:104530002868884219D15A48006800F4405048B1B0
:10454000B0F5805F0AD0B0F5005F05D0B0F5405FF0
:1045500008D105E0002407E0022405E0042403E07C
:10456000082401E0102400BF1EE054492868884256
:1045700019D14B48006800F4404048B1B0F5804F75
:104580000AD0B0F5004F05D0B0F5404F08D105E096
:10459000002407E0022405E0042403E0082401E0ED
:1045A000102400BF00E0102400BFE869B0F5004F00
:1045B00039D1092C17D2DFE804F005090D160F16C2
:1045C00016161300FDF738FB064610E0FDF744FB16
:1045D00006460CE03A4E0AE0FDF74EFB064606E0C2
:1045E0004FF4004603E000264FF0010A00BF00BF71
:1045F00086B37000696800EB5100B0FBF1F7102F33
:104600000ED3B7F5803F0BD24FF6F07007EA0009E2
:10461000C7F3420049EA00092868C0F80C9034E06A
:104620004FF0010A31E0092C18D2DFE804F0050947
:104630000D170F1717171400FDF7FEFA064611E0C5
:10464000FDF70AFB06460DE01D4E0BE0FDF714FBDF
:10465000064607E019E04FF4004603E000264FF05D
:10466000010A00BF00BF86B1686806EB50006968A8
:10467000B0FBF1F7102F06D3B7F5803F03D2B8B2E5
:104680002968C86001E04FF0010A0020A866E866CA
:104690005046BDE8F0870000F369FFEF00100140CD
:1046A000903802400044004000480040004C004068
:1046B000005000400014014000780040007C0040A1
:1046C0000024F40030B503465965A3F85820A3F838
:1046D0005A200020986600BF9868B0F5805F0AD124
:1046E000186920B940F2FF10A3F85C0020E0FF2019
:1046F000A3F85C001CE0986848B9186918B9FF2055
:10470000A3F85C0014E07F20A3F85C0010E0986838
:10471000B0F1805F09D1186918B97F20A3F85C0057
:1047200006E03F20A3F85C0002E00020A3F85C0054
:1047300000BF0020C3F884002220C3F8800000BF1F
:1047400000BF1C68083454E8004F44F001001C68A6
:10475000083444E80005002DF3D100BF9868B0F597
:10476000805F04D1186910B91148986601E01148BA
:104770009866186960B100BF00BF1C6854E8004F1C
:1047800044F490701D6845E80004002CF5D10CE05D
:1047900000BF00BF1C6854E8004F44F020001D68B3
:1047A00045E80004002CF5D100BF002030BD00001A
:1047B0009B410008934200082DE9F04104460D4654
:1047C00017469846069E41E0701C00283ED0FCF734
:1047D00039F8A0EB0800B04200D816B90320BDE8B4
:1047E000F0812068006800F0040070B3802D2DD0A7
:1047F000402D2BD02068C069C0F3C00078B10820DC
:10480000216808622046FFF77EFC0820C4F8840077
:1048100000BF002084F8780000BF0120DFE7206897
:10482000C069C0F3C02080B14FF400602168086205
:104830002046FFF768FC2020C4F8840000BF002059
:1048400084F8780000BF0320C9E7FFE72068C0694B
:104850002840A84201D1012000E00020B842B3D096
:104860000020BCE710B50248FDF716FD10BD0000A2
:10487000440B002070B506460D46304600F006F9A0
:1048800004464FF6FF70844207D045F4004104F01F
:104890000F0206F5747040F82210E0B270BD70B5DA
:1048A00004460D462946204601F0D1FA002070BD8D
:1048B00070B504460D46A078012807D10221217465
:1048C0000121617400216182A582E18200221146EA
:1048D000204600F016F870BD2DE9FF4107460C4652
:1048E00015461E460020012103460A468DE8320087
:1048F00003903146384601F0E6FB002004B0BDE8E5
:10490000F0812DE9F04104460E4617460125A078B6
:10491000012802D0022825D10DE0A660A78101213F
:1049200021760220A070012500231A46032120468B
:1049300001F0E9FB17E0204600F0B4FD05460DB19B
:10494000032D04D10120A0700021217603E0022D67
:1049500001D10120A07000231A460321204601F056
:10496000D2FB00E000BF00BF2846BDE8F0812DE982
:10497000FF4104460D4617461E46DDF8288094F890
:104980001D0308B14FF00008012000231A463146EC
:104990008DE8A101204601F096FB002004B0BDE89F
:1049A000F0817FB506460C46154600200821CDE96A
:1049B000000403460246CDE902102946304601F0C4
:1049C00082FB002004B070BD10B504462046FBF702
:1049D0000FFE10BDF0B506460C461546002200211C
:1049E00006F54E771AE002EB820000EBC20C07F1ED
:1049F0000A0000EB4C014879A04201D0FF2C0BD1FA
:104A00008879A84201D0FF2D06D1C879984201D0FB
:104A1000FF2B01D11046F0BD501CC2B2052AE2D3D3
:104A2000FF20F8E70246102909D202F5747030F829
:104A30002100C0F30E0302F5747040F8213000200D
:104A400070472DE9F04104460E4615461F46DDF835
:104A50001880A078012812D146F080012174062127
:104A60006174658205F47F40B0F5407F03D140F268
:104A70000941A18201E00021A182A4F816804246EA
:104A800039462046FFF73DFFBDE8F0810246002190
:104A900000BF0AE002F5747030F8210000F4004015
:104AA00008B908467047481CC1B21029F2D34FF626
:104AB000FF70F7E710B502460B88147823440B808B
:104AC0001378981810BD0000F8B506460C4606F19C
:104AD0001C07B4F5807F0CD900BF0FA003F02EF89F
:104AE0000F4803F02BF80FA003F028F800BF0320B5
:104AF000F8BD3B464FF40072002130460094FFF7AA
:104B0000A0FF05462DB922463946304601F028FB64
:104B100005462846ECE700004552524F523A200025
:104B200094A000080A000000F8B505460C46B4F54C
:104B3000007F0CD900BF10A003F000F8104802F06D
:104B4000FDFF10A002F0FAFF00BF0320F8BD05F53D
:104B50008E734FF48072002128460094FFF771FF96
:104B6000064636B9224605F58E71284601F0A7FBA8
:104B700006463046EAE700004552524F523A2000BE
:104B80000CA000080A0000002DE9F84305468846FD
:104B900016461C46B4F5007F00D86EB900BF10A0C1
:104BA00002F0CCFF104802F0C9FF10A002F0C6FFCF
:104BB00000BF0320BDE8F88348F4407205F58E730A
:104BC000002128460094FFF73CFF07462FB92246F4
:104BD000314605F58E7001F072FC3846EAE70000B8
:104BE0004552524F523A200050A000080A000000DF
:104BF0000146002031B1012906D0022906D003293F
:104C000008D105E0002007E0022005E0012003E0D4
:104C1000022001E0022000BF00BF70472DE9F041F3
:104C2000064601270125D6F8C803C469607906281D
:104C300053D2DFE800F003530D04253400BF06F122
:104C40001C0104F1260000F003FB0220607146E025
:104C5000E18D304600F0E8F8054615B90420607192
:104C60000DE0032D0BD100BF1FA002F067FF20A0B5
:104C700002F064FF2EA002F061FF00BF02272EE0C9
:104C800000221146304600F0E2FB054615B905202A
:104C9000607103E0032D01D1052060711FE0002148
:104CA000304600F0E8FB054645B90120607102215D
:104CB0003046D6F82024904700270DE0032D0BD175
:104CC00000BF09A002F03AFF1AA002F037FF18A0B7
:104CD00002F034FF00BF022701E000BF00BF00BFA9
:104CE0003846BDE8F08100004552524F523A20004C
:104CF000436F6E74726F6C206572726F723A2048E7
:104D000049443A20446576696365204765742052BA
:104D100065706F72742044657363726970746F722A
:104D20002072657175657374206661696C656400D5
:104D30000A000000436F6E74726F6C206572726FB0
:104D4000723A204849443A204465766963652053A5
:104D500065742070726F746F636F6C20726571750B
:104D6000657374206661696C6564000070B5064601
:104D7000D6F8C803C46994B1208B80B108A002F0B2
:104D8000DDFE002505E06069415D08A002F0D6FE69
:104D90006D1C208BA842F6DC06A002F0CFFE70BD91
:104DA000524157204849443A2000000025303258EB
:104DB000200000000D0A000000238380C38083725E
:104DC000028101607047F0B503460C462546987A8B
:104DD00028BB0120987200211FE09888401CDE88C3
:104DE000B04206D09888401C1E89B04205D1D888B0
:104DF00018B9002098720846F0BD15F8010B9F887D
:104E00001E68F0559888401C988098881E89B0428A
:104E100001D100209880481C81B29142DDDB002046
:104E200098721046E8E70000F8B505460C46B4F560
:104E3000007F0CD900BF0CA002F080FE0C4802F0ED
:104E40007DFE0CA002F07AFE00BF0320F8BD05F540
:104E50008E734FF40852012128460094FFF7F1FDAC
:104E600006463046F2E700004552524F523A2000C3
:104E7000E4A000080A0000002DE9F04104460D46B8
:104E800016461F46DDF81880A121217401216174A6
:104E900046EA052161820021A182A4F816804246DB
:104EA00039462046FFF72DFDBDE8F08170B5054677
:104EB000D5F8C803C469607848B161782846FFF71F
:104EC000EEFC61782846FFF7ADFD00206070207889
:104ED00048B121782846FFF7E2FC21782846FFF701
:104EE000A1FD00202070D5F8C803C06940B1D5F8F5
:104EF000C813C86903F05AF90020D5F8C813C8616F
:104F0000002070BD2DE9FE4F05460027D5F8C803E7
:104F10000179FF2301222846FFF75CFD0646FF2E9C
:104F200001D0052E04D300BF00BF0220BDE8FE8FD4
:104F30003146284601F04AFE8146B9F1000F01D002
:104F40000220F3E7342003F0ADF9D5F8C813C861A7
:104F5000D5F8C803C4691CB900BF00BF0220E5E74B
:104F600034212046FBF712FA0720A07006EB8600DA
:104F700000EBC60105F2423000EB4100C079012888
:104F80000AD100BF6FA002F0D9FD74A002F0D6FDD7
:104F900000BF734820631FE006EB860000EBC601EC
:104FA00005F2423000EB4100C07902280AD100BF6F
:104FB0006CA002F0C3FD69A002F0C0FD00BF6E4806
:104FC000206309E000BF6DA002F0B8FD63A002F00D
:104FD000B5FD00BF0220A9E70020A070607106EBBC
:104FE000860000EBC60105F2423000EB4100007B79
:104FF000A07606EB860000EBC60105F2423000EB1E
:105000004100C089208306EB860000EBC60105F253
:10501000423000EB4100007CA083A08B0A2801D223
:105020000A20A08306EB860000EBC60105F24230A1
:1050300000EB41000079022809D806EB860000EB5E
:10504000C60105F2423000EB4100007900E0022089
:105050008246002772E006EB860000EBC60105F2EF
:10506000423000EB41000A3000EBC700807800F0CE
:10507000800080B306EB860000EBC60105F24230EB
:1050800000EB41000A3000EBC700807820712179E5
:105090002846FFF7EFFB607006EB860000EBC601C9
:1050A00005F2423000EB41000A3000EBC700B0F8D7
:1050B0000480032195F81D038DE8030195F81C3346
:1050C00022796178284601F036F861780022284676
:1050D00000F0BCFF30E0FFE706EB860000EBC60106
:1050E00005F2423000EB41000A3000EBC700807847
:1050F000E070E1782846FFF7BDFB207006EB8600E4
:1051000000EBC60105F2423000EB41000A3000EB33
:10511000C700B0F80480032195F81D038DE8030152
:1051200095F81C33E2782178284601F004F82178BC
:105130000022284600F08AFF781CC7B257458ADB58
:105140000020F3E64B6579426F61726420646576F6
:1051500069636520666F756E642100000A000000B7
:10516000955100084D6F75736520646576696365B8
:1051700020666F756E642100F551000850726F74DF
:105180006F636F6C206E6F7420737570706F7274C4
:1051900065642E0070B50646D6F8C803C5690020C0
:1051A000114948708870C870087148718871C87159
:1051B0000872002405E000200C4908550C490855E8
:1051C000641C082CF7D3288B082801D908202883D1
:1051D00007486861502206F58E7105F10800FFF757
:1051E000EBFD002070BD0000CC510020C00000206D
:1051F000B800002070B50646D6F8C803C56900207F
:10520000104908704870887000210E48C170017103
:10521000002405E000200C4908550C490855641C81
:10522000082CF7D3288B082801D9082028830748A1
:105230006861502206F58E7105F10800FFF7BCFD8C
:10524000002070BDC8000020CD000020D500002047
:10525000F8B505460E463446B178F07841EA0027A5
:10526000092F24D9092000901CE069462046FFF749
:1052700021FC04466078212814D1207828706078B9
:105280006870A178E07841EA002068802079287170
:1052900060796871A079A871E179207A41EA0020EB
:1052A000288103E0BDF80000B842DEDB00BFF8BD96
:1052B000F8B506460025D6F8C803C469A0780728C3
:1052C0007ED2DFE800F0042195955244610030461B
:1052D000216B8847054615B90120A0700DE000BF7D
:1052E00045A002F02BFC46A002F028FC4AA002F0E8
:1052F00025FC00BF0720A070022500231A460221CA
:10530000304600F000FF74E0207E00900022012172
:1053100030466369FFF7B0FD054615B90520A0705A
:105320000EE0012D03D10120A070002508E0032D1F
:1053300003D10520A070002502E00720A0700225FF
:1053400000231A460221304600F0DDFE51E0D6F877
:10535000100400F0010008B10420A07000231A46D8
:105360000221304600F0CFFE43E06378227E3046D3
:10537000616900F057FD0620A070D6F81004206285
:10538000002084F8240034E06178304600F0CFFD3E
:1053900001281FD16178304600F0A8FD074694F837
:1053A000240020BB1FB3A06808B3228B04F10800BF
:1053B0006169FFF708FD012084F82400304600E011
:1053C00016E0FFF7D3FC00231A460221304600F016
:1053D0009AFE0CE06178304600F0A9FD052806D160
:1053E000A17E3046FFF764FA08B90420A07000E0FF
:1053F00000BF00BF2846F8BD4552524F523A200028
:1054000048494420436C61737320496E6974206677
:1054100061696C65640000000A00000070B5054613
:10542000D5F8C803C469A07806280ED1D5F81004B1
:10543000216A401AA18B884207D30420A070002360
:105440001A460221284600F05EFE002070BD70B5AD
:1054500004460D461646212121740A21617446EA4C
:10546000052161820021A182E182002211462046AD
:10547000FFF747FA70BD70B504460D46212121742F
:105480000B21617415B10021618201E0012161826B
:105490000021A182E182002211462046FFF731FA65
:1054A00070BD0000F8B5044601270025207E0C28B9
:1054B00070D2DFE800F06F060F3E4A707EB1BDE3A8
:1054C000F3F1627904F110012046FFF76AFA022134
:1054D000217634E16179204600F029FD0546012D51
:1054E0001AD1207C00F08006E08A38B1802E02D1EB
:1054F0000321217609E00521217606E0802E02D1E4
:105500000921217601E00721217600231A46032193
:10551000204600F0F8FD0BE0042D01D0022D07D14C
:105520000B21217600231A460321204600F0EBFDD3
:1055300005E1D4F81004E0812379A2892046A1680E
:10554000FFF7CAF904212176F9E02179204600F01D
:10555000EEFC0546012D08D10921217600231A46CB
:105560000321204600F0CFFD13E0052D07D10327CE
:1055700000231A460321204600F0C5FD09E0042D52
:1055800007D10B21217600231A460321204600F083
:10559000BAFDD4E0D2E0012000906379A2892046D0
:1055A000A168FFF7E4F9D4F81004E0810621217620
:1055B000C5E06179204600F0BAFC0546012D08D10E
:1055C0000721217600231A460321204600F09BFD87
:1055D00021E0052D09D10C212176032700231A464D
:1055E0000321204600F08FFD15E0022D08D1052192
:1055F000217600231A460321204600F084FD0AE0AC
:10560000042D08D10B212176022700231A460321FD
:10561000204600F078FD92E02379002211462046D2
:10562000FFF75AF9D4F81004E0810821217686E0CA
:105630002179204600F07BFC0546012D09D10D2182
:105640002176002700231A460321204600F05BFD47
:1056500013E0042D08D10B21217600231A460321E3
:10566000204600F050FD08E0052D06D10327002359
:105670001A460321204600F046FD60E0012000901C
:105680006379002211462046FFF771F9D4F810041F
:10569000E0810A21217652E027E0FFE76179204688
:1056A00000F045FC0546012D09D100270D2121768A
:1056B00000231A460321204600F025FD14E0022DA8
:1056C00008D10921217600231A460321204600F043
:1056D0001AFD09E0042D07D10B21217600231A467B
:1056E0000321204600F00FFD29E0607E401CC1B27E
:1056F0006176022904D8012121760120A0701CE0E6
:1057000006212046D4F8202490470021617600BF6E
:105710000CA002F013FA0DA002F010FA15A002F08E
:105720000DFA00BF61792046FFF77CF92179204608
:10573000FFF778F900202070022700E000BF00BFCB
:105740003846F8BD4552524F523A2000436F6E74AE
:10575000726F6C206572726F723A2044657669636D
:1057600065206E6F7420726573706F6E64696E670A
:10577000000000000A000000FEB5044601260125D5
:105780006078082875D2DFE800F00457A2F5F3F23C
:10579000F1F008212046FFF7C7F9054605BB94F84C
:1057A0002D13A17101206070A079002294F81D13BF
:1057B000CDE90012029094F81C3321798022204612
:1057C00000F0B9FCA079002294F81D13CDE9001275
:1057D000029094F81C336179204600F0ACFC2AE07A
:1057E000032D28D100BFEEA002F0A8F9EEA002F030
:1057F000A5F9FAA002F0A2F900BF94F81E03401C1C
:1058000084F81E0394F81E0303280AD900BFF4A0ED
:1058100002F094F9F1A002F091F900BF0D20207080
:1058200009E061792046FFF7FDF821792046FFF76E
:10583000F9F8002020708AE212212046FFF774F95F
:105840000546BDB900BFB4F83013F5A002F076F9F3
:10585000E2A002F073F900BF00BFB4F82E13F3A06A
:1058600002F06CF9DDA002F069F900BF022060705F
:105870002CE06BE2032D29D100BFC9A002F05EF934
:10588000EDA002F05BF9D5A002F058F900BF94F842
:105890001E03401C84F81E0394F81E0303280AD933
:1058A00000BFCFA002F04AF9CCA002F047F900BF38
:1058B0000D2020700AE061792046FFF7B3F82179C6
:1058C0002046FFF7AFF80020607020703FE2012112
:1058D000204601F00DFA05466DBB0220FFF774F873
:1058E000012184F81C1300BF94F81C13E1A002F0FE
:1058F00025F9BAA002F022F900BF03206070A07958
:10590000002294F81D13CDE90012029094F81C3384
:1059100021798022204600F00EFCA079002294F824
:105920001D13CDE90012029094F81C3361792046D2
:1059300000F001FC18E0032D16D100BF98A002F082
:10594000FDF8D2A002F0FAF8A4A002F0F7F800BF28
:1059500000BFA3A002F0F2F8A0A002F0EFF800BF91
:105960000D20207000206070F1E1F3E0B4E06EE003
:1059700036E0FFE709212046FFF7A6F8054615B9EE
:10598000042060702BE0032D29D100BF84A002F019
:10599000D5F8CB4802F0D2F890A002F0CFF800BFC3
:1059A00094F81E03401C84F81E0394F81E03032879
:1059B0000AD900BF8AA002F0C1F888A002F0BEF8A0
:1059C00000BF0D2020700AE061792046FFF72AF819
:1059D00021792046FFF726F8002060702070B6E19C
:1059E000B4F83A132046FFF76FF8054615B90520BD
:1059F00060702BE0032D29D100BF69A002F09EF852
:105A0000AF4802F09BF875A002F098F800BF94F838
:105A10001E03401C84F81E0394F81E0303280AD9B1
:105A200000BF6FA002F08AF86CA002F087F800BFF8
:105A30000D2020700AE061792046FEF7F3FF2179FE
:105A40002046FEF7EFFF0020607020707FE194F8A1
:105A5000340378B394F83413FF2304F58E72204690
:105A6000FFF792F8054695B900BF04F58E7195A031
:105A700002F064F859A002F061F800BF06206070DF
:105A800000231A460521204600F03DFB23E0032DAC
:105A900021D100BF90A002F051F850A002F04EF8C2
:105AA00000BF0620607000231A460521204600F042
:105AB0002AFB10E0FFE700BF87A002F03FF847A0F5
:105AC00002F03CF800BF0620607000231A46052152
:105AD000204600F018FB3AE194F8350348B394F8F7
