:020000040800F2
:10000000908A02200D02000849790008813D00080D
:100010004179000811080008C190000800000000A4
:10002000000000000000000000000000617A0008ED
:100030001908000800000000F1790008917A000812
:1000400027020008270200082702000827020008EC
:1000500027020008270200082702000827020008DC
:1000600027020008270200082702000827020008CC
:1000700027020008270200082702000827020008BC
:1000800027020008270200082702000827020008AC
:10009000270200082702000827020008270200089C
:1000A000270200082702000827020008270200088C
:1000B000270200082702000827020008270200087C
:1000C000270200082702000827020008270200086C
:1000D00027020008F18B0008270200082702000809
:1000E000270200082702000827020008270200084C
:1000F000270200082702000827020008270200083C
:10010000270200082702000827020008270200082B
:100110002702000827020008B97B0008C97B0008F5
:10012000270200082702000827020008270200080B
:1001300027020008270200082702000827020008FB
:10014000270200082702000827020008C9790008D2
:1001500027020008270200082702000827020008DB
:1001600027020008270200082702000827020008CB
:1001700027020008D97900082702000800000000C3
:1001800027020008270200082702000827020008AB
:10019000270200082702000827020008270200089B
:1001A000270200082702000827020008270200088B
:1001B000270200082702000827020008270200087B
:1001C000270200082702000800000000270200089C
:1001D000270200082702000827020008270200085B
:1001E000270200082702000827020008270200084B
:1001F0002702000827020008DFF80CD000F068FA98
:1002000000480047E1EF0008908A02200648804736
:1002100006480047FEE7FEE7FEE7FEE7FEE7FEE7EB
:10022000FEE7FEE7FEE7FEE7A17B0008F901000814
:100230002DE9F05F0546002092469B46884606461B
:10024000814640241BE0284641464746224600F0AE
:1002500076F853465A46C01A914110D311461846B3
:10026000224600F05DF82D1A67EB01084F46224642
:100270000120002100F054F817EB00094E41201E28
:10028000A4F10104DFDC484631462A464346BDE876
:10029000F09F40EA01039B0703D009E008C9121F41
:1002A00008C0042AFAD203E011F8013B00F8013B30
:1002B000521EF9D27047D2B201E000F8012B491E5C
:1002C000FBD270470022F6E710B513460A460446F3
:1002D0001946FFF7F0FF204610BD30B50446002058
:1002E000034600E05B1C934203D2E05CCD5C401B04
:1002F000F8D030BD30B50B46014600202022012445
:1003000009E021FA02F59D4205D303FA02F5491BE3
:1003100004FA02F52844151EA2F10102F1DC30BDF9
:10032000202A04DB203A00FA02F1002070479140B5
:10033000C2F1200320FA03F3194390407047202AAA
:1003400004DB203A21FA02F00021704721FA02F37F
:10035000D040C2F1200291400843194670472DE970
:10036000FE4F804681EA0300C00F0C46009021F04A
:10037000004123F00045B8EB0200A94105D24046F8
:10038000214690461C460B46024623F0004010438F
:1003900047D0270DC7F30A00C3F30A510290401A51
:1003A000019040286BDAC3F3130040F4801B0098DF
:1003B000924620B10023D2EB030A63EB0B0B0198AA
:1003C0005946C0F140025046FFF7AAFF06460D46C7
:1003D00050465946019A00F08DF910EB0800614132
:1003E000002487EA115284EAE7731A4340D0009A46
:1003F00062B3019A012A4FEA075215DC001B61EB38
:1004000002014FF0004202EA0752CDE90042001C0F
:1004100041F5801132462B4600F08DF903B0BDE85E
:10042000F08F40462146F9E7001B61EB0201001CFA
:1004300041F5801300185B412018A2F5001747EB27
:10044000030140EAD570B6196D4111E06D084FEA1D
:10045000360645EAC0754FEA0752001B61EB020100
:10046000001C41F5801149084FEA30000019514144
:1004700032462B4603B0BDE8F04F00F04DB900986E
:10048000012240000023D0EB020263EBE0730098EE
:1004900021464FEAE074B8EB000061EB0401E9E7A4
:1004A00083F000435BE781F0004158E72DE9FE4F00
:1004B00081EA030404F0004421F0004100944FF06D
:1004C000000B23F0004350EA01045ED052EA03041B
:1004D0005BD0C3F30A54C1F30A552C44A4F2F3349D
:1004E0000194A0FB0254C1F3130141F48011C3F342
:1004F000130343F4801301FB024400FB034E840A00
:10050000970A44EA815447EA8357A4FB0768029597
:100510008D0A05FB07854FEA932C04FB0C54270535
:10052000029D4FEA065847EA1637B5EB08056EEB11
:10053000070C870E920E47EA811742EA8312A7FB47
:100540000201B6EB0B0164EB00042B0D43EA0C3304
:100550005E1844EB1C50DA465146E7FB0201C5F336
:1005600013044FEA0B3343EA14534FEA0432019C5D
:1005700043EA0603A4F10C040294009CCDE900B404
:1005800000F0D9F803B0BDE8F08F00200146F9E78C
:100590002DE9F04D81EA030404F0004B21F0004501
:1005A00014464FF0000A23F0004150EA050220D023
:1005B00054EA01021DD0C5F30A570246C5F31303DE
:1005C000C1F31300C1F30A5640F4801543F48013BD
:1005D000A7EB0608101BD64608F2FD3873EB0500A2
:1005E00002D308F1010801E092185B41B8F1000F55
:1005F00003DA00200146BDE8F08D00204FF48011A1
:10060000064684460EE0171B73EB050705D3121B45
:1006100063EB050306434CEA010C49084FEA30003E
:1006200092185B4150EA0107EDD152EA030012D063
:1006300082EA040083EA0501084305D0101BAB41A0
:1006400006D20122002306E000224FF0004302E020
:100650006FF0010253101AEB06004CEB085110EB3F
:100660000A0041EB0B01BDE8F04D00F055B8C1F3B5
:100670000A52C1F3130140F2FF3341F480119A4250
:1006800002DA00200146704740F233439A42A2F258
:10069000334202DC5242FFF752BEFFF741BE000078
:1006A00030B5041E71F1000404DB4FF000444042F9
:1006B00064EB0101141E73F1000405DB1C464FF0CE
:1006C0000043524263EB0403994208BF904230BD9D
:1006D000064C074D06E0E06840F0010394E807008F
:1006E00098471034AC42F6D3FFF78AFD38C10108B1
:1006F00058C10108202A06DBCB17203A41FA02F044
:1007000043EAE07306E041FA02F3D040C2F120026E
:10071000914008431946704710B5141E73F1000448
:1007200008DA401C41F1000192185B411A4301D1E3
:1007300020F0010010BD2DE9F04D92469B4611B10D
:10074000B1FA81F202E0B0FA80F220329046FFF76F
:10075000E7FD04460F4640EA0A0041EA0B01534612
:100760005A46084313D0114653EA010019D0C8F184
:1007700040025046FFF7E3FD05460E4650465946F7
:100780004246FFF7CDFD084305D0012004E0204696
:100790003946BDE8F08D0020054346EAE0762C435B
:1007A00037430A986305E40AA0EB08000022FD0A1B
:1007B00044EA47540A3002D500200146E9E7010522
:1007C00010196941DDE9084500196941BDE8F04D9E
:1007D000A2E730B58C1810F8012B12F00F0301D1ED
:1007E00010F8013B120906D110F8012B03E010F8B4
:1007F000015B01F8015B5B1EF9D101E001F8013BEF
:10080000521EFBD1A142E6D3002030BD0000000003
:10081000FFE7FEE700000000704700000000000056
:1008200081B0EFF3108072B60090FFE7FEE70000A2
:1008300080B584B003900291019200930098B0F5C6
:10084000804F1DD1FFE70398019950F82100002146
:10085000CCF6F0710840029B1968D3F804E0D3F895
:1008600008C0DA6841EA0E1141EA0C219B6919437C
:1008700041EA024108430399019A41F8220006E047
:100880000399019A6FF0704041F82200FFE70020C1
:1008900004B080BD0000000080B586B005900491D2
:1008A00005990498026851F8220020F0010041F8EF
:1008B000220004988068082803D1FFE740200390B5
:1008C00002E000200390FFE7039804990091D1F81B
:1008D00004E0D1F808C0CB680A6940EA0E0040EA9B
:1008E0000C00184310434A6910438A691043CA69CF
:1008F00010430A6A10434A6A10438A6A1043C96A5D
:10090000084302900498016B0298084302900498EF
:10091000416B0298084302900498816B0298084347
:1009200002904FF67F30C0F208000190019840F429
:1009300080100190019840F400100190019840F45B
:10094000E020019005980499096850F82100019968
:100950008843029908430599049A126841F82200D5
:100960000498006BB0F5801F0ED1FFE70498006873
:1009700050B1FFE70598006820F480100499096BD6
:10098000084305990860FFE70498006838B1FFE75D
:100990000498426B0599086810430860FFE700203F
:1009A00006B080BD0000000084B003900291019267
:1009B00002990868D1F804C08B68CA6840EA0C1034
:1009C00040EA032040EA02400B690022CFF6F072B1
:1009D00002EB035210434A69FE3240EA0260896921
:1009E00008430399019A01EB82014860039800686B
:1009F000C002002818D5FFE70398406820F4700073
:100A00000090029801690020CFF6F07000EB0151D0
:100A10000098084300900398406820F47000009903
:100A2000084303994860FFE7002004B070470000C6
:100A300080B588B0079041F66020C2F202000390B2
:100A400009F032FB039840F20C01C2F20201F622D7
:100A500009F04AFB40F29010C2F20200802104919A
:100A6000FF22FFF728FC049941F6E010C2F20200D1
:100A7000FFF728FC012003F013FA4BF62C41C0F6D7
:100A8000010168464160202303600A2028214FF4B9
:100A9000827206F081FD002003F076F943F2F060E7
:100AA000C2F2020002F0C0FAFFE741F66020C2F293
:100AB0000200029009F058FB029841F23701405CB5
:100AC000002867D0FFE700200690FFE706981F2860
:100AD00057DCFFE700200590FFE705983F284BDC37
:100AE000FFE70699059800EB811141F66020C2F2FC
:100AF0000200084441F23801405CE0B1FFE705988C
:100B000000EB40025000069901EB410C4FEA4C010A
:100B1000062303EB420203EB4C0340F2901CC2F2AB
:100B2000020CEE46CEF800C092B29BB280B289B2FF
:100B300003F056F91BE0059800EB400250000699BF
:100B400001EB410C4FEA4C01062303EB420203EB9D
:100B50004C0341F6E01CC2F2020CEE46CEF800C097
:100B600092B29BB280B289B203F03AF9FFE7FFE795
:100B7000059801300590B0E7FFE706980130069030
:100B8000A4E741F66021C2F2020141F237020020DF
:100B90008854FFE789E7000080B584B0029002988E
:100BA000806D019000F0C8FA0090029890F835002E
:100BB00002280DD0FFE7029980204865FFE70299DF
:100BC000002081F83400FFE701208DF80F0055E088
:100BD00002980168086820F0160008600298016811
:100BE000486920F0800048610298006C20B9FFE756
:100BF0000298806C38B1FFE702980168086820F01D
:100C000008000860FFE702980168086820F001000A
:100C10000860FFE7029800680068C007C8B1FFE7F6
:100C200000F08AFA0099401A062811D3FFE70299CA
:100C3000202048650299032081F83500FFE70299DA
:100C4000002081F83400FFE703208DF80F0015E045
:100C5000E0E70298C16D3F208840019988600299C1
:100C6000012081F83500FFE70299002081F8340067
:100C7000FFE7FFE700208DF80F00FFE79DF80F006A
:100C800004B080BD0000000082B00090009890F891
:100C90003500022807D0FFE7009980204865012031
:100CA0008DF807000EE00099052081F835000098C6
:100CB0000168086820F001000860FFE700208DF857
:100CC0000700FFE79DF8070002B070470000000032
:100CD00080B584B0039000F02FFA02900398019041
:100CE0000198013048B1FFE740F21120C2F2020042
:100CF0000178019808440190FFE7FFE700F01CFA33
:100D00000299401A0199884201D2FFE7F6E704B040
:100D100080BD00000000000090B00F900E910020F8
:100D20000D900C900B900A900D90FFE70D980F28F6
:100D300000F2E681FFE70D99012088400C900E98A3
:100D400000680C9908400B900B980C99884240F071
:100D5000D281FFE70E98406800F00300012807D019
:100D6000FFE70E98406800F0030002282FD1FFE74C
:100D70000F9880680A900D984100032000FA01F155
:100D80000A9888430A900E98C0680D99490000FAA5
:100D900001F10A9808430A900A980F9988600F9801
:100DA00040680A900D99012000FA01F10A988843E1
:100DB0000A900E984068C0F300100D9900FA01F1F6
:100DC0000A9808430A900A980F994860FFE70E981E
:100DD000406800F00300032818D0FFE70F98C068B0
:100DE0000A900D984100032000FA01F10A98884307
:100DF0000A900E9880680D99490000FA01F10A984E
:100E000008430A900A980F99C860FFE70E98406857
:100E100000F00300022826D1FFE70F980D996FF02C
:100E2000030202EA51010844006A0A900D9800F09A
:100E3000070081000F2000FA01F10A9888430A9008
:100E40000E9800690D9901F00701890000FA01F17F
:100E50000A9808430A900A980F990D9B02EA5302D8
:100E600011440862FFE70F9800680A900D9841004E
:100E7000032000FA01F10A9888430A900E9840680E
:100E800000F003000D99490000FA01F10A980843A7
:100E90000A900A980F9908600E98807980070028B8
:100EA00000F02881FFE7FFE743F64400C4F20200A8
:100EB000016841F480410160006800F480400990BD
:100EC0000998FFE70D9820F0030043F60801C4F2EB
:100ED000010140580A900D9800F0030081000F2096
:100EE00000FA01F10A9888430A900F980021C4F291
:100EF0000201884203D1FFE7002008907AE00F98B2
:100F000040F20041C4F20201884203D1FFE7012010
:100F100007906CE00F9840F60001C4F2020188428D
:100F200003D1FFE7022006905EE00F9840F60041F3
:100F3000C4F20201884203D1FFE70320059050E08C
:100F40000F9841F20001C4F20201884203D1FFE789
:100F50000420049042E00F9841F20041C4F20201E3
:100F6000884203D1FFE70520039034E00F9841F653
:100F70000001C4F20201884203D1FFE7062002907B
:100F800026E00F9841F60041C4F20201884203D1E5
:100F9000FFE70720019018E00F9842F20001C4F229
:100FA0000201884203D1FFE7082000900AE00F9970
:100FB00042F20042C4F202020A20914208BF092014
:100FC0000090FFE700980190FFE701980290FFE78B
:100FD00002980390FFE703980490FFE704980590B8
:100FE000FFE705980690FFE706980790FFE7079848
:100FF0000890FFE70898C0B20D9901F0030189003D
:1010000000FA01F10A9808430A900A980D9921F014
:10101000030143F60802C4F20102885043F6084077
:10102000C4F2010000680A900B990A9888430A905C
:101030000E988079C006002805D5FFE70B990A981D
:1010400008430A90FFE70A9843F60841C4F20101F9
:10105000086043F60C40C4F2010000680A900B9946
:101060000A9888430A900E9880798006002805D552
:10107000FFE70B990A9808430A90FFE70A9843F69E
:101080000C41C4F20101086043F60440C4F20100BF
:1010900000680A900B990A9888430A900E98807904
:1010A0008007002805D5FFE70B990A9808430A90A6
:1010B000FFE70A9843F60441C4F20101086043F6D1
:1010C0000040C4F2010000680A900B990A98884316
:1010D0000A900E988079C00728B1FFE70B990A980B
:1010E00008430A90FFE70A9843F60041C4F2010161
:1010F0000860FFE7FFE7FFE70D9801300D9015E668
:1011000010B070470000000082B00190ADF80210EE
:101110008DF801209DF8010028B1FFE7BDF802001D
:101120000199886105E0BDF8020000040199886119
:10113000FFE702B07047000047F67410C2F20200E9
:10114000006870470000000080B58CB00A900A98D3
:1011500020B9FFE701208DF82F0075E00A9800689C
:1011600009900A9890F8D50340B9FFE70A99002042
:1011700081F8D4030A9800F06BF8FFE70A9903207E
:1011800081F8D5030998B0F1A04F04D1FFE70A997F
:1011900000208871FFE70A98006807F0D5FD0A9BD8
:1011A0001868197C8DF8201059689A68DB680793D5
:1011B000069205910599069A079BDDF820C0EE4638
:1011C000CEF800C007F01CFD40B1FFE70A990220ED
:1011D00081F8D50301208DF82F0035E00A980068CA
:1011E000012107F0FDFE40B1FFE70A99022081F8D6
:1011F000D50301208DF82F0026E00A9B1868197C82
:101200008DF8101059689A68DB6803930292019177
:101210000199029A039BDDF810C0EE46CEF800C09B
:1012200007F022FE40B1FFE70A99022081F8D503BA
:1012300001208DF82F0007E00A99012081F8D503DD
:1012400000208DF82F00FFE79DF82F000CB080BD27
:1012500080B5B0B02F9000202E902D902C902B9028
:101260002A9006A89021FFF72DF82F980068B0F17A
:10127000A04F59D1FFE74FF40010069000202590B1
:1012800006A800F011FA18B1FFE7FFF7C9FAFFE767
:10129000FFE743F63000C4F20200016841F00101AB
:1012A0000160006800F0010005900598FFE74FF429
:1012B00000702A90002000902B902C900020C4F207
:1012C000020001902AA90291FFF726FD009A0198D9
:1012D00002994FF4C0532A9302232B932C9203229A
:1012E0002D920A222E92FFF717FDFFE743F63400F6
:1012F000C4F20200016841F080010160006800F062
:10130000800004900498FFE743F64400C4F2020012
:10131000016841F480410160006800F4804003905E
:101320000398FFE7FFE7FFE730B080BD0000000053
:1013300040F21120C2F20200027847F67411C2F2A4
:1013400002010868104408607047000000000000B7
:1013500080B5032000F03CF90F2000F005F800F004
:10136000E7F8002080BD000080B58CB00B90002015
:1013700004900390FFE743F64000C4F202000168C6
:1013800041F010010160006800F01000009000982A
:10139000FFE706A802A900F043FF0998049004980B
:1013A00020B9FFE700F070FF059004E000F06CFF4B
:1013B00040000590FFE705984DF68361C4F21B31AC
:1013C000A0FB01014FF0FF3000EB9140039043F28E
:1013D000A460C2F2020041F20001C4F20001016007
:1013E00040F2E731C16003994160002101618160F1
:1013F000816101F09DFD8DF807009DF8070028BB75
:10140000FFE743F2A460C2F2020001F00DFE8DF886
:1014100007009DF80700C0B9FFE7362000F0B0F8DC
:101420000B980F280CD8FFE70B993620002200F00C
:10143000B3F80B9840F21421C2F20201086003E0F5
:1014400001208DF80700FFE7FFE7FFE79DF80700A1
:101450000CB080BD0000000010B581B00090009875
:1014600040784EF69851CEF2000108604EF6A05139
:10147000CEF20001086820F0010008600098406882
:101480004EF69C52CEF200021060DDF800E09EF8AD
:101490000C0000079EF80B2040EA02609EF8002036
:1014A0009EF808309EF809C09EF80A4040EAC44001
:1014B0009EF80D4040EA84409EF80E4040EA4440C9
:1014C0009EF80FE040EA0E4040EA0C2040EA43005C
:1014D0001043086001B010BDBFF35F8F4EF624517A
:1014E000CEF20001086820F4803008604EF6945176
:1014F000CEF20001002008607047000000000000EC
:1015000081B00090009840F001004EF69451CEF268
:10151000000108604EF62451CEF20001086840F444
:1015200080300860BFF34F8FBFF36F8F01B07047FB
:1015300080B582B0FFE743F64000C4F202000168C4
:1015400041F080510160006800F0805001900198E6
:10155000FFE7FFE743F64400C4F20200016841F4EC
:1015600080410160006800F4804000900098FFE72F
:101570006FF001000F21002200F00EF802B080BDD4
:1015800080B582B08DF807009DF9070007F0B8FD1F
:1015900002B080BD0000000080B586B08DF8170055
:1015A000049103920020029007F0DAFD02909DF969
:1015B0001700019002980499039A06F0CDF90146AC
:1015C000019807F0D5FD06B080BD000000000000C6
:1015D00080B582B00190019807F0EEFD02B080BDA9
:1015E00080B584B000200290FFE743F64000C4F2CB
:1015F0000200016841F080510160006800F08050F5
:1016000001900198FFE747F20001C4F20001086869
:1016100040F480300860FFF78FFD0290FFE747F24B
:101620000400C4F20000006800F48030B0F5803F90
:101630000DD0FFE7FFF780FD0299401AB0F57A7FE1
:1016400004D9FFE703208DF80F0028E0E7E747F211
:101650000001C4F20001086840F400300860FFF7A0
:101660006BFD0290FFE747F20400C4F2000000683F
:1016700000F40030B0F5003F0DD0FFE7FFF75CFD50
:101680000299401AB0F57A7F04D9FFE703208DF85C
:101690000F0004E0E7E700208DF80F00FFE79DF85A
:1016A0000F0004B080BD000080B588B00690002017
:1016B0000590049003900290019006980078C0076E
:1016C000B8B1FFE7FFE743F60801C4F2020108687A
:1016D00020F4000008600698426B08681043086018
:1016E000FFE70698406B18B9FFE701200290FFE77B
:1016F000FFE706988078000700281CD5FFE743F62F
:101700008C01C4F20201086820F44010069AD26BE2
:10171000104308600698C06BB0F5801F03D1FFE747
:1017200001200290FFE70698C06B18B9FFE701207F
:101730000190FFE7FFE706988078C00600281CD5D7
:10174000FFE743F68C01C4F20201086820F4400070
:10175000069A126C104308600698006CB0F5800F72
:1017600003D1FFE701200290FFE70698006C18B94B
:10177000FFE701200190FFE7FFE70698C078C00768
:1017800018B1FFE701200290FFE706980078800675
:10179000002840F1AB80FFE7FFE743F64000C4F2CA
:1017A0000200016841F080510160006800F0805043
:1017B00000900098FFE747F20001C4F200010868BA
:1017C00040F480700860FFF7B7FC0590FFE747F230
:1017D0000000C4F200000068C00500280CD4FFE738
:1017E000FFF7AAFC0599401A652804D3FFE70320F8
:1017F0008DF81F00C6E3EAE743F67000C4F202006A
:10180000006800F440700490049800283ED0FFE780
:1018100004980699096B01F44071884236D0FFE7BD
:1018200043F67000C4F20200016821F44071049193
:10183000016841F480310160016821F48031016068
:10184000049901600068C007F8B1FFE7FFF774FC76
:101850000590FFE743F67000C4F20200006800F054
:1018600002010020B0EB510F0ED1FFE7FFF764FC3F
:101870000599401A41F28931884204D3FFE70320D9
:101880008DF81F007EE3E5E7FFE7FFE7FFE7069837
:10189000006B00F44070B0F5407F11D1FFE743F6D4
:1018A0000801C4F20201086820F4F810069A126BCD
:1018B0004FF6FF43C0F6FF731A401043086008E07C
:1018C00043F60801C4F20201086820F4F810086029
:1018D000FFE70698026B6FF31F3243F67001C4F204
:1018E0000201086810430860FFE7FFE706980078E8
:1018F000C006002810D5FFE7FFE743F68C01C4F2CD
:101900000201086820F0807008600698826B086801
:1019100010430860FFE7FFE706984078400600287C
:101920000CD5FFE743F69001C4F20201086820F4E9
:101930004030069A526E10430860FFE706984078E0
:10194000000600280CD5FFE743F69001C4F202011F
:10195000086820F44020069A926E10430860FFE762
:1019600006988078C00760B1FFE743F69001C4F2A3
:101970000201086820F44010069AD26E10430860F5
:10198000FFE706988078800700280CD5FFE743F62C
:101990009001C4F20201086820F44000069A126F18
:1019A00010430860FFE706980078400600280CD531
:1019B000FFE743F69001C4F20201086820F003003B
:1019C000069A526C10430860FFE7069800780006FC
:1019D00000280CD5FFE743F69001C4F20201086825
:1019E00020F00C00069A926C10430860FFE70698FE
:1019F0004078C00760B1FFE743F69001C4F20201EE
:101A0000086820F03000069AD26C10430860FFE7A7
:101A100006984078800700280CD5FFE743F6900130
:101A2000C4F20201086820F0C000069A126D10434B
:101A30000860FFE706984078400700280CD5FFE7CC
:101A400043F69001C4F20201086820F44070069A3F
:101A5000526D10430860FFE70698407800070028A1
:101A60000CD5FFE743F69001C4F20201086820F4A8
:101A70004060069A926D10430860FFE70698407830
:101A8000C00600280CD5FFE743F69001C4F202011E
:101A9000086820F44050069AD26D10430860FFE7B2
:101AA00006984078800600280CD5FFE743F69001A1
:101AB000C4F20201086820F44040069A126E1043F6
:101AC0000860FFE706988078400600280CD5FFE7FD
:101AD00043F69001C4F20201086820F08060069A83
:101AE000926F10430860FFE7069880788006002810
:101AF00015D5FFE743F69001C4F20201086820F013
:101B00000060069AD26F104308600698C06FB0F16B
:101B1000006F03D1FFE701200190FFE7FFE7069880
:101B200000780007002803D5FFE701200190FFE7B8
:101B300006988078400700280CD5FFE743F690010F
:101B4000C4F20201086820F04070069A526F1043F8
:101B50000860FFE706988078000600280DD5FFE7AB
:101B600043F69001C4F20201086820F08050069A02
:101B7000D2F8802010430860FFE70698C07840073D
:101B800000280DD5FFE743F69001C4F20201086872
:101B900020F00050069AD2F8842010430860FFE736
:101BA0000698C078000700280DD5FFE743F68C01A2
:101BB000C4F20201086820F00070069AD2F888206A
:101BC00010430860FFE70698C078C00600280DD5CE
:101BD000FFE743F68C01C4F20201086820F0806040
:101BE000069AD2F88C2010430860FFE7029801287B
:101BF00007D0FFE70698C0788007002840F1E28010
:101C0000FFE743F60001C4F20201086820F080609B
:101C10000860FFF791FA0590FFE743F60000C4F271
:101C20000200006800F000610020B0EBD16F0CD022
:101C3000FFE7FFF781FA0599401A652804D3FFE70B
:101C400003208DF81F009DE1E7E706980078C007A4
:101C5000F0B1FFE70698406BD0B9FFE743F6840187
:101C6000C4F202010868C0F3014004900868C0F3A0
:101C700003600390069A506892688001049B40EAD2
:101C80000340039B40EA036040EA02700860FFE7FC
:101C9000069880780007002806D5FFE70698C06BF5
:101CA000B0F5801F0CD0FFE706988078C0060028AA
:101CB0002CD5FFE70698006CB0F5800F26D1FFE722
:101CC00043F68401C4F202010868C0F301400490A5
:101CD0000868C0F302700390069A5068D2688001C9
:101CE000049B40EA034040EA0260039A40EA027023
:101CF000086043F68C01C4F20201086820F01F005E
:101D0000069A526A013A10430860FFE70698C078C5
:101D1000C007D0B1FFE743F68401C4F202010868AE
:101D2000C0F3036004900868C0F302700390069A41
:101D300050681269800140EA0240049A40EA026059
:101D4000039A40EA02700860FFE70698C0788007AF
:101D5000002812D5FFE7069B58689968DA681B6966
:101D6000800140EA034040EA026040EA017043F625
:101D70008401C4F202010860FFE743F60001C4F2E7
:101D80000201086840F080600860FFF7D5F905900F
:101D9000FFE743F60000C4F20200006800F00061B3
:101DA0000020B0EBD16F0CD1FFE7FFF7C5F9059923
:101DB000401A652804D3FFE703208DF81F00E1E0F7
:101DC000E7E7FFE70198012840F0D880FFE743F6F6
:101DD0000001C4F20201086820F080500860FFF79B
:101DE000ABF90590FFE743F60000C4F2020000687B
:101DF00000F000510020B0EB517F0CD0FFE7FFF75F
:101E00009BF90599401A652804D3FFE703208DF854
:101E10001F00B7E0E7E7069880780007002804D5A0
:101E2000FFE70698C06B50B1FFE706988078C006C0
:101E300000282DD5FFE70698006C48BBFFE743F666
:101E40008801C4F202010868C0F3014004900868E8
:101E5000C0F302700390069A506992698001049B56
:101E600040EA034040EA0260039A40EA02700860D8
:101E700043F68C01C4F20201086820F4F850069A77
:101E8000936A6FF0FF0202EB032210430860FFE742
:101E9000069880788006002820D5FFE70698C06F56
:101EA000B0F1006F1AD1FFE743F68801C4F20201D6
:101EB0000868C0F3036004900868C0F302700390E0
:101EC000069A5069126A800140EA0240049A40EA88
:101ED0000260039A40EA02700860FFE70698007803
:101EE0000007002825D5FFE743F68801C4F2020168
:101EF0000868C0F3036004900868C0F301400390D1
:101F0000069A5069D2698001039B40EA0340049B12
:101F100040EA036040EA0270086043F68C01C4F2B4
:101F20000201086820F44030069AD26A1043086023
:101F3000FFE743F60001C4F20201086840F0805058
:101F40000860FFF7F9F80590FFE743F60000C4F2D8
:101F50000200006800F000510020B0EB517F0CD16E
:101F6000FFE7FFF7E9F80599401A652804D3FFE772
:101F700003208DF81F0005E0E7E7FFE700208DF85C
:101F80001F00FFE79DF81F0008B080BD00000000A3
:101F9000704700000000000080B584B002900191FD
:101FA00000200090029820B9FFE701208DF80F0073
:101FB00024E1019843F60041C4F20201096801F0EE
:101FC0000F01884216D9FFE743F60040C4F2020031
:101FD000016821F00F01019A11430160006800F0CF
:101FE0000F000199884204D0FFE701208DF80F000F
:101FF00004E1FFE702980078800700282AD5FFE770
:10200000029800784007002809D5FFE743F6080149
:10201000C4F20201086840F4E0500860FFE702984B
:1020200000780007002809D5FFE743F60801C4F24D
:102030000201086840F460400860FFE743F60801C9
:10204000C4F20201086820F0F000029A926810437E
:102050000860FFE702980078C007002869D0FFE712
:1020600002984068012811D1FFE743F60000C4F24E
:102070000200006800F400310020B0EB514F04D1A1
:10208000FFE701208DF80F00B8E027E002984068D4
:10209000022811D1FFE743F60000C4F202000068F5
:1020A00000F000710020B0EB516F04D1FFE7012078
:1020B0008DF80F00A2E010E043F60000C4F2020029
:1020C000006800F002010020B0EB510F04D1FFE7DF
:1020D00001208DF80F0091E0FFE7FFE743F60801CC
:1020E000C4F20201086820F00300029A526810430B
:1020F0000860FFF721F80090FFE743F60800C4F2FC
:102100000200006800F00C0002994968B0EB810FF2
:102110000ED0FFE7FFF710F80099401A41F289311D
:10212000884204D3FFE703208DF80F0066E0E4E760
:10213000FFE7019843F60041C4F20201096801F08B
:102140000F01884216D2FFE743F60040C4F20200B6
:10215000016821F00F01019A11430160006800F04D
:102160000F000199884204D0FFE701208DF80F008D
:1021700044E0FFE702980078400700280CD5FFE70D
:1021800043F60801C4F20201086820F4E050029A04
:10219000D26810430860FFE7029800780007002823
:1021A0000DD5FFE743F60801C4F20201086820F4E8
:1021B0006040029A126940EAC2000860FFE700F03E
:1021C0008BF843F60801C4F202010968C9B20A0992
:1021D00047F2FC31C0F60101895CC84040F20411AD
:1021E000C2F20201086040F21420C2F2020000684C
:1021F000FFF7BAF800208DF80F00FFE79DF80F00F9
:1022000004B080BD0000000043F60001C4F20201EA
:10221000086840F4002008607047000000000000DB
:1022200082B00190009101990F20086043F60800E8
:10223000C4F20200016801F00301019A51600168D3
:1022400001F0F001019A9160016801F4E051019AF6
:10225000D160006800F46040C0080199086143F64D
:102260000040C4F20200006800F00F00009908600E
:1022700002B070470000000040F20410C2F20200F9
:10228000006870470000000080B5FFF7F5FF43F6D7
:102290000801C4F202010968C1F3822247F20C412D
:1022A000C0F60101895CC84080BD0000000000004C
:1022B00080B5FFF7E1FF43F60801C4F202010968A7
:1022C00089B24A0B47F20C41C0F60101895CC84053
:1022D00080BD00000000000080B586B000200590A1
:1022E00004900390029043F60800C4F202000068D4
:1022F00000F00C000146019140B1FFE7019804286D
:102300000AD0FFE7019808280CD04FE042F20040C5
:10231000C0F2F40002904FE047F64000C0F27D109A
:10232000029049E043F60400C4F20200016801F0A3
:102330003F01059100684002002813D5FFE743F6EE
:102340000400C4F202000068C0F3881047F64001A0
:10235000C0F27D11A0FB0101059A0023FDF768FF83
:10236000049012E043F60400C4F202000068C0F3D7
:10237000881042F20041C0F2F401A0FB0101059A6D
:102380000023FDF755FF0490FFE743F60400C4F275
:102390000200006800F44031022000EBD1300390CD
:1023A00004980399B0FBF1F0029005E042F200407E
:1023B000C0F2F4000290FFE7029806B080BD000072
:1023C00080B543F60C00C4F2020000680006002845
:1023D00009D5FFE7FFF7DCFD43F60E01C4F2020169
:1023E00080200870FFE780BD80B586B00490002093
:1023F0008DF80700049820B9FFE701208DF8170039
:1024000084E304980078C007002800F0B780FFE755
:1024100043F60800C4F20200006800F00C00042833
:1024200013D0FFE743F60800C4F20200006800F092
:102430000C0008281ED1FFE743F60400C4F2020096
:1024400000684002002815D5FFE743F60000C4F2FB
:102450000200006800F400310020B0EB514F08D0BA
:10246000FFE70498406820B9FFE701208DF81700C6
:102470004CE382E0FFE704984068B0F5803F09D163
:10248000FFE743F60001C4F20201086840F480301F
:10249000086032E00498406868B9FFE743F600013D
:1024A000C4F20201086820F480300860086820F453
:1024B0008020086020E004984068B0F5A02F0DD17E
:1024C000FFE743F60001C4F20201086840F48020EF
:1024D0000860086840F4803008600CE043F60001B2
:1024E000C4F20201086820F480300860086820F413
:1024F00080200860FFE7FFE7FFE7FFE704984068F8
:10250000E8B1FFE7FEF718FE0390FFE743F600008F
:10251000C4F20200006800F400310020B0EB514F1B
:102520000CD1FFE7FEF708FE0399401A652804D393
:10253000FFE703208DF81700E8E2E7E71CE0FEF76D
:10254000FBFD0390FFE743F60000C4F202000068C1
:1025500000F400310020B0EB514F0CD0FFE7FEF744
:10256000EBFD0399401A652804D3FFE703208DF89B
:102570001700CBE2E7E7FFE7FFE7FFE70498007803
:102580008007002840F19C80FFE743F60800C4F272
:102590000200006810F00C0F13D0FFE743F60800AC
:1025A000C4F20200006800F00C0008282CD1FFE7FC
:1025B00043F60400C4F2020000684002002823D45D
:1025C000FFE743F60000C4F20200006800F00201D9
:1025D0000020B0EB510F09D0FFE70498C068012834
:1025E00004D0FFE701208DF817008FE243F60001C9
:1025F000C4F20201086820F0F800049A126940EA67
:10260000C2000860FFE75AE00498C06888B3FFE79B
:1026100043F60001C4F20201086840F001000860BE
:10262000FEF78AFD0390FFE743F60000C4F20200C4
:10263000006800F002010020B0EB510F0CD1FFE761
:10264000FEF77AFD0399401A032804D3FFE703201D
:102650008DF817005AE2E7E743F60001C4F20201E1
:10266000086820F0F800049A126940EAC200086085
:1026700024E043F60001C4F20201086820F00100E2
:102680000860FEF759FD0390FFE743F60000C4F22F
:102690000200006800F002010020B0EB510F0CD0E6
:1026A000FFE7FEF749FD0399401A032804D3FFE72B
:1026B00003208DF8170029E2E7E7FFE7FFE7FFE7D0
:1026C00004980078000700284FD5FFE70498406978
:1026D00028B3FFE743F67401C4F20201086840F032
:1026E00001000860FEF728FD0390FFE743F6740041
:1026F000C4F20200006800F002010020B0EB510FAC
:102700000CD1FFE7FEF718FD0399401A032804D304
:10271000FFE703208DF81700F8E1E7E724E043F630
:102720007401C4F20201086820F001000860FEF79D
:1027300003FD0390FFE743F67400C4F20200006853
:1027400000F002010020B0EB510F0CD0FFE7FEF7C4
:10275000F3FC0399401A032804D3FFE703208DF804
:102760001700D3E1E7E7FFE7FFE7049800784007A9
:10277000002840F1DB80FFE743F64000C4F202008E
:102780000068C000002813D4FFE7FFE743F64000CD
:10279000C4F20200016841F080510160006800F05D
:1027A000805000900098FFE701208DF80700FFE7B8
:1027B00047F20000C4F200000068C005002822D4DF
:1027C000FFE747F20001C4F20001086840F480709E
:1027D0000860FEF7B1FC0390FFE747F20000C4F287
:1027E00000000068C00500280CD4FFE7FEF7A4FC39
:1027F0000399401A652804D3FFE703208DF81700DA
:1028000084E1EAE7FFE7FFE704988068012809D13F
:10281000FFE743F67001C4F20201086840F00100CE
:10282000086031E00498806868B9FFE743F67001FA
:10283000C4F20201086820F001000860086820F076
:10284000040008601FE00498806805280DD1FFE7A8
:1028500043F67001C4F20201086840F00400086009
:10286000086840F0010008600CE043F67001C4F213
:102870000201086820F001000860086820F00400E8
:102880000860FFE7FFE7FFE7FFE704988068F8B11B
:10289000FFE7FEF751FC0390FFE743F67000C4F238
:1028A0000200006800F002010020B0EB510F0ED1D1
:1028B000FFE7FEF741FC0399401A41F28931884253
:1028C00004D3FFE703208DF817001FE1E5E71EE0C2
:1028D000FEF732FC0390FFE743F67000C4F20200FB
:1028E000006800F002010020B0EB510F0ED0FFE7AE
:1028F000FEF722FC0399401A41F28931884204D341
:10290000FFE703208DF8170000E1E5E7FFE79DF8FA
:102910000700012809D1FFE743F64001C4F2020194
:10292000086820F080500860FFE7FFE7049880699E
:10293000002800F0E780FFE743F60800C4F2020039
:10294000006800F00C00082800F09180FFE7049870
:102950008069022865D1FFE743F60001C4F2020155
:10296000086820F080700860FEF7E6FB0390FFE740
:1029700043F60000C4F20200006800F0007100207D
:10298000B0EB516F0CD0FFE7FEF7D6FB0399401A6E
:10299000032804D3FFE703208DF81700B6E0E7E72C
:1029A0000499C869D1F820C04B6A8A6A40EA0C00D1
:1029B00040EA8310D2034FF6FF739A43A2F58032A8
:1029C0001043CA6A40EA0260096B40EA017043F6AC
:1029D0000401C4F20201086043F60001C4F20201DE
:1029E000086840F080700860FEF7A6FB0390FFE7E0
:1029F00043F60000C4F20200006800F000710020FD
:102A0000B0EB516F0CD1FFE7FEF796FB0399401A2C
:102A1000032804D3FFE703208DF8170076E0E7E7EB
:102A200024E043F60001C4F20201086820F080703F
:102A30000860FEF781FB0390FFE743F60000C4F255
:102A40000200006800F000710020B0EB516F0CD064
:102A5000FFE7FEF771FB0399401A032804D3FFE751
:102A600003208DF8170051E0E7E7FFE749E043F660
:102A70000400C4F2020000680290049880690128F2
:102A80003AD0FFE7029800F480000499C9698842AF
:102A900032D1FFE7029800F03F000499096A8842AA
:102AA0002AD1FFE7029847F6C07108400499496AA5
:102AB000B0EB811F20D1FFE7029800F44030049969
:102AC000896AC9034FF6FF729143A1F580318842AC
:102AD00012D1FFE7029800F070600499C96AB0EB68
:102AE000016F09D1FFE7029800F0E0400499096BFB
:102AF000B0EB017F04D0FFE701208DF8170005E05F
:102B0000FFE7FFE700208DF81700FFE79DF81700AB
:102B100006B080BD0000000080B586B0049003912F
:102B200000208DF80700FFE704980079012804D100
:102B3000FFE702208DF8170052E004990120087188
:102B4000FFE7FFE704984079012838D1FFE70499AF
:102B500002204871FEF7F0FA0290FFE7049800683F
:102B60004068C007F0B9FFE7FEF7E6FA0299401A9D
:102B7000032816D3FFE7049800684068C00778B9B7
:102B8000FFE7049901204871049902208860FFE75B
:102B9000049900200871FFE701208DF817001FE05D
:102BA000FFE7DBE70498006880680499C860049830
:102BB000C0680399086004990120487106E00499EF
:102BC0000420886001208DF80700FFE7FFE70499E3
:102BD00000200871FFE79DF807008DF81700FFE758
:102BE0009DF8170006B080BD80B582B000900098B7
:102BF00020B9FFE701208DF807001CE0009840791C
:102C000038B9FFE7009900200871009800F018F823
:102C1000FFE700990220487100980168086840F0B9
:102C20000400086000990120487100990020886024
:102C30008DF80700FFE79DF8070002B080BD000097
:102C400080B5A6B0259001A89021FDF73BFB259803
:102C5000006840F60001C5F2060188421DD1FFE779
:102C60004FF4001001900020209001A8FEF71CFDF9
:102C700018B1FFE7FDF7D4FDFFE7FFE743F63400A7
:102C8000C4F20200016841F040010160006800F0F8
:102C9000400000900098FFE7FFE726B080BD0000ED
:102CA00080B584B0029001910092029820B9FFE7AC
:102CB00001208DF80F002FE0029890F8450040B9F0
:102CC000FFE70299002081F84400029800F028F8FC
:102CD000FFE7029951F8080BFDF7DEFD029A019912
:102CE00010689268FDF760FE029B009958689A6828
:102CF000DB6AFDF79DFD02980168826851F82200A9
:102D000040F0010041F822000299012081F84500BD
:102D100000208DF80F00FFE79DF80F0004B080BD84
:102D200080B58AB00990FFE743F63800C4F202008C
:102D3000016841F001010160006800F001000390AA
:102D40000398FFE7FFE743F63000C4F20200016892
:102D500041F008010160006800F00800029002984C
:102D6000FFE7FFE743F63000C4F20200016841F0DC
:102D700010010160006800F0100001900198FFE769
:102D80004EF2B370049002200590012006900320BB
:102D900007900C20089040F60040C4F2020004A9FD
:102DA0000091FDF7B9FF00994FF68070049041F251
:102DB0000000C4F20200FDF7AFFF0AB080BD0000C2
:102DC00081B0009001B0704781B0009001B07047B1
:102DD00081B0009001B0704785B003900291FFE789
:102DE000039890F83C00012804D1FFE702208DF8F9
:102DF000130099E00399012081F83C00FFE7FFE709
:102E00000399022081F83D00039800684068019012
:102E10000398006880680090039800680021C4F25D
:102E20000101884209D0FFE70398006840F20041A1
:102E3000C4F2010188420AD1FFE7019820F4700032
:102E4000019002984168019808430190FFE70198BA
:102E500020F07000019002980168019808430190E9
:102E60000198039909684860039800680021C4F23A
:102E7000010188423CD0FFE703980068B0F1804F21
:102E800036D0FFE70398006840F20041C4F2000129
:102E900088422DD0FFE70398006840F60001C4F295
:102EA0000001884224D0FFE70398006840F6004103
:102EB000C4F2000188421BD0FFE70398006840F28B
:102EC0000041C4F20101884212D0FFE70398006874
:102ED00044F20001C4F20101884209D0FFE70398DF
:102EE000006841F60001C4F2000188420ED1FFE7FC
:102EF000009820F0800000900298816800980843B4
:102F000000900098039909688860FFE70399012001
:102F100081F83D00FFE70399002081F83C00FFE7BE
:102F200000208DF81300FFE79DF8130005B07047EF
:102F300080B582B00090009820B9FFE701208DF89D
:102F4000070045E0009890F83D0040B9FFE7009980
:102F5000002081F83C00009800F03EF8FFE700995F
:102F6000022081F83D00009951F8040B04F034FE72
:102F70000099012081F84800FFE70099012081F8BD
:102F80003E00009981F83F00009981F840000099C7
:102F900081F84100009981F84200009981F84300CE
:102FA000FFE7FFE70099012081F84400009981F8CC
:102FB0004500009981F84600009981F84700FFE735
:102FC0000099012081F83D0000208DF80700FFE7FF
:102FD0009DF8070002B080BD80B584B003900398CF
:102FE000006841F20041C4F20001884219D1FFE7B4
:102FF000FFE743F64000C4F20200016841F02001FF
:103000000160006800F0200002900298FFE737207E
:10301000019006210022FEF7BFFA0198FEF7B0FAF0
:10302000FFE704B080BD000083B00190019890F8E4
:103030003D00012804D0FFE701208DF80B0071E06E
:103040000199022081F83D0001980168C86840F0AC
:103050000100C860019800680021C4F201018842A3
:103060003CD0FFE701980068B0F1804F36D0FFE711
:103070000198006840F20041C4F2000188422DD05E
:10308000FFE70198006840F60001C4F200018842A1
:1030900024D0FFE70198006840F60041C4F2000127
:1030A00088421BD0FFE70198006840F20041C4F25B
:1030B0000101884212D0FFE70198006844F2000144
:1030C000C4F20101884209D0FFE70198006841F687
:1030D0000001C4F20001884219D1FFE7019800689D
:1030E00080680721C0F2010108400090009806287E
:1030F0000CD0FFE70098B0F5803F07D0FFE70198BC
:103100000168086840F001000860FFE706E00198E8
:103110000168086840F001000860FFE700208DF8B2
:103120000B00FFE79DF80B0003B0704700000000A4
:1031300081B0009001B0704780B584B003900398CF
:103140000068C068029003980068006901909DF8CB
:1031500004008007002824D5FFE79DF808008007B9
:1031600000281DD5FFE7039801686FF00200086191
:10317000039901200877039800688069800720B1CF
:10318000FFE70398FFF7D4FF06E0039800F0FCF890
:10319000039800F0FDF8FFE7039900200877FFE7A8
:1031A000FFE79DF804004007002825D5FFE79DF8BC
:1031B0000800400700281ED5FFE7039801686FF05C
:1031C0000400086103990220087703980068806969
:1031D00010F4407F04D0FFE70398FFF7A9FF06E053
:1031E000039800F0D1F8039800F0D2F8FFE70399B4
:1031F00000200877FFE7FFE79DF80400000700289C
:1032000024D5FFE79DF80800000700281DD5FFE73B
:10321000039801686FF0080008610399042008779B
:1032200003980068C069800720B1FFE70398FFF7A3
:103230007FFF06E0039800F0A7F8039800F0A8F8D5
:10324000FFE7039900200877FFE7FFE79DF80400F8
:10325000C006002825D5FFE79DF80800C006002815
:103260001ED5FFE7039801686FF01000086103990D
:103270000820087703980068C06910F4407F04D0E4
:10328000FFE70398FFF754FF06E0039800F07CF88F
:10329000039800F07DF8FFE7039900200877FFE727
:1032A000FFE79DF80400C00778B1FFE79DF808002C
:1032B000C00748B1FFE7039801686FF0010008619B
:1032C000039800F069F8FFE7FFE7019800F080003D
:1032D000802806D0FFE79DF805008006002810D55D
:1032E000FFE79DF808000006002809D5FFE70398CE
:1032F00001686FF4025008610398FFF765FDFFE76E
:10330000FFE79DF80500C00780B1FFE79DF80800C2
:103310000006002809D5FFE7039801686FF4807064
:1033200008610398FFF74CFDFFE7FFE79DF80400F5
:103330004006002810D5FFE79DF808004006002849
:1033400009D5FFE7039801686FF040000861039812
:1033500000F046F8FFE7FFE79DF80400800600282C
:1033600010D5FFE79DF808008006002809D5FFE783
:10337000039801686FF0200008610398FFF728FDAB
:10338000FFE7FFE704B080BD81B0009001B0704757
:1033900081B0009001B0704780B582B00190019873
:1033A000006841F20001C4F20001884203D1FFE746
:1033B000FDF7BEFFFFE70198006841F20041C4F24B
:1033C0000001884207D1FFE741F66020C2F2020007
:1033D00007F06EFAFFE702B080BD000000000000B9
:1033E00081B0009001B0704782B00190ADF802103A
:1033F00002B070470000000081B0009001B070473B
:1034000081B0009001B0704780B590B00F900F98D8
:103410000068C0690E900F98006800680D900F98C2
:10342000006880680C900E9840F60F0108400B90E1
:103430000B98B0B9FFE79DF83800800600280FD53B
:10344000FFE79DF834008006002809D5FFE70F98B4
:10345000806E20B1FFE70F98816E8847FFE75AE240
:10346000FFE70B98002800F0FE80FFE79DF8300092
:10347000C00748B9FFE70D9840F22011C0F20041A3
:10348000084200F0F080FFE79DF83800C00788B1DF
:10349000FFE79DF83500C00760B1FFE70F980168AE
:1034A000012008620F99D1F8840040F00100C1F8B2
:1034B0008400FFE79DF838008007002811D5FFE75A
:1034C0009DF83000C00760B1FFE70F980168022047
:1034D00008620F99D1F8840040F00400C1F884001C
:1034E000FFE79DF838004007002811D5FFE79DF859
:1034F0003000C00760B1FFE70F9801680420086240
:103500000F99D1F8840040F00200C1F88400FFE771
:103510009DF838000007002817D5FFE79DF8340014
:103520008006002805D4FFE79DF83000C00760B191
:10353000FFE70F980168082008620F99D1F884000E
:1035400040F00800C1F88400FFE79DF8390000074B
:10355000002813D5FFE79DF83700400700280DD558
:10356000FFE70F9801684FF4006008620F99D1F8E7
:10357000840040F02000C1F88400FFE70F98D0F8E5
:10358000840000286ED0FFE79DF8380080060028F0
:103590000FD5FFE79DF834008006002809D5FFE726
:1035A0000F98806E20B1FFE70F98816E8847FFE784
:1035B000FFE70F98D0F884000A900F9800688068A1
:1035C00000F04000402806D0FFE79DF8280010F0EA
:1035D000280F3ED0FFE70F9804F042FD0F980068D7
:1035E0008068400600282FD5FFE7FFE7FFE70F9828
:1035F000006850E8020F20F040000990FFE70999A9
:103600000F98026842E802100028F0D1FFE7FFE7B8
:103610000F98406F98B1FFE70F98416F48F2410053
:10362000C0F6000008650F98406FFDF72DFB28B12C
:10363000FFE70F98406F016D8847FFE703E00F98A1
:10364000FFF7DEFEFFE703E00F98FFF7D9FEFFE785
:1036500007E00F98FFF7D4FE0F990020C1F884000F
:10366000FFE7FFE757E10F98006E012840F019814E
:10367000FFE79DF83800C006002840F11281FFE7FF
:103680009DF83400C006002840F10B81FFE70F9839
:103690000168102008620F980068806840060028C2
:1036A00040F1A080FFE70F98406F00684068ADF8D8
:1036B0002200BDF82200002879D0FFE7BDF82200E3
:1036C0000F99B1F85810884271DAFFE7BDF822006F
:1036D0000F99A1F85A000F98406FC069B0F5807F2C
:1036E00058D0FFE7FFE7FFE70F98006850E8000FAA
:1036F00020F480700790FFE707990F98026842E86E
:1037000000100028F0D1FFE7FFE7FFE7FFE70F9881
:10371000006850E8020F20F001000690FFE70699CC
:103720000F98026842E802100028F0D1FFE7FFE797
:10373000FFE7FFE70F98006850E8020F20F0400015
:103740000590FFE705990F98026842E802100028EB
:10375000F0D1FFE7FFE70F992020C1F880000F9913
:1037600000200866FFE7FFE70F98006850E8000FA9
:1037700020F010000490FFE704990F98026842E8D7
:1037800000100028F0D1FFE7FFE70F98406FFDF72A
:1037900003FAFFE70F99022048660F98B0F8581017
:1037A000B0F85A20891A89B2FFF71EFE19E0BDF859
:1037B00022000F99B1F85810884211D1FFE70F98F5
:1037C000406FC069B0F5807F09D1FFE70F990220F3
:1037D00048660F98B0F85810FFF706FEFFE7FFE7BE
:1037E000FFE798E00F99B1F85800B1F85A10401A65
:1037F000ADF80E000F98B0F85A00002850D0FFE73F
:10380000BDF80E0000284BD0FFE7FFE7FFE70F9859
:10381000006850E8000F20F490700290FFE70299D2
:103820000F98026842E800100028F0D1FFE7FFE798
:10383000FFE7FFE70F98006850E8020F20F0010053
:103840000190FFE701990F98026842E802100028F2
:10385000F0D1FFE7FFE70F992020C1F880000F9912
:10386000002008660F998866FFE7FFE70F98006859
:1038700050E8000F20F010000090FFE700990F982B
:10388000026842E800100028F0D1FFE7FFE70F9937
:10389000022048660F98BDF80E10FFF7A5FDFFE760
:1038A00039E09DF83A00C00600280FD5FFE79DF8E3
:1038B00032004006002809D5FFE70F9801684FF451
:1038C000801008620F98FFF797FD24E09DF83800FC
:1038D000000600280FD5FFE79DF8340000060028F9
:1038E00009D5FFE70F98C06E20B1FFE70F98C16EB2
:1038F0008847FFE70FE09DF83800400600280AD50A
:10390000FFE79DF834004006002804D5FFE70F9834
:1039100004F0F2FBFFE710B080BD000000000000E3
:1039200080B582B00090009820B9FFE701208DF8A3
:10393000070044E00098806908B1FFE700E0FFE776
:103940000098C06F40B9FFE70099002081F8780027
:10395000009800F039F8FFE700992420C867009824
:103960000168086820F0010008600098406A20B1F2
:10397000FFE7009804F01CFAFFE7009804F050FD00
:10398000012804D1FFE701208DF8070017E0009817
:103990000168486820F49040486000980168886891
:1039A00020F02A00886000980168086840F0010053
:1039B0000860009804F0A0FA8DF80700FFE79DF872
:1039C000070002B080BD000080B5AEB02D90002091
:1039D0002C902B902A902990289004A89021FCF7F5
:1039E00071FC2D98006841F20001C4F20101884287
:1039F00047D1FFE7402004900020159004A8FDF770
:103A000053FE18B1FFE7FCF70BFFFFE7FFE743F6B4
:103A10004400C4F20200016841F010010160006836
:103A200000F0100003900398FFE7FFE743F6300033
:103A3000C4F20200016841F002010160006800F078
:103A4000020002900298FFE74FF4404028900220C5
:103A50002990002000902A9003202B9004202C9085
:103A600040F20040C4F2020028A9FDF755F9009A7F
:103A7000252001900721FDF78FFD0198FDF780FDBE
:103A8000FFE72EB080BD000080B586B004900391A2
:103A9000ADF80A200498D0F88000202832D1FFE742
:103AA000039820B1FFE7BDF80A0020B9FFE7012025
:103AB0008DF817002AE00499002008660498006831
:103AC00040680002002814D5FFE7FFE7FFE70498ED
:103AD000006850E8000F40F080600190FFE7019916
:103AE0000498026842E800100028F0D1FFE7FFE7E1
:103AF000FFE704980399BDF80A2004F031FF8DF820
:103B0000170003E002208DF81700FFE79DF817006B
:103B100006B080BD0000000080B582B00190019821
:103B2000006841F20001C4F2010188421BD1FFE7A5
:103B300043F66851C2F20201087840F62C5CC2F2EA
:103B4000020CDCF800305A1CCCF8002040F62C1295
:103B5000C2F20202D05443F23C70C2F202000122CF
:103B6000FFF792FFFFE702B080BD000000000000F9
:103B700080B58AB008900791ADF81A20059308988F
:103B8000C06F202840F08380FFE7079820B1FFE74F
:103B9000BDF81A0020B9FFE701208DF827007AE070
:103BA00008990020C1F8840008992120C867FDF712
:103BB000C3FA0290BDF81A000899A1F85000BDF8A8
:103BC0001A000899A1F8520008988068B0F5805F43
:103BD00009D1FFE70898006928B9FFE700200490A1
:103BE0000798039004E00798049000200390FFE7F3
:103BF000FFE70898B0F8520080B3FFE70898029BEF
:103C000005996A4611608021002204F069FF38B1ED
:103C1000FFE708992020C86703208DF827003AE0C5
:103C2000049858B9FFE7039800886FF35F2008995C
:103C30000968886203980230039008E004980078CD
:103C4000089909688862049801300490FFE7089990
:103C5000B1F852000138A1F85200CAE70898029B57
:103C600005996A4611604021002204F039FF38B1FD
:103C7000FFE708992020C86703208DF827000AE095
:103C800008992020C86700208DF8270003E0022053
:103C90008DF82700FFE79DF827000AB080BD0000DF
:103CA00081B0009001B0704780B582B008200B2130
:103CB000002211F0E9FC014640F22020C2F202008D
:103CC0000160006868B9FFE74FF0500072B680F3FA
:103CD0001188BFF36F8FBFF34F8F62B60190FFE77C
:103CE000FEE702B080BD000080B586B005900020E0
:103CF0008DF80700FFE740F22020C2F202000068C2
:103D000002A94FF0FF3211F0C3FF012836D1FFE7BF
:103D10009DF80800012830D1FFE701208DF8070049
:103D200000200090FFE7009805281ADCFFE70099C3
:103D300002A80844407978B1FFE700208DF8070019
:103D4000009902A80844417941F66020C2F20200BD
:103D5000012206F0E1F9FFE7FFE70098013000904B
:103D6000E1E79DF8070038B1FFE741F66020C2F2B5
:103D7000020006F0DDF8FFE7FFE7FFE7BBE7000022
:103D8000FFE7FEE70000000080B584B0039000214B
:103D90000091029143F2DC70C2F2020002880192AB
:103DA0004288019850430190084603F039FA03F025
:103DB00083FC00980290FFE70298019988420AD29A
:103DC000FFE703980021C6F208010880FFE7029888
:103DD00001300290F0E704B080BD00000000000058
:103DE00080B584B0DDF818C0ADF80E00ADF80C1049
:103DF000ADF80A20ADF80830BDF80A00BDF80E1085
:103E0000401A0130ADF80400BDF80800BDF80C10F0
:103E1000401A0130ADF806000020ADF80200FFE7BF
:103E2000BDF80200BDF80610884234DAFFE7BDF89D
:103E30000E00BDF80C10BDF80220114489B203F049
:103E4000EFF903F039FC0020ADF80000FFE7BDF802
:103E50000000BDF80410884216DAFFE70698BDF8A6
:103E60000210BDF80420BDF8003001FB023130F82B
:103E700011000021C6F208010880FFE7BDF800002C
:103E80000130ADF80000E2E7FFE7BDF802000130C5
:103E9000ADF80200C4E704B080BD000000000000DF
:103EA00080B582B08DF807009DF8070043F2DC7101
:103EB000C2F2020188719DF80700002840F080805E
:103EC000FFE743F2DC70C2F20200F02101804FF400
:103ED000A0714180808845F21051884214D1FFE7DB
:103EE00043F2DC71C2F202014FF4305008814FF40A
:103EF000285048814FF42C5088814FF4F07008808E
:103F00004FF44870488026E043F2DC70C2F20200B1
:103F1000808841F66311884211D1FFE743F2DC71DA
:103F2000C2F202012C2008812B2048812A2088819E
:103F30004FF4F07008804FF4487048800AE043F274
:103F4000DC71C2F202012C2008812A2048812B203A
:103F50008881FFE7FFE743F2DC70C2F2020080884D
:103F600045F2103188420AD0FFE743F2DC70C2F21A
:103F70000200808847F2967188420BD1FFE743F236
:103F8000DC71C2F202014FF4A07008804FF4F070AF
:103F90004880FFE743F2DC70C2F20200808849F6F5
:103FA000060188420BD1FFE743F2DC71C2F2020145
:103FB0004FF4F07008804FF448704880FFE773E0DA
:103FC00043F2DC70C2F202004FF4A0710180F021D4
:103FD0004180808845F21051884214D1FFE743F2B6
:103FE000DC71C2F202014FF4305008814FF42850C6
:103FF00048814FF42C5088814FF4487008804FF46A
:10400000F070488030E043F2DC70C2F20200808839
:1040100041F6631188420AD0FFE743F2DC70C2F236
:104020000200808849F60601884211D1FFE743F279
:10403000DC71C2F202012C2008812A2048812B2049
:1040400088814FF4487008804FF4F07048800AE08F
:1040500043F2DC71C2F202012C2008812A2048813F
:104060002B208881FFE7FFE743F2DC70C2F20200F9
:10407000808845F2103188420AD0FFE743F2DC70B5
:10408000C2F20200808847F2967188420BD1FFE7A6
:1040900043F2DC71C2F202014FF4F07008804FF479
:1040A000A0704880FFE7FFE7002002F009FF02B0A0
:1040B00080BD00000000000080B586B0ADF816009D
:1040C000ADF81410049243F2DC70C2F20200808852
:1040D00045F21051884229D1FFE743F2DC70C2F269
:1040E00002000390408903F0D7FA9DF8170003F00F
:1040F000C3FA03984089013080B203F0CDFA9DF8ED
:10410000160003F0B9FA0398808903F0C5FA9DF808
:10411000150003F0B1FA03988089013080B203F0F2
:10412000BBFA9DF8140003F0A7FA67E043F2DC70D5
:10413000C2F20200808841F66311884240D1FFE755
:1041400043F2DC70C2F20200807960B9FFE743F20B
:10415000DC70C2F202000188BDF81600C0430844BA
:10416000ADF81600FFE743F2DC70C2F202000290E5
:10417000408903F091FA9DF8170003F07DFA9DF84D
:10418000160003F079FA9DF8170003F075FA9DF810
:10419000160003F071FA0298808903F07DFA9DF809
:1041A000150003F069FA9DF8140003F065FA9DF814
:1041B000150003F061FA9DF8140003F05DFA1CE0AD
:1041C00043F2DC70C2F202000190408903F064FA0D
:1041D0009DF8170003F050FA9DF8160003F04CFA12
:1041E0000198808903F058FA9DF8150003F044FA0D
:1041F0009DF8140003F040FAFFE7FFE743F2DC709C
:10420000C2F2020000894FF6FE71C6F20701088073
:1042100004980021C6F20801088006B080BD0000A5
:1042200080B5ADF55A7DFFE743F63000C4F20200D9
:10423000016841F002010160006800F00200C690D0
:10424000C698FFE72020D5900120D690D790032074
:10425000D89040F20040C4F20200D5A9FCF75CFD02
:1042600040F28440C2F20200C4904FF0204101604D
:1042700040F20411CAF20001416000218160C16076
:104280000161102242614FF4805242624FF4804239
:10429000C2620F22CE92CF915023D093D491C79275
:1042A000C891C992CD91CEA9C7AAFEF7F9FC3220D8
:1042B00006F096FCD32003F0EFF902F0C5FD43F2BF
:1042C000DC71C2F20201C591888002F0BDFDC59982
:1042D000888002F0B9FDC5998880888800028880AE
:1042E00002F0B2FD0246C598818811438180808822
:1042F00049F24131884240F02381FFE7CF2003F0AB
:10430000CBF90020C29003F0B7F9C120B89003F0B8
:10431000B3F93020B99003F0AFF9ED2003F0BCF908
:10432000642003F0A9F9032003F0A6F9122003F09A
:10433000A3F9812003F0A0F9E82003F0ADF985206E
:1043400003F09AF91020BC9003F096F97A2003F05C
:1043500093F9CB2003F0A0F9392003F08DF92C203C
:1043600003F08AF9C29803F087F9342003F084F946
:10437000022003F081F9F72003F08EF9202003F0EA
:104380007BF9EA2003F088F9C29803F075F9C29826
:1043900003F072F9C02003F07FF91B2003F06CF9E1
:1043A000B89803F079F90120BF9003F065F9C520B2
:1043B00003F072F9B99803F05FF9B99803F05CF96A
:1043C000C72003F069F9B72003F056F9362003F04F
:1043D00063F9482003F050F93A2003F05DF95520C5
:1043E00003F04AF9B12003F057F9C29803F044F9F9
:1043F0001A2003F041F9B62003F04EF90A20BB90D1
:1044000003F03AF9A22003F037F9F22003F044F95F
:10441000C29803F031F9262003F03EF9BF9803F06B
:104420002BF9E02003F038F90F20BD9003F024F9B8
:104430002A20C19003F020F9282003F01DF908205C
:10444000BA9003F019F90E2003F016F9BA9803F0A8
:1044500013F9542003F010F9A92003F00DF94320BB
:1044600003F00AF9BB9803F007F9BD9803F004F9CB
:10447000C29803F001F9C29803F0FEF8C29803F065
:10448000FBF8C29803F0F8F8E12003F005F9C298B0
:1044900003F0F2F8152003F0EFF8172003F0ECF822
:1044A000072003F0E9F81120C39003F0E5F8062097
:1044B00003F0E2F82B20BE9003F0DEF8562003F064
:1044C000DBF83C2003F0D8F8052003F0D5F8BC98C1
:1044D00003F0D2F8BD9803F0CFF83F20C09003F06E
:1044E000CBF8C09803F0C8F8BD9803F0C5F8BE98A3
:1044F00003F0D2F8C29803F0BFF8C29803F0BCF8FA
:10450000BF9803F0B9F8C09803F0B6F8C19803F06B
:10451000C3F8C29803F0B0F8C29803F0ADF8C2989F
:1045200003F0AAF8EF2003F0A7F8C39803F0B4F85B
:10453000782006F055FB292003F0AEF802F0F3BB1B
:1045400043F2DC70C2F20200808847F2897188422F
:1045500040F0E180FFE7112003F09EF8782006F09C
:104560003FFB362003F098F80020B69003F084F863
:104570003A2003F091F8052003F07EF8B22003F012
:104580008BF80C20AD9003F077F8AD9803F074F839
:10459000B69803F071F83320AC9003F06DF8AC9846
:1045A00003F06AF8B72003F077F8352003F064F8D9
:1045B000BB2003F071F83220AE9003F05DF8C0200C
:1045C00003F06AF8AD9803F057F8C22003F064F8DE
:1045D0000120B79003F050F8C32003F05DF81020DD
:1045E00003F04AF8C42003F057F8202003F044F801
:1045F000C62003F051F80F2003F03EF8D020AF9012
:1046000003F04AF8A42003F037F8A12003F034F8AF
:10461000E02003F041F8AF9803F02EF8B69803F0CD
:104620002BF80220B09003F027F80720B19003F098
:1046300023F80A20B29003F01FF82820B39003F06B
:104640001BF8AE9803F018F8442003F015F8422048
:1046500003F012F8062003F00FF80E20B49003F0D8
:104660000BF8122003F008F8142003F005F81720C7
:10467000B59003F001F8E12003F00EF8AF9802F0D6
:10468000FBFFB69802F0F8FFB09802F0F5FFB19882
:1046900002F0F2FFB29802F0EFFFB39802F0ECFFE5
:1046A000312002F0E9FF542002F0E6FF472002F03B
:1046B000E3FFB49802F0E0FF1C2002F0DDFFB598A4
:1046C00002F0DAFF1B2002F0D7FF1E2002F0D4FF19
:1046D0002A2002F0E1FFB69802F0CEFFB69802F071
:1046E000CBFFB69802F0C8FFEF2002F0C5FF2B20E9
:1046F00002F0D2FFB69802F0BFFFB69802F0BCFFFE
:10470000B79802F0B9FF3F2002F0B6FF292002F06F
:10471000C3FF02F007BB43F2DC70C2F202008088E4
:1047200045F21031884240F0C887FFE7ED2002F0E3
:10473000B3FF01207F9002F09FFFFE2002F09CFF5C
:10474000EE2002F0A9FFDE2002F096FF2120699002
:1047500002F092FFF12002F09FFF7F9802F08CFFA1
:10476000DF2002F099FF1020A39002F085FFC42003
:104770008B9002F091FF8F2002F07EFFC6206690A2
:1047800002F08AFF0020A89002F076FFE2207490E9
:1047900002F072FF749802F06FFF749802F06CFFE1
:1047A000BF2002F079FFAA209F9002F065FFB020A1
:1047B00002F072FF0D205E9002F05EFFA89802F0FA
:1047C0005BFF5E9802F058FFA89802F055FF112099
:1047D000A59002F051FFA89802F04EFF192002F0B8
:1047E0004BFFA89802F048FF699802F045FFA8988F
:1047F00002F042FF2D2002F03FFFA89802F03CFF9C
:104800003D2002F039FFA89802F036FF5D20849029
:1048100002F032FFA89802F02FFF849802F02CFFDC
:10482000A89802F029FFB12002F036FF802002F0A4
:1048300023FFA89802F020FF8B206E9002F01CFF4F
:10484000A89802F019FF96205F9002F015FFA89833
:1048500002F012FFB22002F01FFFA89802F00CFF36
:10486000A89802F009FF0220819002F005FFA898A5
:1048700002F002FF0320609002F0FEFEA89802F012
:10488000FBFEB320899002F007FFA89802F0F4FE27
:10489000A89802F0F1FEA89802F0EEFEA89802F0A7
:1048A000EBFEA89802F0E8FEA89802F0E5FEA898B2
:1048B00002F0E2FEA89802F0DFFEA89802F0DCFE0B
:1048C000A89802F0D9FEA89802F0D6FEA89802F0A7
:1048D000D3FEA89802F0D0FEA89802F0CDFEA898CA
:1048E00002F0CAFEA89802F0C7FEA89802F0C4FE23
:1048F000A89802F0C1FEA89802F0BEFEA89802F0A7
:10490000BBFEA89802F0B8FEA89802F0B5FEA898E1
:1049100002F0B2FEA89802F0AFFEB42002F0BCFE96
:104920006E9802F0A9FEA89802F0A6FE5F9802F029
:10493000A3FEA89802F0A0FEA12002F09DFEA89878
:1049400002F09AFEB52002F0A7FE819802F094FED4
:10495000A89802F091FE609802F08EFEA89802F0EE
:104960008BFE0420619002F087FEA89802F084FE7E
:10497000B62002F091FEA89802F07EFEA89802F000
:104980007BFEB7207B9002F087FEA89802F074FEB1
:10499000A89802F071FE3F2002F06EFEA89802F087
:1049A0006BFE5E2002F068FEA89802F065FE6420AF
:1049B000A69002F061FEA89802F05EFE8C2002F044
:1049C0005BFEA89802F058FEAC2002F055FEA898B5
:1049D00002F052FEDC208E9002F04EFEA89802F00B
:1049E0004BFE702002F048FEA89802F045FE902091
:1049F00002F042FEA89802F03FFEEB2002F03CFEDF
:104A0000A89802F039FE8E9802F036FEA89802F0BF
:104A100033FEB82002F040FEA89802F02DFEA898C0
:104A200002F02AFEA89802F027FEA89802F024FEC1
:104A3000A89802F021FEA89802F01EFEA89802F0A5
:104A40001BFEA89802F018FEBA2002F025FE2420D2
:104A5000649002F011FEA89802F00EFEA89802F0F1
:104A60000BFEA89802F008FEC12002F015FE2020DF
:104A7000679002F001FEA89802F0FEFD542002F0BB
:104A8000FBFDA89802F0F8FDFF20A99002F0F4FDCC
:104A9000A89802F0F1FDC2207C9002F0FDFD0A20F2
:104AA000769002F0E9FDA89802F0E6FD619802F028
:104AB000E3FDA89802F0E0FDC32002F0EDFD3C20EC
:104AC000829002F0D9FDA89802F0D6FD3A20A49079
:104AD00002F0D2FDA89802F0CFFD392002F0CCFD03
:104AE000A89802F0C9FD372002F0C6FDA89802F090
:104AF000C3FD829802F0C0FDA89802F0BDFD3620EB
:104B00006B9002F0B9FDA89802F0B6FD32209190AA
:104B100002F0B2FDA89802F0AFFD2F20629002F0E3
:104B2000ABFDA89802F0A8FD2C20AB9002F0A4FDEC
:104B3000A89802F0A1FD2920A79002F09DFDA89859
:104B400002F09AFD2620639002F096FDA89802F0EC
:104B500093FD649802F090FDA89802F08DFD649892
:104B600002F08AFDA89802F087FD2320959002F0BC
:104B700083FDA89802F080FD829802F07DFDA89840
:104B800002F07AFD6B9802F077FDA89802F074FDB0
:104B9000919802F071FDA89802F06EFD629802F003
:104BA0006BFDA89802F068FDAB9802F065FDA8982F
:104BB00002F062FDA79802F05FFDA89802F05CFD8C
:104BC000639802F059FDA89802F056FD649802F02F
:104BD00053FDA89802F050FD649802F04DFDA8988E
:104BE00002F04AFD959802F047FDA89802F044FDB6
:104BF0008B9802F051FD6220789002F03DFDA8985C
:104C000002F03AFD0520759002F036FDA89802F0FA
:104C100033FD8420869002F02FFDA89802F02CFD31
:104C2000F020A09002F028FDA89802F025FD1820A1
:104C3000659002F021FDA89802F01EFDA42002F06C
:104C40001BFDA89802F018FD659802F015FDA898C4
:104C500002F012FD5020A19002F00EFDA89802F083
:104C60000BFD0C2002F008FDA89802F005FD1720AE
:104C7000689002F001FDA89802F0FEFC952002F079
:104C8000FBFCA89802F0F8FCF320A29002F0F4FCE0
:104C9000A89802F0F1FCE6208F9002F0EDFCA898B5
:104CA00002F0EAFCC52002F0F7FC919802F0E4FC67
:104CB000A89802F0E1FC44209E9002F0DDFCA89848
:104CC00002F0DAFC652002F0D7FCA89802F0D4FCD0
:104CD0007620929002F0D0FCA89802F0CDFC8820BB
:104CE0009A9002F0C9FCA89802F0C6FC669802F0FF
:104CF000D3FC679802F0C0FCA89802F0BDFC68984D
:104D000002F0BAFCA89802F0B7FC7F9802F0B4FC5D
:104D1000A89802F0B1FCC7207D9002F0BDFCA898D5
:104D200002F0AAFCA89802F0A7FCA89802F0A4FC44
:104D3000A89802F0A1FCC82002F0AEFCA89802F0EE
:104D40009BFCA89802F098FCA89802F095FCA89803
:104D500002F092FCC92002F09FFCA89802F08CFCA3
:104D6000A89802F089FCA89802F086FCA89802F0A6
:104D700083FCA89802F080FCA89802F07DFCA8981B
:104D800002F07AFCA89802F077FCA89802F074FC74
:104D9000A89802F071FCA89802F06EFCA89802F0A6
:104DA0006BFCA89802F068FCA89802F065FCA89833
:104DB00002F062FCA89802F05FFCE020739002F021
:104DC0006BFC16206A9002F057FCA89802F054FC85
:104DD0001C20779002F050FCA89802F04DFC6998D6
:104DE00002F04AFCA89802F047FC6B9802F044FCE1
:104DF000A89802F041FC462002F03EFCA89802F080
:104E00003BFC52206C9002F037FCA89802F034FC76
:104E1000A69802F031FCA89802F02EFC7A206D9042
:104E200002F02AFCA89802F027FC6E9802F024FCFD
:104E3000A89802F021FC99209C9002F01DFCA898F3
:104E400002F01AFCA8206F9002F016FCA89802F05D
:104E500013FCB920709002F00FFCA89802F00CFC33
:104E60008B9802F009FCA89802F006FCCA20719009
:104E700002F002FCA89802F0FFFBD220729002F030
:104E8000FBFBA89802F0F8FBD92002F0F5FBA898EC
:104E900002F0F2FB739802F0EFFBA89802F0ECFB33
:104EA000A29802F0E9FBA89802F0E6FBE12002F0EC
:104EB000F3FB6A9802F0E0FBA89802F0DDFB77981C
:104EC00002F0DAFBA89802F0D7FB222002F0D4FB14
:104ED000A89802F0D1FB6B9802F0CEFBA89802F0E4
:104EE000CBFB4520979002F0C7FBA89802F0C4FBCB
:104EF0006C9802F0C1FBA89802F0BEFBA69802F0E5
:104F0000BBFBA89802F0B8FB6D9802F0B5FBA8981F
:104F100002F0B2FB6E9802F0AFFBA89802F0ACFB77
:104F20009C9802F0A9FBA89802F0A6FB6F9802F0EB
:104F3000A3FBA89802F0A0FB709802F09DFBA89834
:104F400002F09AFB8B9802F097FBA89802F094FB72
:104F5000719802F091FBA89802F08EFB729802F013
:104F60008BFBA89802F088FBD82002F085FBA8985C
:104F700002F082FB739802F07FFBA89802F07CFBA2
:104F8000A29802F079FBA89802F076FB749802F0E0
:104F900083FB759802F070FBA89802F06DFB0B2064
:104FA00002F06AFBA89802F067FB1B2002F064FB8A
:104FB000A89802F061FB3420909002F05DFBA89865
:104FC00002F05AFB9E9802F057FBA89802F054FB9F
:104FD0004F2002F051FBA89802F04EFB612002F036
:104FE0004BFBA89802F048FB792002F045FBA898FB
:104FF00002F042FB9A9802F03FFBA89802F03CFBBB
:105000009720799002F038FBA89802F035FBA62093
:105010007A9002F031FBA89802F02EFB7B9802F008
:105020002BFBA89802F028FB7C9802F025FBA8989F
:1050300002F022FB7D9802F01FFBA89802F01CFBF7
:10504000D1207E9002F018FBA89802F015FBD62024
:1050500002F012FBA89802F00FFBDD20809002F016
:105060000BFBA89802F008FBA29802F005FBA89899
:1050700002F002FBE32002F00FFB759802F0FCFA4D
:10508000A89802F0F9FA769802F0F6FAA89802F0D9
:10509000F3FA779802F0F0FAA89802F0EDFA3320CC
:1050A000969002F0E9FAA89802F0E6FA9E9802F0CB
:1050B000E3FAA89802F0E0FAA19802F0DDFAA898C5
:1050C00002F0DAFA789802F0D7FAA89802F0D4FA47
:1050D000782002F0D1FAA89802F0CEFA9A9802F05D
:1050E000CBFAA89802F0C8FA799802F0C5FAA89805
:1050F00002F0C2FA7A9802F0BFFAA89802F0BCFA5D
:105100007B9802F0B9FAA89802F0B6FA7C9802F0FF
:10511000B3FAA89802F0B0FA7D9802F0ADFAA89818
:1051200002F0AAFA7E9802F0A7FAA89802F0A4FA70
:10513000D52002F0A1FAA89802F09EFA809802F019
:105140009BFAA89802F098FAA29802F095FAA8980B
:1051500002F092FAE42002F09FFA7F9802F08CFAB3
:10516000A89802F089FA7F9802F086FAA89802F0CF
:1051700083FA819802F080FAA89802F07DFA2A203A
:1051800002F07AFAA89802F077FA829802F074FA9C
:10519000A89802F071FA4B20839002F06DFAA8985B
:1051A00002F06AFA849802F067FAA89802F064FAAA
:1051B0007420859002F060FAA89802F05DFA869853
:1051C00002F05AFAA89802F057FA9320879002F05A
:1051D00053FAA89802F050FAA220889002F04CFAF4
:1051E000A89802F049FA899802F046FAA89802F0C5
:1051F00043FABE208A9002F03FFAA89802F03CFAE7
:105200008B9802F039FAA89802F036FACD208C90EB
:1052100002F032FAA89802F02FFAD3208D9002F013
:105220002BFAA89802F028FA809802F025FAA8989C
:1052300002F022FAA29802F01FFAA89802F01CFAD3
:10524000E52002F029FAA89802F016FAA89802F0D0
:1052500013FAA89802F010FAA89802F00DFA8198B3
:1052600002F00AFAA89802F007FAA79802F004FAE6
:10527000A89802F001FA829802F0FEF9A89802F0CC
:10528000FBF9839802F0F8F9A89802F0F5F98498F0
:1052900002F0F2F9A89802F0EFF9859802F0ECF923
:1052A000A89802F0E9F9869802F0E6F9A89802F0C9
:1052B000E3F9879802F0E0F9A89802F0DDF9889800
:1052C00002F0DAF9A89802F0D7F9899802F0D4F937
:1052D000A89802F0D1F98A9802F0CEF9A89802F0C5
:1052E000CBF98B9802F0C8F9A89802F0C5F98C9810
:1052F00002F0C2F9A89802F0BFF98D9802F0BCF94B
:10530000A89802F0B9F98E9802F0B6F9A89802F0C0
:10531000B3F9A29802F0B0F9A89802F0ADF98F980D
:1053200002F0BAF9A59802F0A7F9A89802F0A4F93A
:10533000909802F0A1F9A89802F09EF95620949056
:1053400002F09AF9A89802F097F9929802F094F96D
:10535000A89802F091F97720999002F08DF9A89819
:1053600002F08AF966209D9002F086F9A89802F072
:1053700083F99A9802F080F9A89802F07DF99C9838
:1053800002F07AF9A89802F077F9BB209B9002F01E
:1053900073F9A89802F070F99C9802F06DF9A8983A
:1053A00002F06AF99D9802F067F9A89802F064F992
:1053B0005520AA9002F060F9A89802F05DF9AA9829
:1053C00002F05AF9A89802F057F9979802F054F9A8
:1053D000A89802F051F9432002F04EF9A89802F083
:1053E0004BF99E9802F048F9A89802F045F9E72099
:1053F00002F052F9919802F03FF9A89802F03CF9B6
:10540000AA9802F039F9A89802F036F9929802F0B9
:1054100033F9A89802F030F99D9802F02DF9A89878
:1054200002F02AF96720939002F026F9A89802F07A
:1054300023F9939802F020F9A89802F01DF987202B
:10544000989002F019F9A89802F016F99C9802F0C9
:1054500013F9A89802F010F99B9802F00DF9A8989A
:1054600002F00AF99C9802F007F9A89802F004F9F2
:10547000999802F001F9A89802F0FEF89E9802F0BF
:10548000FBF8A89802F0F8F8949802F0F5F8A898BC
:1054900002F0F2F8959802F0EFF8A89802F0ECF814
:1054A000969802F0E9F8A89802F0E6F8979802F0CA
:1054B000E3F8A89802F0E0F8E82002F0EDF8A898E8
:1054C00002F0DAF8A89802F0D7F89C9802F0D4F825
:1054D000A89802F0D1F8989802F0CEF8A89802F0B7
:1054E000CBF89A9802F0C8F8A89802F0C5F89998F5
:1054F00002F0C2F8A89802F0BFF89D9802F0BCF83C
:10550000A89802F0B9F89A9802F0B6F8A89802F0B4
:10551000B3F89F9802F0B0F8A89802F0ADF89B9805
:1055200002F0AAF8A89802F0A7F89C9802F0A4F854
:10553000A89802F0A1F89D9802F09EF8A89802F0B1
:105540009BF8AA9802F098F8A89802F095F8AA9803
:1055500002F092F8A89802F08FF89E9802F08CF86A
:10556000A89802F089F89E9802F086F8A89802F0B0
:1055700083F8AA9802F080F8A89802F07DF8E92054
:1055800002F08AF89F9802F077F8A89802F074F871
:10559000A89802F071F8A89802F06EF8A89802F0A6
:1055A0007BF89F9802F068F8CF2002F075F8A89871
:1055B00002F062F8A89802F05FF8A89802F05CF890
:1055C000A89802F059F8A89802F056F8A89802F0A6
:1055D00053F8A89802F050F8A89802F04DF8A8984F
:1055E00002F04AF8A89802F047F8A89802F044F8A8
:1055F000A89802F041F8A89802F03EF8A89802F0A6
:105600003BF8A89802F038F8A89802F035F8A89866
:1056100002F032F8A09802F03FF8A89802F02CF8B7
:10562000A19802F029F8A89802F026F8A89802F0AC
:1056300023F8A89802F020F8A29802F02DF8A89874
:1056400002F01AF8F92002F027F8062002F014F808
:10565000A39802F011F8A79802F00EF8A89802F0AB
:105660000BF8A49802F018F8AA9802F005F8A5988B
:1056700002F012F8A69805F0B3FAA79802F00CF819
:10568000352002F009F8A89801F0F6FF512002F049
:1056900003F8A99801F0F0FF532001F0FDFFAB984B
:1056A00001F0EAFFAA9801F0F7FF822001F0E4FF81
:1056B000AB9801F0F1FF01F034BB43F2DC70C2F2B1
:1056C0000200808845F21051884240F0A287FFE72F
:1056D0004FF47040439055215C9101F0F9FF4FF277
:1056E00001004490AA21459101F0F2FF4FF202001F
:1056F00046905221479101F0EBFF4FF20300489092
:105700000821499101F0E4FF4FF204004A90012181
:10571000529101F0DDFF4FF430400D212A9101F04C
:10572000D7FF2A994BF2010001F0D2FF2A994BF2E0
:10573000020001F0CDFF4FF436404D9034213791F7
:1057400001F0C6FF37994BF2016001F0C1FF3799B4
:105750004BF2026001F0BCFF2A994FF431404B90AC
:1057600001F0B6FF2A994BF201104C9001F0B0FF06
:105770002A994BF2021001F0ABFF37994FF43740F2
:105780004E9001F0A5FF37994BF201704F9001F058
:105790009FFF37994BF2027001F09AFF4FF43240AD
:1057A00000215B9101F094FF5B994BF2012001F025
:1057B0008FFF5B994BF2022001F08AFF4FF43840D3
:1057C000519024212C9101F083FF2C994BF601007C
:1057D000539001F07DFF2C994BF60200549001F09C
:1057E00077FF52994FF43F4001F072FF4FF433407E
:1057F0000F212B9101F06CFF2B994BF2013001F03E
:1058000067FF2B994BF2023001F062FF37994FF49A
:10581000394001F05DFF37994BF6011001F058FF58
:1058200037994BF6021001F053FF49994FF4354078
:1058300001F04EFF49994BF2015001F049FF49999F
:105840004BF2025001F044FF4FF4424003215591C6
:1058500001F03EFF2C994FF43A4001F039FF2C99AA
:105860004BF6012001F034FF2C994BF6022001F099
:105870002FFF5B994FF43C40569001F029FF4BF607
:105880000140579078215D9101F022FF5B994BF622
:105890000240589001F01CFF5B994FF43D4001F02D
:1058A00017FF5D994BF6015001F012FF5B994BF623
:1058B000025001F00DFF5B994FF43E4001F008FFEC
:1058C0004BF60160642101F003FF5B994FF45140F6
:1058D00001F0FEFE4DF201103321419101F0F8FE7E
:1058E0005B994DF2021001F0F3FE37994DF203106F
:1058F00001F0EEFE5B994DF2041001F0E9FE4DF26D
:1059000005103A212D9101F0E3FE5B994DF206104E
:1059100001F0DEFE4DF207104A212E9101F0D8FE73
:105920005B994DF2081001F0D3FE4DF209105C2195
:105930002F9101F0CDFE5B994DF20A1001F0C8FEE7
:105940004DF20B108121309101F0C2FE5B994DF2B6
:105950000C1001F0BDFE4DF20D10A621319101F0A9
:10596000B7FE5B994DF20E1001F0B2FE4DF20F1032
:10597000E521329101F0ACFE52994DF2101001F088
:10598000A7FE4DF211101321339101F0A1FE52999F
:105990004DF2121001F09CFE4DF21310542134917F
:1059A00001F096FE52994DF2141001F091FE4DF265
:1059B00015108221359101F08BFE52994DF216108F
:1059C00001F086FE4DF21710CA21369101F080FEDB
:1059D0004DF218100221599101F07AFE5B994DF2B7
:1059E000191001F075FE59994DF21A1001F070FE70
:1059F00052994DF21B1001F06BFE59994DF21C109B
:105A000001F066FE37994DF21D1001F061FE5999C3
:105A10004DF21E1001F05CFE4DF21F10672138910F
:105A200001F056FE59994DF2201001F051FE4DF251
:105A300021108421399101F04BFE59994DF2221029
:105A400001F046FE4DF22310A4213A9101F040FEF0
:105A500059994DF2241001F03BFE4DF22510B7216B
:105A60003B9101F035FE59994DF2261001F030FEC0
:105A70004DF22710CF213C9101F02AFE59994DF2A9
:105A8000281001F025FE4DF22910DE213D9101F094
:105A90001FFE59994DF22A1001F01AFE4DF22B10FB
:105AA000F2213E9101F014FE59994DF22C1001F0B3
:105AB0000FFE4DF22D10FE213F9101F009FE559988
:105AC0004DF22E1001F004FE4DF22F1010214091E6
:105AD00001F0FEFD55994DF2301001F0F9FD4199AC
