:020000040800F2
:10000000686B00200D020008C9210008812000084B
:10001000C121000859030008A130000800000000B9
:100020000000000000000000000000005122000855
:100030006103000800000000E121000879220008A7
:1000400027020008270200082702000827020008EC
:1000500027020008270200082702000827020008DC
:1000600027020008270200082702000827020008CC
:1000700027020008270200082702000827020008BC
:1000800027020008270200082702000827020008AC
:10009000270200082702000827020008270200089C
:1000A000270200082702000827020008270200088C
:1000B000270200082702000827020008270200087C
:1000C000270200082702000827020008270200086C
:1000D00027020008913000082702000827020008C4
:1000E000270200082702000827020008270200084C
:1000F000270200082702000827020008270200083C
:10010000270200082702000827020008270200082B
:10011000270200082702000827020008270200081B
:10012000270200082702000827020008270200080B
:1001300027020008270200082702000827020008FB
:10014000270200082702000827020008D121000822
:1001500027020008270200082702000827020008DB
:1001600027020008270200082702000827020008CB
:1001700027020008D921000827020008000000001B
:1001800027020008270200082702000827020008AB
:10019000270200082702000827020008270200089B
:1001A000270200082702000827020008270200088B
:1001B000270200082702000827020008270200087B
:1001C000270200082702000800000000270200089C
:1001D000270200082702000827020008270200085B
:1001E000270200082702000827020008270200084B
:1001F0002702000827020008DFF80CD000F09AF868
:100200000048004729770008686B002006488047AF
:1002100006480047FEE7FEE7FEE7FEE7FEE7FEE7EB
:10022000FEE7FEE7FEE7FEE759230008F9010008B4
:100230002DE9F05F0546002092469B46884606461B
:10024000814640241BE0284641464746224600F0AE
:1002500060F853465A46C01A914110D311461846C9
:10026000224600F047F82D1A67EB01084F46224658
:100270000120002100F03EF817EB00094E41201E3E
:10028000A4F10104DFDC484631462A464346BDE876
:10029000F09F40EA01039B0703D009E008C9121F41
:1002A00008C0042AFAD203E011F8013B00F8013B30
:1002B000521EF9D27047D2B201E000F8012B491E5C
:1002C000FBD270470022F6E710B513460A460446F3
:1002D0001946FFF7F0FF204610BD30B50446002058
:1002E000034600E05B1C934203D2E05CCD5C401B04
:1002F000F8D030BD202A04DB203A00FA02F10020B9
:1003000070479140C2F1200320FA03F31943904053
:100310007047202A04DB203A21FA02F000217047BE
:1003200021FA02F3D040C2F120029140084319465D
:1003300070470000064C074D06E0E06840F00103FE
:1003400094E8070098471034AC42F6D3FFF758FF03
:10035000A4D60008C4D60008FEE700000000000094
:100360007047000000000000EFF3108072B600BF7D
:10037000FEE700000000000084B040F238264DF295
:10038000383A4DF238474DF2B835C2F2000601ACAA
:100390000FF214190FF24818C0F6000AC0F6000751
:1003A000C0F6000504E000BF695C38460CF01CFD97
:1003B00030684FF0FF3221460CF036F80128F7D1B3
:1003C0009DF80400022853D00128F1D19DF80900BE
:1003D00000285BD09DF807108907294658BF514671
:1003E000095C38460CF000FD00209DF80A1051B160
:1003F0009DF807008007284658BF5046415C3846A4
:100400000CF0F2FC00209DF80B1051B19DF8070094
:100410008007284658BF5046415C38460CF0E4FC43
:1004200000209DF80C1051B19DF807008007284668
:1004300058BF5046415C38460CF0D6FC00209DF871
:100440000D1051B19DF807008007284658BF50464F
:10045000415C38460CF0C8FC00209DF80E10D9B164
:100460009DF8070080079FD41AF801109DE700BF90
:100470009DF907109DF908209DF909309DF80A00A3
:10048000009048460CF0B0FC92E700BF01209DF8B8
:100490000A100029ACD1B6E700283FF489AF4046E6
:1004A0000CF0F4FE84E700BF47616D655F54617333
:1004B0006B204849445F4556545F4D4F5553452086
:1004C000783A256420793A256420776865656C3A26
:1004D000256420627574746F6E733A25640A000097
:1004E00047616D655F5461736B204B4559205550D2
:1004F000000000000000000070B50446866D00F0AA
:1005000033F994F83510022928D105462068216C6A
:100510000268002922F016020260426922F080017E
:10052000416101D1A16C19B1016821F0080101609C
:10053000016821F00101016020680068C00715D042
:1005400000F012F9401B0628F6D320206065032036
:1005500084F83500002184F8341070BD8020606577
:100560000120002184F8341070BD00BFE06D3F21F0
:1005700001FA00F0B060012084F83500002000216D
:1005800084F8341070BD000090F83510022909D1AC
:10059000052180F835100068016821F00101016033
:1005A0000020704780214165012070470000000055
:1005B0002DE9F04F82B000F13E420A2302F1FF77AD
:1005C00042F20042C4F2020243F6004B90424FEA6C
:1005D000B72208BF0923092AC4F2010B38BF4FEA2A
:1005E000B72300244FF0010E00270026009306E0F9
:1005F00001360437102E04F1020400F0A9800EFA2F
:1006000006F80B6813EA080FF2D0D1F804A0032211
:100610000AF0030C02FA04F5ACF101036FEA0509D4
:10062000012B0FD88368CD6803EA0903A5402B434B
:100630008360CAF30015436823EA0803B5402B43DF
:10064000436005E0BCF1030F02D14FF0030C22E040
:10065000C3688D6803EA0903A540BCF1020F43EAB1
:100660000503C36017D16FF003020F2502EA56039A
:1006700007F01C02034405FA02FAD3F820C00D6902
:100680002CEA0A0C05FA02F242EA0C021A62D1F8CC
:1006900004A00AF0030C02680CFA04F302EA09024F
:1006A0001AF4403F42EA03020260A1D043F6440339
:1006B0004FF60849C4F20203CFF6FF790F251A68F6
:1006C00042F480421A601A6826F0030302F4804262
:1006D00001920BEB0302019B07F00C0352F809C0D7
:1006E0009D402CEA050C009D05FA03F343EA0C0338
:1006F00042F80930DBF808C04B684CEA0805DA021A
:1007000058BF2CEA080543F60C499A02C4F20109C5
:10071000CBF80850D9F800C04CEA080558BF2CEABD
:1007200008059A03C9F80050DBF804C04CEA080534
:1007300058BF2CEA0805DB03CBF80450DBF8002097
:1007400042EA080558BF22EA0805CBF800504FE7F7
:1007500002B0BDE8F08F0000002A08BF09048161E3
:10076000704700000000000045F62030C2F2000093
:10077000006870470000000040F2040045F6203198
:10078000C2F20000C2F2000100780A68104408605A
:10079000704700000000000080B5032000F0E0F882
:1007A0000F2000F005F800F077F8002080BD000071
:1007B00070B540F2040640F28401C2F20006C2F2B3
:1007C00000014FF47A73044632780968B3FBF2F201
:1007D000B1FBF2F1084600F03FFF0F2C4FF001058E
:1007E00008D838B94FF0FF3000222146002500F02C
:1007F00087F87460284670BD10B54EF6A05E41784B
:10080000CEF2000E90F800C04EF8081CDEF8001082
:1008100021F00101CEF8001041684EF8041C017B64
:10082000C37A827A447B1B0643EA0171837B41EAE7
:10083000C241C27B41EA8441447A41EA4341007AA1
:1008400041EA024141EA042141EA400040EA0C0049
:10085000CEF8000010BD00004EF62450CEF200008D
:10086000BFF35F8F016821F48031016000210167CF
:1008700070470000000000004EF6245140F00100D7
:10088000CEF200010867086840F480300860BFF3CA
:100890004F8FBFF36F8F704782B043F64000002246
:1008A000C4F20200016841F080510160016801F06A
:1008B000805101910199416841F480414160406853
:1008C0000F2100F4804000906FF00100009B02B007
:1008D00000F016B800000000002848BF7047C1B201
:1008E0004EF20012CEF2000200F01F0042EAD101E7
:1008F000012221F0030102FA00F0086070470000B5
:1009000070B54EF60C5C4FF0FF36CEF2000C00F1E5
:10091000604505F56445DCF80030C3F3022E8EF027
:100920000703042B28BF0423BEF1030406FA03F3D4
:1009300021EA030100F00F0338BF0024043B002824
:10094000634406FA04F048BF03F10C05A14022EA13
:10095000000008430001287070BD00000000000086
:100960004EF60C514FF6FF03CEF200010A681A4012
:1009700060F30A2242F0806040F0FD70086070472A
:10098000B0B582B043F6400047F20005C4F2020061
:10099000C4F20005016841F080510160006800F078
:1009A000805001900198286840F480302860FFF75B
:1009B000DBFE04466868C00306D4FFF7D5FE001BC3
:1009C000B0F57A7FF6D910E0286840F4003028604E
:1009D000FFF7CAFE044600BF6868800308D4FFF72B
:1009E000C3FE001BB0F57A7FF6D9032002B0B0BD7C
:1009F000002002B0B0BD00002DE9F04782B0D0F871
:100A000000A043F6900604465FEACA70C4F20206EC
:100A10001AD14FF000095FEA0A3028D556F8040CC5
:100A2000E16B20F44010B1F5801F40EA010046F868
:100A3000040CB1FA81F04FEA501808BF4FF00109D9
:100A40005FEACA2018D429E056F8880C20F4000088
:100A500046F8880C606B56F8881C014346F8881CE1
:100A6000B0FA80F04FEA50195FEA0A30D6D44FF05E
:100A700000085FEACA2011D556F8040C216C20F456
:100A80004000B1F5800F40EA010008BF4FF00109B6
:100A9000002908BF4FF0010846F8040C5FEA8A609D
:100AA00057465CD556F8500C47F2000740F080508E
:100AB00046F8500CC4F2000756F8500C00F0805075
:100AC00001900198386840F480703860FFF74CFE60
:100AD000054600BF3868C00506D4FFF745FE401B39
:100AE0006428F7D958E200BF56F8200C10F4407083
:100AF0001BD0216B01F44071884216D056F8200CAF
:100B000056F8201C41F4803146F8201C56F8201C71
:100B100020F4407021F4803146F8201C46F8200C67
:100B200056F8200CC00740F03B824FF6FF43276881
:100B3000206B56F8882CC0F6FF7300F4407122F445
:100B4000F81203406FF31F30B1F5407F08BF1A431E
:100B500046F8882C56F8201C084346F8200CF80666
:100B600038D4780444D438044AD4F80350D4B803B1
:100B700056D478065CD4380662D4F80568D4B80533
:100B80006ED4780575D438057CD4F80400F18380E0
:100B9000B80400F18980780200F18F80B80200F17A
:100BA0009580780300F1A180380200F1A7807801D8
:100BB00000F1AE80380100F1B580F8000AF08070D5
:100BC00000F1BE80002808BFB9F1000F40F0E480BA
:100BD000C4E000BF56F8040C20F0807046F8040C06
:100BE000A06B56F8041C084346F8040C7804BAD5E8
:100BF0003068616E20F44030084330603804B4D56A
:100C00003068A16E20F4402008433060F803AED570
:100C10003068E16E20F4401008433060B803A8D576
:100C20003068216F20F44000084330607806A2D578
:100C30003068616C20F003000843306038069CD5B2
:100C40003068A16C20F00C0008433060F80596D5A0
:100C50003068E16C20F0300008433060B80590D572
:100C60003068216D20F0C0000843306078057FF5C2
:100C70008AAF3068616D20F44070084330603805F9
:100C80007FF583AF3068A16D20F440600843306089
:100C9000F8047FF57DAF3068E16D20F440500843E3
:100CA0003060B8047FF577AF3068216E20F44040A3
:100CB0000843306078027FF571AF3068A16F20F093
:100CC000806008433060B8027FF56BAF3068E16F39
:100CD00020F00060B1F1006F40EA010008BF4FF062
:100CE0000108306078037FF55FAF3068616F20F0F6
:100CF00040700843306038027FF559AF3068D4F84F
:100D0000801020F080500843306078017FF552AFAA
:100D10003068D4F8841020F0005008433060380167
:100D20007FF54BAF56F8040CD4F8881020F0007013
:100D3000084346F8040CF8000AF080707FF542AFD3
:100D400056F8041CD4F88C2021F08061114346F839
:100D5000041C002808BFB9F1000F1DD117F0007066
:100D60001AD117F0080008BFB8F1000F00F0A680F4
:100D700056F8900C20F0805046F8900CFFF7F4FCE9
:100D8000054600BF56F8900C800029D5FFF7ECFC13
:100D9000401B6428F6D9FFE056F8900C20F08060E4
:100DA00046F8900CFFF7E0FC054600BF56F8900CA3
:100DB000000105D5FFF7D8FC401B6428F6D9EBE00D
:100DC0002068C10702D0616B00297BD0010340F18C
:100DD0008D80E16BB1F5801F40F088808CE000BF12
:100DE0002068010301D5E16B19B1C1021ED5216C48
:100DF000E1B956F8081C56F8082C01F4403102F00D
:100E0000E04263691144A26941EA8311A76A41EA99
:100E1000026146F8081C56F8041C6FF0FF0221F42A
:100E2000F85102EB0722114346F8041C810214D545
:100E3000E16FB1F1006F10D156F8081C56F8082C7C
:100E400001F0706102F0E0426369276A114441EAEF
:100E5000831141EA074146F8081C000718D556F8E7
:100E6000080C56F8081C00F0706001F4403162690B
:100E70000844E16940EA8210E36A40EA017046F8FA
:100E8000080C56F8040C20F44030184346F8040CC3
:100E900056F8900C40F0805046F8900CFFF764FC38
:100EA000044600BF56F8900C800007D4FFF75CFCA6
:100EB000001B6528F6D3032084E000BF002002B0A9
:100EC000BDE8F08756F80C1C56F80C2C01F44031A4
:100ED00002F07062D4E90135114441EA831141EA1C
:100EE000057146F80C1C01033FF573AFC1021DD517
:100EF000216CB1F5800F19D156F80C1C56F80C2C4A
:100F000001F4403102F0E04263681144E26841EAD2
:100F10008311656A41EA026146F80C1C56F8041C0C
:100F20006A1E21F01F01114346F8041CC10110D5AF
:100F300056F80C1C56F80C2C01F0706102F0E042DF
:100F400063682569114441EA831141EA054146F885
:100F50000C1C80010CD56068A368D4E90321090446
:100F600041EA801040EA026040EA037046F80C0C47
:100F700056F8900C40F0806046F8900CFFF7F4FBB8
:100F8000054600BF56F8900C00013FF5EAAEFFF7AA
:100F9000EBFB401B6428F5D9032002B0BDE8F087C5
:100FA000FFF7E2FB054641F2883700BF56F8200CF8
:100FB00080073FF5BAADFFF7D7FB401BB8424FF0B3
:100FC0000300F3D902B0BDE8F08700000000000084
:100FD00070470000000000002DE9F041002800F0FB
:100FE000CF8043F608080446C4F202080D46D8F83C
:100FF000F80300F00F0088420DD2D8F8F80320F073
:101000000F002843C8F8F803D8F8F80300F00F00E1
:10101000A84240F0B5802068810717D5410705D563
:10102000D8F8001041F4E051C8F80010010705D5C8
:10103000D8F8001041F46041C8F80010D8F800104A
:10104000A26821F0F0011143C8F80010C00725D1B3
:10105000D8F8F80300F00F00A8420DD9D8F8F8032B
:1010600020F00F002843C8F8F803D8F8F80300F080
:101070000F00A84240F08480206841071AD400077E
:1010800022D4D8F8000000F00C0008282BD0042847
:101090004CD147F64000C0F27D104BE0606802285A
:1010A00062D0012868D158F8081C89036CD401204B
:1010B000BDE8F081D8F80010E26821F4E051114356
:1010C000C8F800100007DCD5D8F80000216920F42A
:1010D000604040EAC100C8F80000D8F8000000F005
:1010E0000C000828D3D158F8042C58F8040C4002FE
:1010F00047F6400058F8041CC0F27D105CBF42F275
:101100000040C0F2F400C1F3881102F03F02A0FBDE
:1011100001010023FFF78CF858F8041C0222C1F3E8
:10112000014102EB4101B0FBF1F003E042F200406B
:10113000C0F2F400D8F800104DF2BC22C0F6000254
:10114000C1F30311515C40F20802C2F20002C84030
:1011500040F28401C2F2000108601068FFF728FB2A
:101160000020BDE8F08100BF58F8081C89010BD4AD
:101170000120BDE8F08100BF58F8081C890703D49E
:101180000120BDE8F08100BFD8F8001021F0030174
:101190000843C8F80000FFF7E7FA064641F288372F
:1011A000D8F80000616800F00C00B0EB810F3FF44C
:1011B0004FAFFFF7D9FA801BB842F1D90320BDE841
:1011C000F08100000000000043F60000C4F20200BD
:1011D000016841F400210160704700000000000038
:1011E00040F2840043F60801C2F20000C4F202019A
:1011F0004DF2CC2200680968C0F60002C1F38221DA
:10120000515CC8407047000040F2840043F608017A
:10121000C2F20000C4F202014DF2CC22006809685B
:10122000C0F60002C1F34231515CC8407047000073
:1012300010B543F60404C4F20204606800F00C0028
:10124000082807D0042825D147F64000C0F27D10B9
:1012500010BD00BF22682068400247F640002168A8
:10126000C0F27D105CBF42F20040C0F2F400C1F356
:10127000881102F03F02A0FB01010023FEF7D8FF16
:1012800021680222C1F3014102EB4101B0FBF1F000
:1012900010BD00BF42F20040C0F2F40010BD0000DB
:1012A00010B543F60C04C4F202042068000658BFCF
:1012B00010BDFFF78DFE8020A07010BD0000000063
:1012C0002DE9F04182B000286ED00446007843F644
:1012D0000006C007C4F202060BD0B06800F00C0094
:1012E000042840F09F803068800302D560680028A1
:1012F0005AD0207880071AD5B06810F00C0F09D0AA
:10130000B06800F00C00082840F0AA807068400225
:1013100000F1A6803068800702D5E068012843D13B
:101320003068216920F0F80040EAC1003060207880
:1013300000073DD4207840074ED4A56985B3B06836
:1013400000F00C00082840F0BF80012D70682BD001
:1013500000F48001E269914226D100F03F01226A47
:10136000914221D147F6C071626A0140B1EB821F00
:101370001AD1A16A4FF6FF72C903914300F44032BB
:10138000A1F580318A420FD1E16A00F07062B2EBC0
:10139000016F09D1216B00F0E040B0EB017F03D178
:1013A000002002B0BDE8F081012002B0BDE8F0816C
:1013B00060690028706F77D040F001007067FFF718
:1013C000D3F90546706F8007B4D4FFF7CDF9401B01
:1013D0000228F7D915E100BF306C10F0805808D111
:1013E000306C40F080503064306C00F080500190E0
:1013F000019847F20007C4F200073868C00543D4DB
:10140000386840F480703860FFF7AEF9054600BFD9
:101410003868C00538D4FFF7A7F9401B6428F7D90E
:10142000EFE000BFB06800F00C00082803D170683E
:1014300040023FF558AF6068002800F0B580B0F575
:10144000A02F00F0C980B0F5803F00F0C98030685F
:1014500020F480303060306820F48020C3E000BF8A
:10146000E0680028306851D040F001003060FFF79C
:101470007BF90546306880073FF552AFFFF774F9F6
:10148000401B0228F6D9BCE0A068002850D00528EF
:1014900068D001286AD0306F20F001003067306FCB
:1014A00020F0040065E000BF20F001007067FFF746
:1014B0005BF90546706F80077FF53CAFFFF754F985
:1014C000401B0228F6D99CE0306820F08070306024
:1014D000FFF74AF9022D05460CD100BF30688001A4
:1014E00040F19480FFF740F9401B02284FF00300C1
:1014F000F4D956E7306880017FF552AFFFF734F931
:10150000401B02284FF00300F4D94AE720F0010005
:101510003060FFF729F90546306880077FF507AF8F
:10152000FFF722F9401B02284FF00300F4D938E7F7
:10153000306F20F001003067306F20F0040030671A
:10154000FFF712F9054641F2883700BF306F800778
:1015500020D5FFF709F9401BB8424FF00300F5D939
:101560001FE700BF306F40F004003067306F40F07D
:1015700001003067FFF7F8F8054641F2883700BFF1
:10158000306F800706D4FFF7EFF8401BB842F7D959
:1015900037E000BFB8F1000F7FF4CFAE306C20F021
:1015A00080503064C9E600BF306820F4803030607D
:1015B000306820F480203060FFF7D6F8054600BF81
:1015C000306880037FF595AEFFF7CEF8401B6428A6
:1015D0004FF00300F4D9E4E6306840F48020306036
:1015E000306840F480303060FFF7BEF8054600BF39
:1015F000306880033FF57DAEFFF7B6F8401B6428E6
:10160000F6D9032002B0BDE8F08100BF04F11C0749
:10161000256B8FCF0843D9034FF6FF7340EA821042
:10162000994340EA0760A1F58031084340EA05701C
:101630007060306840F080703060FFF795F80446C5
:10164000306880013FF5ACAEFFF78EF8001B022832
:101650004FF00300F4D9A4E6411E0020B0EB116F57
:1016600002D00120704700BF4EF21002F023CEF2EC
:10167000000251604EF62351CEF200010B7007219B
:10168000906011607047000070470000000000008B
:1016900070470000000000007047000000000000DC
:1016A000B0B50446006840F62F02C169056801EA3A
:1016B000020305F0200E202B836809D1BEF1000F34
:1016C00006D0A16E00293BD02046BDE8B0400847B7
:1016D00040F60F02114209D040F2201203F0010C33
:1016E000C0F200422A4012EB0C0215D1226E012AF0
:1016F00005D111F0100218BF15F0100222D1CA0254
:1017000014D513F4800211D04FF4801101622046E9
:10171000BDE8B040FFF7BCBFCA0718BF15F4807220
:1017200040F0A2818A0700F1A981B2E1080640F1E8
:101730009B8015F0800000F09780E16E0029C3D1F6
:10174000B0BD00BF102101628068400600F1C48076
:10175000B4F85800B4F85A10B4F85A20002A18BF48
:101760008842EDD0401A216851E8001F226821F418
:10177000907142E80013F3B1216851E8001F22681C
:1017800021F4907142E80013002B1FBF216851E83B
:10179000001F226821F490711CBF42E80013002B47
:1017A00009D0216851E8001F226821F4907142E8B5
:1017B0000013002BD7D1216851E8021F226821F0C5
:1017C000010142E80213F3B1216851E8021F2268C7
:1017D00021F0010142E80213002B1FBF216851E8EC
:1017E000021F226821F001011CBF42E80213002BF6
:1017F00009D0216851E8021F226821F0010142E866
:101800000213002BD7D12021C4F8801000212166BB
:10181000A166216851E8001F226821F0100142E80A
:101820000013F3B1216851E8001F226821F0100174
:1018300042E80013002B1FBF216851E8001F2268F7
:1018400021F010011CBF42E80013002B09D02168D1
:1018500051E8001F226821F0100142E80013002B1C
:10186000D7D181B230E200BF48067FF569AF15F0ED
:10187000400008BFB0BD206850E8000F216820F08C
:10188000400041E80002F2B1206850E8000F2168F2
:1018900020F0400041E80002002A1FBF206850E805
:1018A000000F216820F040001CBF41E80002002A20
:1018B00009D0206850E8000F216820F0400041E87E
:1018C0000002002AD7D12020E0670020E0662046F1
:1018D000BDE8B04000F0B4BB606F01684A68B4F87E
:1018E000583091B2002900F0E781994280F0E481FC
:1018F000A4F85A20C069B0F5807F00F0A880206865
:1019000050E8000F216820F4807041E80002F2B135
:10191000206850E8000F216820F4807041E8000240
:10192000002A1FBF206850E8000F216820F4807053
:101930001CBF41E80002002A09D0206850E8000FCF
:10194000216820F4807041E80002002AD7D1206885
:1019500050E8020F216820F0010041E80202F2B1D4
:10196000206850E8020F216820F0010041E80202DF
:10197000002A1FBF206850E8020F216820F00100F4
:101980001CBF41E80202002A09D0206850E8020F7B
:10199000216820F0010041E80202002AD7D1206826
:1019A00050E8020F216820F0400041E80202F2B145
:1019B000206850E8020F216820F0400041E8020250
:1019C000002A1FBF206850E8020F216820F0400065
:1019D0001CBF41E80202002A09D0206850E8020F2B
:1019E000216820F0400041E80202002AD7D12020DF
:1019F000C4F8800000202066206850E8000F2168AD
:101A000020F0100041E80002F2B1206850E8000F19
:101A1000216820F0100041E80002002A1FBF206862
:101A200050E8000F216820F010001CBF41E80002C0
:101A3000002A09D0206850E8000F216820F010002B
:101A400041E80002002AD7D1606FFEF755FD022061
:101A50006066B4F85800B4F85A10401A81B22046B3
:101A6000BDE8B040FFF710BE01220262D4F8842026
:101A700042F00102C4F884208A070AD5BCF1000FA5
:101A800007D002220262D4F8842042F00402C4F893
:101A900084204A070AD5BCF1000F07D00422026255
:101AA000D4F8842042F00202C4F884200A070DD53D
:101AB0004EEA0C02B2FA82F2520907D108220262FF
:101AC000D4F8842042F00802C4F884200A050BD51B
:101AD00015F0806208D04FF400620262D4F88420CE
:101AE00042F02002C4F88420D4F88420002A3FF475
:101AF00027AE11F0200118BFBEF1000F40F0D480D6
:101B0000D4F88410806800F0400001F028014018EB
:101B100006D12046FFF7C0FD0020C4F88400B0BD08
:101B2000206850E8000F216820F4907041E800021E
:101B3000F2B1206850E8000F216820F4907041E86D
:101B40000002002A1FBF206850E8000F216820F41F
:101B500090701CBF41E80002002A09D0206850E8BC
:101B6000000F216820F4907041E80002002AD7D1CC
:101B7000206850E8020F216820F0010041E80202CD
:101B8000F2B1206850E8020F216820F0010041E81E
:101B90000202002A1FBF206850E8020F216820F0CF
:101BA00001001CBF41E80202002A09D0206850E869
:101BB000020F216820F0010041E80202002AD7D17B
:101BC000206E012827D1206850E8000F216820F0FE
:101BD000100041E80002F2B1206850E8000F2168CF
:101BE00020F0100041E80002002A1FBF206850E8E2
:101BF000000F216820F010001CBF41E80002002AFD
:101C000009D0206850E8000F216820F0100041E85A
:101C10000002002AD7D12020C4F8800000202066CE
:101C20002168A0668868400638D5206850E8020F11
:101C3000216820F0400041E80202F2B1206850E83B
:101C4000020F216820F0400041E80202002A1FBF75
:101C5000206850E8020F216820F040001CBF41E8D6
:101C60000202002A09D0206850E8020F216820F003
:101C7000400041E80202002AD7D1606F70B142F201
:101C8000F951C0F600010165FEF77EFC00283FF423
:101C900057AD606F016DBDE8B04008472046BDE814
:101CA000B040FFF7F9BC00BFA16E00293FF428AF98
:101CB00020468847206823E78B427FF441ADC06906
:101CC000B0F5807F7FF43CAD022060662046BDE821
:101CD000B040FFF7D9BC000010B5D0B10446C06FCA
:101CE00028B9002084F87800204600F029F8242044
:101CF000E0672068616A0029026822F00101016042
:101D000002D0204600F04CFB204600F039FE0128AE
:101D100002D1012010BD00BF2068416821F490412C
:101D20004160816821F02A018160016841F0010170
:101D300001602046BDE8104000F0A2BB000000009A
:101D4000B0B5AAB0044601A841F2000504308C21C8
:101D5000C4F20105FEF7B6FA2068A84202D02AB004
:101D6000B0BD00BF4020019001A8FEF745FE08B1BC
:101D7000FEF7FAFA43F63000C4F20200416941F07E
:101D800010014161416901F0100125912599016817
:101D900041F002010160006825A900F002002590D1
:101DA00025984FF44040259002202690002027904F
:101DB000032028900420299005F57440FEF7F8FBD5
:101DC000252006210022FEF79BFD2520FEF784FD3D
:101DD0002AB0B0BD0000000080B5D0F88030202BC4
:101DE00006D10123002918BF002A03D1184680BD5F
:101DF000022080BD0023036603685B681B0205D4D4
:101E000000F0DEFE0023184680BD00BF036853E8E3
:101E100000CFD0F800E04CF080634EE8003CBCF10D
:101E2000000FEDD0036853E800CFD0F800E04CF08D
:101E300080634EE8003CBCF1000F1FBF036853E80D
:101E400000CFD0F800E04CF080631CBF4EE8003CAF
:101E5000BCF1000FD4D0036853E800CFD0F800E005
:101E60004CF080634EE8003CBCF1000FCED1C7E7D8
:101E700041F200010068C4F20101884218BF7047B6
:101E800040F2980140F6F802C2F20001C2F20002EC
:101E90004B680878D05441F64810C2F20000012285
:101EA00001334B60FFF798BF2DE9F0410446C06F46
:101EB000202845D10D4600294FF0010000F0BB80DD
:101EC0001646002A08BFBDE8F08198460020C4F8F5
:101ED00084002120E067FEF747FCA4F85060A4F8D6
:101EE00052600646A168B1F5805F02D120690028E2
:101EF00070D02F460025B4F85200002870D018F199
:101F0000010021D0B8F1000F42D121680CE000BFE0
:101F100017F8010B8862B4F852000138A4F8520097
:101F2000B4F8520000285CD0C869000640F17E80F9
:101F3000002FEDD135F8020B00276FF35F20E9E7A2
:101F40000220BDE8F08100BF216802E0C8690006F8
:101F500009D4C869000606D4C86900065CBFC86910
:101F60005FEA0060F2D51FB117F8010B05E000BF72
:101F700035F8020B00276FF35F208862B4F8520037
:101F80000138A4F85200B4F852000028E1D128E04A
:101F9000216800BFC869000608D4FEF7E5FB801B76
:101FA000404545D821680868F4E700BF17B117F825
:101FB000010B04E035F8020B00276FF35F20886205
:101FC000B4F852000138A4F85200B4F852000028C6
:101FD000E0D106E00027B4F8520000287FF48FAF6C
:101FE0002168C86940061FD4B8F1000F1ED018F14F
:101FF00001000FD1C869400616D4C869400613D441
:10200000C869400610D4C86940064FF00000F1D5F9
:102010000FE000BFFEF7A8FB801B404508D82068F2
:102020000168C0694006F5D5002002E0FEF79CFB80
:1020300003202021E167BDE8F081000000000000DE
:10204000704700000000000080B508200B2100222E
:1020500009F046FF40F238210028C2F20001086072
:1020600018BF80BD4FF0500072B680F31188BFF3E7
:102070006F8FBFF34F8F62B6FEE7000000000000D5
:1020800000BE70470000000010B586B043F6300077
:1020900040F20044C4F20200C4F20204016841F0BC
:1020A000020101600068012100F002000190019826
:1020B00003200190CDE90211049001A92046FEF70A
:1020C00077FA012101222046FEF746FB0221012278
:1020D0002046FEF741FB06B010BD000000000000E6
:1020E00010B542F271304DF24862C0F60000C0F601
:1020F0000002002105F0D0FB40F290044DF21432B2
:10210000C2F20004C0F600020021206040F27930E3
:10211000C0F6000005F0C0FB606010BD00000000CC
:1021200083B043F63000C4F20200016841F0800140
:102130000160016801F0800102910299016841F09B
:1021400002010160016801F0020101910199016839
:1021500041F001010160006800F00100009000986A
:1021600003B070470000000080B541F6481041F20E
:102170000001C2F20000C4F201010C2201604FF420
:10218000E13141600021C0E902110161C0E905218E
:10219000C0E907114162FFF79FFD08B1FEF7E4F8BF
:1021A00041F6481040F29801C2F20000C2F200016C
:1021B0000122BDE88040FFF70FBE000000000000D4
:1021C000FEE7000000000000FFF76AF8FEE70000ED
:1021D0000020012108F040BC0120012108F03CBC96
:1021E000EFF30980BFF36F8F154B1A681EF0100FC5
:1021F00008BF20ED108A20E9F04F10602DE909009A
:102200004FF0500072B680F31188BFF34F8FBFF3C9
:102210006F8F62B609F0E8FC4FF0000080F3118880
:10222000BDE8090019680868B0E8F04F1EF0100F0B
:1022300008BFB0EC108A80F30988BFF36F8F704736
:10224000A0000020000000000000000000000000CE
:10225000074B19680868B0E8F04F80F30988BFF3AE
:102260006F8F4FF0000080F31188704700BF00BFF0
:10227000A00000200000000080B5FEF77DFA0AF003
:102280006FFB012808BF80BDBDE8804009F0B4BDE8
:1022900080B594B000200690CDE90B00CDE909008F
:1022A000CDE90400CDE9020043F64000C4F202008B
:1022B000016841F080510160006800F08050019099
:1022C00047F200000199C4F20000016841F4404166
:1022D000016000684FF4800100F4404001900198D3
:1022E000012007904FF48030089002200D900E914D
:1022F00019210F914FF4D871CDE910100921CDE9C2
:10230000121007A8FEF7DCFF20B1EFF3108072B6C1
:10231000FEE700BFFEF734FB20B1EFF3108072B68A
:10232000FEE700BF0F2002900220039000200490DF
:102330004FF4A05005904FF48050069002A807215A
:10234000FEF74AFE20B1EFF3108072B6FEE700BF41
:10235000FEF73AFF14B080BD4EF68850CEF2000072
:10236000016841F470010160704700000000000046
:1023700082B000F09DFE4AF60220ADF8040001A9EB
:10238000002008F079FB00BF4FF0FF30002108F07B
:102390008FF9012005F0F4F9F6E7000000000000D5
:1023A000416A0A070CD4CA0715D18A071ED44A0706
:1023B00027D4CA0630D48A0639D44A0655D541E016
:1023C0000268D0F834C0536823F4004343EA0C0396
:1023D0005360CA07E9D00268D0F828C0536823F4D4
:1023E000003343EA0C0353608A07E0D50268D0F853
:1023F0002CC0536823F4803343EA0C0353604A072C
:10240000D7D50268D0F830C0536823F4802343EA5C
:102410000C035360CA06CED50268D0F838C0936862
:1024200023F4805343EA0C0393608A06C5D50268FF
:10243000D0F83CC0936823F4005343EA0C03936044
:102440004A0612D50268D0F840C05368BCF5801F18
:1024500023F4801343EA0C03536006D1536823F43A
:10246000C00C436C43EA0C035360090658BF704725
:102470000168806C4A6822F400221043486070476B
:10248000B0B582B004460020C4F88400FEF76CF9B1
:10249000216805460A68120737D54FF4001100225B
:1024A0006FF07E40009020462B4600F045FC58B36C
:1024B000206850E8000F216820F0800041E8000209
:1024C000F2B1206850E8000F216820F0800041E858
:1024D0000002002A1FBF206850E8000F216820F08A
:1024E00080001CBF41E80002002A09D0206850E8A3
:1024F000000F216820F0800041E80002002AD7D1B7
:102500002020E06763E000BF21680868400765D5C8
:102510004FF4800100226FF07E40009020462B4651
:1025200000F00AFC002859D0206850E8000F21680C
:1025300020F4907041E80002F2B1206850E8000FEA
:10254000216820F4907041E80002002A1FBF206833
:1025500050E8000F216820F490701CBF41E8000291
:10256000002A09D0206850E8000F216820F49070FC
:1025700041E80002002AD7D1206850E8020F216804
:1025800020F0010041E80202F2B1206850E8020F99
:10259000216820F0010041E80202002A1FBF2068E4
:1025A00050E8020F216820F001001CBF41E8020240
:1025B000002A09D0206850E8020F216820F00100AD
:1025C00041E80202002AD7D12020C4F8800003206D
:1025D000002184F8781002B0B0BD00BF2020E06771
:1025E000C4F88000002020666066002184F878101E
:1025F00002B0B0BD00000000806B0021A0F85A10AE
:10260000FFF74AB800000000B0F85C200168D0F87D
:102610008030222B40F0A280496A436D114023F89C
:10262000021B4365B0F85A100139A0F85A10B0F8EF
:102630005A10002918BF7047016851E8001F02684E
:1026400021F4907142E80013F3B1016851E8001FD2
:10265000026821F4907142E80013002B1FBF01684B
:1026600051E8001F026821F490711CBF42E800137A
:10267000002B09D0016851E8001F026821F4907115
:1026800042E80013002BD7D1016851E8021F02680D
:1026900021F0010142E80213F3B1016851E8021F81
:1026A000026821F0010142E80213002B1FBF0168FC
:1026B00051E8021F026821F001011CBF42E8021329
:1026C000002B09D0016851E8021F026821F00101C6
:1026D00042E80213002BD7D12021C0F8801000213E
:1026E000816641660168496809023DD4016E01298D
:1026F00064D100210166016851E8001F026821F0E1
:10270000100142E80013F3B1016851E8001F0268AC
:1027100021F0100142E80013002B1FBF016851E8AF
:10272000001F026821F010011CBF42E80013002BBB
:1027300009D0016851E8001F026821F0100142E849
:102740000013002BD7D10168CA69D20601D5102227
:102750000A62B0F85810FEF797BF00BF886940F0D2
:1027600008008861704700BF016851E8001F0268D7
:1027700021F0806142E80013002BB7D0016851E8D6
:10278000001F026821F0806142E80013002B1FBF88
:10279000016851E8001F026821F080611CBF42E817
:1027A0000013002BA2D0016851E8001F026821F03D
:1027B000806142E80013002BD6D197E7FFF758BBA2
:1027C000B0F85C100268D0F88030222B40F0A48072
:1027D000526A436D11401970416D01314165B0F885
:1027E0005A100139A0F85A10B0F85A10002918BF31
:1027F0007047016851E8001F026821F4907142E8B7
:102800000013FBB1016851E8001F026821F49071C8
:1028100042E80013002B1FBF016851E8001F026847
:1028200021F490711CBF42E80013002B0AD001680C
:1028300051E8001F026821F4907142E80013002B58
:10284000D7D100BF016851E8021F026821F00101E1
:1028500042E80213F3B1016851E8021F026821F057
:10286000010142E80213002B1FBF016851E8021F5B
:10287000026821F001011CBF42E80213002B09D0BD
:10288000016851E8021F026821F0010142E80213C9
:10289000002BD7D12021C0F880100021816641662D
:1028A0000168496809023DD4016E012964D1002103
:1028B0000166016851E8001F026821F0100142E83A
:1028C0000013F3B1016851E8001F026821F0100104
:1028D00042E80013002B1FBF016851E8001F026887
:1028E00021F010011CBF42E80013002B09D0016841
:1028F00051E8001F026821F0100142E80013002B8C
:10290000D7D10168CA69D20601D510220A62B0F88F
:102910005810FEF7B9BE00BF906940F00800906102
:10292000704700BF016851E8001F026821F0806114
:1029300042E80013002BB7D0016851E8001F02687D
:1029400021F0806142E80013002B1FBF016851E8AD
:10295000001F026821F080611CBF42E80013002BB9
:10296000A2D0016851E8001F026821F0806142E8AE
:102970000013002BD6D197E7FFF77ABA00000000CA
:1029800070B506460168806846F6F315D6E903324D
:1029900002437069D6F81CC00C68CEF6FF75104370
:1029A00004EA0502104340EA0C000860486820F47D
:1029B000405018434860B06947F2FF73326AC4F26E
:1029C000000310438A6822F43062994240EA020010
:1029D0004FF01002886019DC44F6FF30C4F20000AA
:1029E00081422DDC44F20040C4F2000081424DD00F
:1029F00044F60000C4F20000814271D143F6900019
:102A0000C4F202000068010956E000BF40F6FF7002
:102A1000C4F20100814227DC47F60000C4F2000046
:102A200081423BD047F60040C4F20000814257D1BA
:102A300043F69000C4F202000068810B3CE000BF46
:102A400044F60040C4F2000081422FD045F200005D
:102A5000C4F20000814243D143F69000C4F2020068
:102A60000068010A28E000BF41F20040C4F2010002
:102A7000814227D041F20000C4F2010081422FD1EF
:102A800043F69000C4F20200016821E043F6900092
:102A9000C4F20200006881080EE000BF43F6900017
:102AA000C4F202000068010B06E000BF43F690008C
:102AB000C4F20200006881094DF2E422C0F600026F
:102AC0000AE000BF43F69000C4F202000068810AE9
:102AD0004DF2D422C0F6000201F0030052F820208B
:102AE00042F20040BCF5004FC0F2F4000ED1082ABB
:102AF0004FF0010122D8DFE802F0051929211D213C
:102B000021212700FEF76CFB00BB16E0082A4FF0DE
:102B1000010113D8DFE802F0062E38123212121229
:102B2000360000BFFEF75CFB70BB3AE0FEF76CFBC3
:102B300060B902E0FEF77CFB40B900210020C6E945
:102B40001A00084670BD00BF4FF4004071684A0883
:102B500002EB40004FF6EF72B0FBF1F0A0F1100174
:102B6000914225D84FF6F0710140C0F3420008446D
:102B700015E000BFFEF748FB30B912E0FEF758FB46
:102B800010B90EE04FF4004071684FF6EF7200EBA1
:102B90005100B0FBF1F0A0F11001914208D831686A
:102BA000C86000210020C6E91A00084670BD00BFB9
:102BB00001210020C6E91A00084670BD000000008F
:102BC0004165A0F85820A0F85A200022816882664A
:102BD00051B1B1F1805F0BD0B1F5805F0CD10169CB
:102BE00021B940F2FF110AE0016939B9FF2106E07D
:102BF000016919B13F2102E0002100E07F21A0F826
:102C00005C100021C0F884102221C0F880100168F7
:102C100051E8021F026841F0010142E80213F3B1DA
:102C2000016851E8021F026841F0010142E8021305
:102C3000002B1FBF016851E8021F026841F001012B
:102C40001CBF42E80213002B09D0016851E8021FA3
:102C5000026841F0010142E80213002BD7D18168DC
:102C6000B1F5805F016907D1B1B342F2C171C0F61D
:102C70000001816606E000BF42F2C172C0F60002A8
:102C8000826671B3016851E8001F026841F49071D7
:102C900042E80013002B4CD0016851E8001F026885
:102CA00041F4907142E80013002B1FBF016851E806
:102CB000001F026841F490711CBF42E80013002B12
:102CC00037D0016851E8001F026841F4907142E872
:102CD0000013002BD6D12CE042F20961C0F60001AE
:102CE0008166016851E8001F026841F0200142E856
:102CF0000013F3B1016851E8001F026841F02001A0
:102D000042E80013002B1FBF016851E8001F026852
:102D100041F020011CBF42E80013002B09D00168DC
:102D200051E8001F026841F0200142E80013002B27
:102D3000D7D10020704700002DE9F041804600689F
:102D40000D46C7693940491BB1FA81F149099142E1
:102D500025D1069C34B31646611C29D1C16929408E
:102D6000491BB1FA81F14909B14218D1C169294021
:102D7000491BB1FA81F14909B14201BFC16929403A
:102D8000491BB1FA81F104BF4909B14207D1C169B8
:102D90002940491BB1FA81F14909B142DED0002036
:102DA000BDE8F081FDF7E0FC0320BDE8F08100BF45
:102DB0001F4607E0C0692840401BB0FA80F0400978
:102DC000B042ECD1FDF7D0FCC01BA04200F2B680AF
:102DD000D8F8000001684907ECD5402D18BF802DB8
:102DE000E8D0C169090700F1AD80C1690905E1D5E5
:102DF0004FF400610162D8F8000050E8000FD8F8E5
:102E0000001020F4907041E8000222B3D8F80000CE
:102E100050E8000FD8F8001020F4907041E800024C
:102E2000002A1FBFD8F8000050E8000FD8F80010A3
:102E300020F490701CBF41E80002002A0BD0D8F8A3
:102E4000000050E8000FD8F8001020F4907041E81E
:102E50000002002ACFD1D8F8000050E8020FD8F8BD
:102E6000001020F0010041E8020222B3D8F800006F
:102E700050E8020FD8F8001020F0010041E80202EB
:102E8000002A1FBFD8F8000050E8020FD8F8001041
:102E900020F001001CBF41E80202002A0BD0D8F844
:102EA000000050E8020FD8F8001020F0010041E8BF
:102EB0000202002ACFD1D8F8600001282FD1D8F81B
:102EC000000050E8000FD8F8001020F0100041E892
:102ED000000222B3D8F8000050E8000FD8F8001024
:102EE00020F0100041E80002002A1FBFD8F80000BF
:102EF00050E8000FD8F8001020F010001CBF41E887
:102F00000002002A0BD0D8F8000050E8000FD8F8D3
:102F1000001020F0100041E80002002ACFD120204C
:102F2000C8F880000021C8F86010C8F86810C8F818
:102F30008400032088F87810BDE8F0810320BDE804
:102F4000F08100BF08210162D8F8000050E8000FAE
:102F5000D8F8001020F4907041E8000222B3D8F8AD
:102F6000000050E8000FD8F8001020F4907041E8FD
:102F70000002002A1FBFD8F8000050E8000FD8F860
:102F8000001020F490701CBF41E80002002A0BD012
:102F9000D8F8000050E8000FD8F8001020F4907026
:102FA00041E80002002ACFD1D8F8000050E8020F13
:102FB000D8F8001020F0010041E8020222B3D8F84E
:102FC000000050E8020FD8F8001020F0010041E89E
:102FD0000202002A1FBFD8F8000050E8020FD8F8FC
:102FE000001020F001001CBF41E80202002A0BD0B3
:102FF000D8F8000050E8020FD8F8001020F00100C7
:1030000041E80202002ACFD1D8F8600001282FD170
:10301000D8F8000050E8000FD8F8001020F0100099
:1030200041E8000222B3D8F8000050E8000FD8F8B9
:10303000001020F0100041E80002002A1FBFD8F85D
:10304000000050E8000FD8F8001020F010001CBF5E
:1030500041E80002002A0BD0D8F8000050E8000F29
:10306000D8F8001020F0100041E80002002ACFD16B
:103070002020C8F880000020C8F86000C8F8680068
:103080000821C8F8841088F878000120BDE8F08194
:1030900041F64810C2F20000FEF702BB000000003B
:1030A000FEE70000000000004169C078087070472A
:1030B000F0B5ABB002AC8C21201D00272A972997D0
:1030C000FDF700F94FF4001002902046FDF794FC44
:1030D00043F630060024C4F20206C4F2020426AD10
:1030E0003068294640F001003060306800F001008F
:1030F000019001984FF40070CDE9260720462897EB
:10310000FDF756FA4FF4C050269002202946CDE92B
:103110002707032029900A202A902046FDF748FA25
:103120007068062140F0800070607068002200F036
:10313000800001900198706940F48040706170696E
:1031400000F48040009000984320FDF7D9FB432015
:10315000FDF7C2FB2BB0F0BD2DE9F04F84B040F677
:10316000F8420D46C2F20002002702EBC1060395A9
:103170007378F78003EB430302EBC30EF34600EBD7
:10318000411303F5A0625BF8804F14F48021009195
:103190000DD04DF6FF76D0F8087406EA144467F3B4
:1031A0004D3484F40054ABF80240DBF8004024F0C6
:1031B00000441460BEF89410BBF900A00026CDE9CD
:1031C000011359B157460B466FF3DF27CC19013C69
:1031D000B4FBF7F41FFA84F903E000BF4FF00109D4
:1031E00000239EF88A404FF498084D466FF39F29BC
:1031F000C4F3011708EA04444FEA477CB4F590048D
:10320000A7F103074CEAC94118BF0124B7FA87F7B1
:10321000BAF1000F48BF01267F09194427430EF178
:10322000880457EA060A08BF01F10041DDF808C02A
:10323000CCF810159EF88A10BBF80030BEF88870E4
:1032400013F4F04F47EA014601F0BF018EF88A10EF
:103250000CD0C6F30151EB074FF6FF7318BF81F096
:103260000201C0F28F030F051E4007E04FF6FF7109
:10327000C0F28F0106EA01074FF4001647EA060183
:103280002180090CA1705EF8841FCCF804154FF062
:10329000FF31CCF80815816CBBF9001000290DD462
:1032A000BEF9021040F2F944BAF1000F18BF40F223
:1032B000D944002948BF40F2F94401E040F2B95432
:1032C000CCF80C450121039B9940D0F818341943E0
:1032D000C0F81814BBF90010B1F1FF3F12DD1168FE
:1032E000019B41F000411160D3B1009A4FF0806121
:1032F000002A00F1180208BF20210EE0C16AC1F3C4
:10330000074141B911684903F8D5D0F81014C1F349
:1033100006410029F6D04FF00041106808431060C4
:1033200004B0BDE8F08F00002DE9F0418AB0C1780B
:10333000C1B14DF2C0404DF23B51C0F60000C0F6A5
:1033400000014FF4A27209F04FFD4EF6F050CEF29C
:1033500000000068C00700F0808000BE0AB0BDE831
:10336000F08100BF047840F29018C2F20008806833
:10337000671F808808EBC705A97A884232D12E469C
:10338000204616F8091F07F03FFF80B108EB071031
:10339000317800F1100200200090012301902046B6
:1033A00007F0B2FFB8B93178204607F08DFF4DF233
:1033B000C0404DF23B51C0F60000C0F6000140F2A3
:1033C0004D1209F011FD4EF6F050CEF200000068EB
:1033D000C00700D000BE297A20460AB0BDE8F041FF
:1033E00007F0DEBD0121232251FA80F0C1B28142F3
:1033F0004FF0030018BF20228DF821000820ADF8FF
:1034000022000020ADF8241008A9CDE9041043F2F1
:103410002931ADF82600CDF80900C0F6000103906F
:10342000CDE9061002A88DF820208DF8084006F09E
:1034300027FA90B94DF2C0404DF22651C0F6000077
:10344000C0F60001932209F0CFFC4EF6F050CEF208
:1034500000000068C00700D000BE0AB0BDE8F081DF
:1034600080B588B0C17899B14DF2C04029A1C0F6AD
:10347000000040F2311209F0B7FC4EF6F050CEF2E7
:1034800000000068C00742D000BE08B080BD00BF89
:10349000007840F29012C2F200028DF80000411F45
:1034A00006A802EB011302EBC1019A7D5B7E8A72D2
:1034B000CB7240F22331ADF818100821C0F201019F
:1034C000CDF81A100021ADF81E10CDE9020143F22B
:1034D0002930CDF80110C0F600000191CDE90401BA
:1034E000684606F0CDF990B94DF2C0404DF2265134
:1034F000C0F60000C0F60001932209F075FC4EF6FC
:10350000F050CEF200000068C00700D000BE08B046
:1035100080BD00BF636F6E6669675F7365745F70BF
:103520006F72745F706F77657200000000000000BA
:10353000B0B55FEA920C00F5805011D01CF0030486
:10354000ACF1010E0ED00B46012C056843F8045B6C
:103550000CD11946F446BEF1030F1FD22FE000BF75
:103560000B462CE0BEF1030F18D228E0022C0368B2
:103570004B6009D101F10803ACF1020C1946BEF110
:10358000030F0BD21BE000BFACF1030C01F10C03E5
:1035900004688C601946BEF1030F10D30B4600BFC0
:1035A000016819600168596001689960ACF1040C08
:1035B00001685FEA0C45D96003F11003F0D112F005
:1035C00003010BD001290068187007D003294FEAC6
:1035D0001021597018BFB0BD000C9870B0BD00002C
:1035E000B0B500EB01309C0800F580502DD014F0F0
:1035F0000305A4F1010C13D09646012D5EF8041BBF
:10360000016061460ED0022D516801602ED1A11ECD
:1036100002F1080EBCF1030F724616D306E000BF9C
:1036200096462146BCF1030F72460ED3724600BF88
:103630001568056055680560956805600439D568AA
:103640000C0402F110020560F2D113F0030308BF6D
:10365000B0BD1178012B07D05578032B41EA052125
:1036600002D1927841EA02410160B0BDE11E02F14F
:103670000C0E95680560BCF1030F7246E5D3D5E7E3
:103680002DE9F04F81B001280FF2F83388BF0020F8
:10369000002440F2000C000140F2000EC4F6547405
:1036A0000D461F584FF6FF73C4F2040CC5F2315E8D
:1036B000386C20EA0306A64218BF764578D1B86870
:1036C00020F00100B860F968A5B11446BA6C02F0A8
:1036D000C0003B6D802803F4404040F0A9804FF6C5
:1036E00027723B46CFF6C57211401031F96053F88E
:1036F000382FB9E041F04000F860B96B674541F4FC
:103700008031B96307D143F65001C4F202010B685E
:1037100023F080430B603969002909D439690029F5
:103720005CBF3969002903D43969B1F1FF3FF2DC8C
:10373000396C4FF6FE73194044F20A2399423969F5
:1037400041F0010139610DD23969C9071DD03969CC
:10375000C9071CBF39695FEAC17116D03969C90749
:10376000F2D112E03969890009D4396989005CBF56
:1037700039695FEA810102D439698900F2D5396972
:1037800041F0005121F0010139613969002909D462
:10379000396900295CBF3969002903D43969B1F15D
:1037A000FF3FF2DC052161F38D20F860B5E000BF3A
:1037B00040F20008C5F2325846453FF480AF4DF262
:1037C000C04093464EF6F05AC0F60000B5A1AD22B7
:1037D000E146CEF2000A09F007FBDAF80000C00764
:1037E00000D000BE40F2000EA642CC46C5F2315ECB
:1037F0005A463FF464AF764518BF46453FF45FAF85
:103800004DF2C040AAA1C0F60000D32209F0ECFAA4
:103810004EF6F05040F2000ECEF20000C5F2315EDE
:10382000CC460068C00700F0178100BE14E100BF5D
:1038300021F05801002818BF0831D2B23B46F96088
:103840003F2A53F8382F0FD8674542F48032BA63C5
:1038500007D143F65002C4F20202136823F08043FA
:103860001360012204E000BF22F480321A600022BB
:103870003B69002B09D43B69002B5CBF3B69002BE3
:1038800003D43B69B3F1FF3FF2DC3B6C4FF6FE75AE
:103890002B4044F20A25AB423B6943F001033B61F4
:1038A0000ED23B69DB071ED03B69DB071CBF3B69BF
:1038B0005FEAC37317D03B69DB07F2D113E000BFA7
:1038C0003B699B0009D43B699B005CBF3B695FEA95
:1038D000830302D43B699B00F2D53B6943F000535C
:1038E00023F001033B613B69002B09D43B69002BAA
:1038F0005CBF3B69002B03D43B69B3F1FF3FF2DCB3
:103900004FF4A053002808BF4FF4105321F4705017
:10391000002A22461844F86063D040F28400C2F2C4
:103920000000016844F2FF70C0F2E810814203D940
:103930004FF4C05050E000BF49F6DF50C0F2A31072
:10394000814203D94FF4E05046E000BF43F2FF50FC
:10395000C0F26E10814203D94FF400503CE000BF2A
:103960004AF23F40C0F24C10814203D94FF410504C
:1039700032E000BF42F6FF40C0F23110814203D96D
:103980004FF4205028E000BF44F69F10C0F21A10F8
:10399000814203D94FF430501EE000BF47F27F3020
:1039A000C0F20610814203D94FF4405014E000BF2A
:1039B00042F2FF30C0F2F400814203D94FF450507C
:1039C0000AE000BF4EF2BF134FF47050C0F2E403A0
:1039D000994288BF4FF46050F96821F47051084350
:1039E000F860F86840F00700F860D7F8000E20F0A3
:1039F0000F00C7F8000E4FF4846038613869800604
:103A000009D53869800644BF38695FEA806002D50D
:103A100038698006F2D4102038613869C00609D5AB
:103A20003869C00644BF38695FEAC06002D53869AA
:103A3000C006F2D44FF0FF30786178604FF000009C
:103A4000B8612AB1B86840F02600B86004E000BF51
:103A5000B86940F01000B861A6EB0C00A6EB0E01AF
:103A6000A0F17560A1F58032B0FA80F0B1FA81F171
:103A70004009B2FA82F2490952090843104301B0E1
:103A8000BDE8F08F00000050430000000600000079
:103A900000050000000004404D0000000900000087
:103AA00000100000636865636B5F64776332000039
:103AB000647763325F636F72655F696E697400007B
:103AC000022901D100207047806C10F0C00018BF9F
:103AD000012070470000000080B501EB410340F673
:103AE000F84CC2F2000C0CEBC30E3EF8882F9EF887
:103AF0000230AEF8002043F080038EF802309CF8CC
:103B000000202AB19CF801208A4201D1002194E0D2
:103B10009CF8082032B19CF809208A4202D1012188
:103B20008BE000BF9CF8102032B19CF811208A4233
:103B300002D1022181E000BF9CF8182032B19CF82C
:103B400019208A4202D1032177E000BF9CF820208F
:103B500032B19CF821208A4202D104216DE000BFDD
:103B60009CF8282032B19CF829208A4202D10521F4
:103B700063E000BF9CF8302032B19CF831208A42CB
:103B800002D1062159E000BF9CF8382032B19CF8E0
:103B900039208A4202D107214FE000BF9CF8402023
:103BA00032B19CF841208A4202D1082145E000BF91
:103BB0009CF8482032B19CF849208A4202D1092160
:103BC0003BE000BF9CF8502032B19CF851208A4263
:103BD00002D10A2131E000BF9CF8582032B19CF894
:103BE00059208A4202D10B2127E000BF9CF86020B7
:103BF00032B19CF861208A4202D10C211DE000BF45
:103C00009CF8682032B19CF869208A4202D10D21CB
:103C100013E000BF9CF8702032B19CF871208A42FA
:103C200002D10E2109E000BF9CF87820002A45D07F
:103C30009CF879208A4241D10F210CEBC10200EBA4
:103C40004111937843F080039370D1F80025836C81
:103C5000520301F5A06211D4C36A13F47F0F21D17E
:103C6000C36A13F47F0F04BFC36A13F47F0F19D123
:103C7000C36A13F47F0FEFD014E000BFD0F8103404
:103C800013F4FE0F0ED1D0F8103413F4FE0F04BF5E
:103C9000D0F8103413F4FE0F04D1D0F8103413F41C
:103CA000FE0FEBD0D1F80C0540F00200C1F80C0576
:103CB000106840F04040106080BD00BFAEF10800C9
:103CC00041886FF3DF31418080BD000000000000BB
:103CD0002DE9F04F87B041F28075411ECFB2C2F29C
:103CE00000052A4641F2A8535E26C2F2000312F8EC
:103CF000081F10FB063653884FF0000B0690052F67
:103D000038BFA6F15E0B99426AD2681840F2D81902
:103D10001A4400F10807C2F200090BF11D000490DB
:103D20000BF115000390059205E000BF3878384488
:103D30009042074654D239787818904250D80029DA
:103D40004ED079780429F3D1D11B99F800008DB2B7
:103D50004FF000084FF0000A0BE000BF99F8000098
:103D60000AF1010A02215FFA8AF851FA80F141450D
:103D700031D9C1B25FFA8AF68E4207D2D9F80C1057
:103D80000029EDD0C8EBC8000BE000BFAAEB000192
:103D9000C9B20129E4D8C1EBC1004DF26C61C0F693
:103DA000000101EB80019BF800003A462B46CC68ED
:103DB0000699A0470928D1D304468542CED30823CB
:103DC0003046DDE903210097019405F0C1FB99F825
:103DD00000002744811C4145059AA7D03846A7E733
:103DE00007B0BDE8F08F000080B582B0019041F6C9
:103DF0004810C2F2000001A901224FF0FF33FEF784
:103E000053F8019802B080BD2DE9F04F83B02C2209
:103E1000002918BF4FF48262044600268058A16C26
:103E2000C1F3833101914FF6FC71C0F2030101EA45
:103E30008001029100F4FE00009004E001988642A7
:103E400006F1010650D004EB4611D1F80075D1F807
:103E50000C0500F0020007F400428018EED140F695
:103E6000F840C2F2000000EBC6004278102A41D2AE
:103E7000D1F81015C1F3C948B8F1000FDED0009990
:103E800000294DD002EB420100F1060A6FF3DF2753
:103E900040F6F840C2F2000000EBC101BAF80000A1
:103EA00001F1940901F1900BB9F80010091A8DB2D3
:103EB000BD4228BF3D460299A94211D3DBF800104C
:103EC0002B4611FA80F22046F1B2FFF789FBBAF8CF
:103ED0000000B8F101082844AAF80000E4D1ADE7D9
:103EE000012003B0BDE8F08F012080F0010003B095
:103EF000BDE8F08F4DF2C0400CA1C0F600004FF4B9
:103F0000607208F071FF4EF6F050CEF200000068CB
:103F1000C00700D000BE002003B0BDE8F08F00BF96
:103F2000002080F0010003B0BDE8F08F68616E648E
:103F30006C655F74786669666F5F656D7074790033
:103F400070B540F6F8460128C2F200060D4688BF5B
:103F50000020B6F88220000113B2B3F1FF3F4DF20A
:103F6000F423C0F600031C5807DCC2F38610A842F5
:103F700003D100212046FFF7AFFDB6F89A0001B249
:103F8000B1F1FF3F07DCC0F38610A84203D1012145
:103F90002046FFF7A1FDB6F8B20001B2B1F1FF3F34
:103FA00007DCC0F38610A84203D102212046FFF7A8
:103FB00093FDB6F8CA0001B2B1F1FF3F07DCC0F3D0
:103FC0008610A84203D103212046FFF785FDB6F8ED
:103FD000E20001B2B1F1FF3F07DCC0F38610A84256
:103FE00003D104212046FFF777FDB6F8FA0001B2AD
:103FF000B1F1FF3F07DCC0F38610A84203D10521D1
:104000002046FFF769FDB6F8120101B2B1F1FF3F9A
:1040100007DCC0F38610A84203D106212046FFF733
:104020005BFDB6F82A0101B2B1F1FF3F07DCC0F336
:104030008610A84203D107212046FFF74DFDB6F8B0
:10404000420101B2B1F1FF3F07DCC0F38610A84284
:1040500003D108212046FFF73FFDB6F85A0101B20F
:10406000B1F1FF3F07DCC0F38610A84203D109215C
:104070002046FFF731FDB6F8720101B2B1F1FF3F02
:1040800007DCC0F38610A84203D10A212046FFF7BF
:1040900023FDB6F88A0101B2B1F1FF3F07DCC0F39E
:1040A0008610A84203D10B212046FFF715FDB6F874
:1040B000A20101B2B1F1FF3F07DCC0F38610A842B4
:1040C00003D10C212046FFF707FDB6F8BA0101B273
:1040D000B1F1FF3F07DCC0F38610A84203D10D21E8
:1040E0002046FFF7F9FCB6F8D20101B2B1F1FF3F6B
:1040F00007DCC0F38610A84203D10E212046FFF74B
:10410000EBFCB6F8EA0101B2B1F1FF3F0ADCC0F303
:104110008610A84218BF70BD0F212046BDE8704030
:10412000FFF7DABC70BD0000F0B540F6F84E01288C
:10413000C2F2000E4FF0000688BF0020BEF88230A9
:1041400002F00F0C0501BEF880001CB2C3F3861309
:10415000002CA3EB010348BF0126B3FA83F3BCF1A3
:10416000000F4FEA531306EA03044DF2F426C0F39E
:10417000C323C0F60006A3EB0C03B3FA83F34FEAA4
:104180005317735904EA070400F01081D209A2EB17
:10419000D030B0FA80F04009044240F05583BEF8B8
:1041A0009A0004B2B4F1FF3F0ADCC0F386108842E3
:1041B00002BFBEF89800C0F3C324644500F00C832E
:1041C000BEF8B20004B2B4F1FF3F0ADCC0F38610BF
:1041D000884202BFBEF8B000C0F3C324644500F0BB
:1041E000FF82BEF8CA0004B2B4F1FF3F0ADCC0F39C
:1041F0008610884202BFBEF8C800C0F3C3246445DD
:1042000000F0F282BEF8E20004B2B4F1FF3F0ADC33
:10421000C0F38610884202BFBEF8E000C0F3C3249A
:10422000644500F0E582BEF8FA0004B2B4F1FF3F45
:104230000ADCC0F38610884202BFBEF8F800C0F363
:10424000C324644500F0D882BEF8120104B2B4F170
:10425000FF3F0ADCC0F38610884202BFBEF810019F
:10426000C0F3C324644500F0CB82BEF82A0104B237
:10427000B4F1FF3F0ADCC0F38610884202BFBEF8EB
:104280002801C0F3C324644500F0BE82BEF8420199
:1042900004B2B4F1FF3F0ADCC0F38610884202BFCB
:1042A000BEF84001C0F3C324644500F0B182BEF8FB
:1042B0005A0104B2B4F1FF3F0ADCC0F38610884211
:1042C00002BFBEF85801C0F3C324644500F0A482C5
:1042D000BEF8720104B2B4F1FF3F0ADCC0F38610ED
:1042E000884202BFBEF87001C0F3C324644500F0E9
:1042F0009782BEF88A0104B2B4F1FF3F0ADCC0F332
:104300008610884202BFBEF88801C0F3C32464450A
:1043100000F08A82BEF8A20104B2B4F1FF3F0ADCC9
:10432000C0F38610884202BFBEF8A001C0F3C324C8
:10433000644500F07D82BEF8BA0104B2B4F1FF3FDB
:104340000ADCC0F38610884202BFBEF8B801C0F391
:10435000C324644500F07082BEF8D20104B2B4F107
:10436000FF3F0ADCC0F38610884202BFBEF8D001CE
:10437000C0F3C324644500F06382BEF8EA4120B272
:10438000B0F1FF3F4FF0000000F30184C4F3861446
:104390008C4240F0FC83BEF8E841C4F3C325654578
:1043A00004BFE40B944240F0F2834DE2002C40F055
:1043B000FC80BEF89A0002B2B2F1FF3F0ADCC0F303
:1043C0008610884206D1BEF89800C0F3C32060452D
:1043D00000F0EB80BEF8B20002B2B2F1FF3F0ADC9F
:1043E000C0F38610884206D1BEF8B000C0F3C320E7
:1043F000604500F0DA80BEF8CA0002B2B2F1FF3FB9
:104400000ADCC0F38610884206D1BEF8C800C0F3AB
:10441000C320604500F0C980BEF8E20002B2B2F1EC
:10442000FF3F0ADCC0F38610884206D1BEF8E000E8
:10443000C0F3C320604500F0B880BEF8FA0002B2B5
:10444000B2F1FF3F0ADCC0F38610884206D1BEF805
:10445000F800C0F3C320604500F0A780BEF8120149
:1044600002B2B2F1FF3F0ADCC0F38610884206D1E7
:10447000BEF81001C0F3C320604500F09680BEF87E
:104480002A0102B2B2F1FF3F0ADCC0F38610884273
:1044900006D1BEF82801C0F3C320604500F0858036
:1044A000BEF8420102B2B2F1FF3F09DCC0F3861050
:1044B000884205D1BEF84001C0F3C320604574D0E6
:1044C000BEF85A0102B2B2F1FF3F09DCC0F3861018
:1044D000884205D1BEF85801C0F3C320604564D0BE
:1044E000BEF8720102B2B2F1FF3F09DCC0F38610E0
:1044F000884205D1BEF87001C0F3C320604554D096
:10450000BEF88A0102B2B2F1FF3F09DCC0F38610A7
:10451000884205D1BEF88801C0F3C320604544D06D
:10452000BEF8A20102B2B2F1FF3F09DCC0F386106F
:10453000884205D1BEF8A001C0F3C320604534D045
:10454000BEF8BA0102B2B2F1FF3F09DCC0F3861037
:10455000884205D1BEF8B801C0F3C320604524D01D
:10456000BEF8D20102B2B2F1FF3F09DCC0F38610FF
:10457000884205D1BEF8D001C0F3C320604514D0F5
:10458000BEF8EA2110B2B0F1FF3F4FF0000000F397
:10459000FE82C2F386128A4240F0F982BEF8E82118
:1045A000C2F3C322624540F0F282986C9EF800206C
:1045B00052B1D3F80025C2F386548C4204D1C2F321
:1045C000C322624500F08C82C0F38330002800F0E3
:1045D00085829EF8082052B1D3F82025C2F3865474
:1045E0008C4204D1C2F3C322624500F07B820128D1
:1045F00000F074829EF8102052B1D3F84025C2F327
:1046000086548C4204D1C2F3C322624500F06C820E
:10461000022800F063829EF8182052B1D3F860257A
:10462000C2F386548C4204D1C2F3C322624500F027
:104630005D82032800F052829EF8202052B1D3F808
:104640008025C2F386548C4204D1C2F3C322624552
:1046500000F04E82042800F041829EF8282052B1DA
:10466000D3F8A025C2F386548C4204D1C2F3C322EE
:10467000624500F03F82052800F030829EF830202D
:1046800052B1D3F8C025C2F386548C4204D1C2F390
:10469000C322624500F03082062800F01F829EF897
:1046A000382052B1D3F8E025C2F386548C4204D1AD
:1046B000C2F3C322624500F02182072800F00E8277
:1046C0009EF8402052B1D3F80026C2F386548C42A3
:1046D00004D1C2F3C322624500F01282082800F020
:1046E000FD819EF8482052B1D3F82026C2F38654AB
:1046F0008C4204D1C2F3C322624500F00382092830
:1047000000F0EC819EF8502052B1D3F84026C2F35D
:1047100086548C4204D1C2F3C322624500F0F48176
:104720000A2800F0DB819EF8582052B1D3F86026A9
:10473000C2F386548C4204D1C2F3C322624500F016
:10474000E5810B2800F0CA819EF8602052B1D3F8B1
:104750008026C2F386548C4204D1C2F3C322624540
:1047600000F0D6810C2800F0B9819EF8682052B183
:10477000D3F8A026C2F386548C4204D1C2F3C322DC
:10478000624500F0C7810D2800F0A8819EF87020D6
:1047900052B1D3F8C026C2F386548C4204D1C2F37E
:1047A000C322624500F0B8810E2800F097819EF880
:1047B0007800002800F09281D3F8E026C2F38650FA
:1047C00088424FF0010040F0E281C2F3C32161450D
:1047D00018BFF0BD7FE100BFC00B904234D0EFE4C2
:1047E000C00B904230D0FCE4C00B90422CD009E5C5
:1047F000C00B904228D016E5C00B904224D023E590
:10480000C00B904220D030E5C00B90421CD03DE55B
:10481000C00B904218D04AE5C00B904214D057E527
:10482000C00B904210D064E5C00B90420CD071E5F3
:10483000C00B904208D07EE5C00B904204D08BE5BF
:10484000C00B90427FF499AD986C9EF8004074B113
:10485000D3F80045C4F386558D4208D1C4F3C3256F
:10486000654504BFC4F3C034944200F03981C0F3FD
:104870008330002800F032819EF8084074B1D3F8EC
:104880002045C4F386558D4208D1C4F3C325654540
:1048900004BFC4F3C034944200F02481012800F026
:1048A0001D819EF8104074B1D3F84045C4F386557D
:1048B0008D4208D1C4F3C325654504BFC4F3C03499
:1048C000944200F01181022800F008819EF81840FF
:1048D00074B1D3F86045C4F386558D4208D1C4F352
:1048E000C325654504BFC4F3C034944200F0FE8084
:1048F000032800F0F3809EF8204074B1D3F880457F
:10490000C4F386558D4208D1C4F3C325654504BF61
:10491000C4F3C034944200F0EB80042800F0DE8041
:104920009EF8284074B1D3F8A045C4F386558D4253
:1049300008D1C4F3C325654504BFC4F3C034944211
:1049400000F0D880052800F0C9809EF8304074B18E
:10495000D3F8C045C4F386558D4208D1C4F3C325AE
:10496000654504BFC4F3C034944200F0C5800628F6
:1049700000F0B4809EF8384074B1D3F8E045C4F339
:1049800086558D4208D1C4F3C325654504BFC4F3E1
:10499000C034944200F0B280072800F09F809EF857
:1049A000404074B1D3F80046C4F386558D4208D117
:1049B000C4F3C325654504BFC4F3C034944200F07A
:1049C0009F80082800F08A809EF8484074B1D3F890
:1049D0002046C4F386558D4208D1C4F3C3256545EE
:1049E00004BFC4F3C034944200F08C80092875D011
:1049F0009EF8504074B1D3F84046C4F386558D42BA
:104A000008D1C4F3C325654504BFC4F3C034944240
:104A100000F07A800A2861D09EF858406CB1D3F833
:104A20006046C4F386558D4207D1C4F3C32565455E
:104A300004BFC4F3C034944268D00B284ED09EF813
:104A400060406CB1D3F88046C4F386558D4207D1DF
:104A5000C4F3C325654504BFC4F3C034944257D0A2
:104A60000C283BD09EF868406CB1D3F8A046C4F344
:104A700086558D4207D1C4F3C325654504BFC4F3F1
:104A8000C034944246D00D2828D09EF870406CB1B6
:104A9000D3F8C046C4F386558D4207D1C4F3C3256D
:104AA000654504BFC4F3C034944235D00E2815D0F8
:104AB0009EF8780090B1D3F8E046C4F3865088425F
:104AC0004FF0010063D1C4F3C321614504BFC4F3B7
:104AD000C03191425BD10F201FE000BF0120F0BD2B
:104AE00000201AE0012018E0022016E0032014E064
:104AF000042012E0052010E006200EE007200CE064
:104B000008200AE0092008E00A2006E00B2004E063
:104B10000C2002E00D2000E00E2003EB4010D0F846
:104B200000159A6C490300F5A06111D4DA6A12F4F9
:104B30007F0F21D1DA6A12F47F0F04BFDA6A12F410
:104B40007F0F19D1DA6A12F47F0FEFD014E000BFA3
:104B5000D3F8102412F4FE0F0ED1D3F8102412F45F
:104B6000FE0F04BFD3F8102412F4FE0F04D1D3F8C3
:104B7000102412F4FE0FEBD0D0F80C2542F0020204
:104B8000C0F80C25086840F0404008600120F0BDE6
:104B9000F0B581B001284DF2F42388BF0020C0F6A3
:104BA0000003144600010D461858D0F84004C0F325
:104BB000414003280AD14EF6F050CEF200000068C2
:104BC000C00700D000BE002703E000BFB0FA80F0AD
:104BD00047096946284604F023FE40F6F840C2F231
:104BE0000000B0F98210B1F1FF3F4FF0000103DD8A
:104BF00000F18002002394E0B0F99A20B2F1FF3F67
:104C000004DD00F1980201238BE000BFB0F9B2206F
:104C1000B2F1FF3F04DD00F1B002022381E000BFEA
:104C2000B0F9CA20B2F1FF3F04DD00F1C80203234E
:104C300077E000BFB0F9E220B2F1FF3F04DD00F100
:104C4000E00204236DE000BFB0F9FA20B2F1FF3FAB
:104C500004DD00F1F802052363E000BFB0F9122182
:104C6000B2F1FF3F04DD00F58872062359E000BF72
:104C7000B0F92A21B2F1FF3F04DD00F59472072359
:104C80004FE000BFB0F94221B2F1FF3F04DD00F573
:104C9000A072082345E000BFB0F95A21B2F1FF3FEE
:104CA00004DD00F5AC7209233BE000BFB0F97221CE
:104CB000B2F1FF3F04DD00F5B8720A2331E000BF16
:104CC000B0F98A21B2F1FF3F04DD00F5C4720B2375
:104CD00027E000BFB0F9A221B2F1FF3F04DD00F5EB
:104CE000D0720C231DE000BFB0F9BA21B2F1FF3F32
:104CF00004DD00F5DC720D2313E000BFB0F9D22112
:104D0000B2F1FF3F04DD00F5E8720E2309E000BFB9
:104D1000B0F9EA21B2F1FF3F40F3AE8000F5F47242
:104D20000F2303EB4303C2E90011C2E90211C2E9F8
:104D3000041100EBC3014FF400405080A088B1F88B
:104D40008020B1F8826060F30A02A1F88020A07888
:104D500022F4F04200F00F0042EAC020A1F88000E7
:104D6000A3789DF80320DB0963F3DF30531EB3FA09
:104D700083F3A1F880005B0926F002009DF8016032
:104D800040EA4300A1F88200E37800F0030065F3F5
:104D90008C1047F6FE7503F0030340EA83009DF88C
:104DA000023000F50040A1F8820003F07F00B1F866
:104DB000863066F3CD10961E18BF01262B40002FBB
:104DC000A1F8840002F0030718BF43EAC633A1F834
:104DD000863031F8880F8B78088040EA034323F44B
:104DE000701343EA87431F0C8F70E07800F00300D4
:104DF000032817D001283BD1A07903F44C03002AE3
:104E0000A0F101074FF0010000FA07F60E806FF3E2
:104E10009F4606EB03074FEA17428A701ED001B087
:104E2000F0BD00BFA079022A0ED1421E012000FA77
:104E300002F203F44C0302F440370A803B441A0C9C
:104E40008A7001B0F0BD00BF03F44C02C0000880BE
:104E5000100C8870012001B0F0BD00BF4FF6F87053
:104E6000C0F2030000EAC60018430880000C8870F6
:104E7000012001B0F0BD00BF4DF2C04008A1C0F656
:104E8000000040F20B2207F0AFFF4EF6F050CEF2DA
:104E900000000068C00700D000BE002001B0F0BDD7
:104EA0006863645F656470745F6F70656E000000B6
:104EB000F0B581B040F6F84C0128C2F2000C02F0C7
:104EC0000F0E88BF0020BCF882500027BCF880403D
:104ED000D2092EB2C5F38615002EC4F3C326A5EB66
:104EE0000105B5FA85F5A6EB0E0648BF0127B6FA0F
:104EF00086F66D093D407609BEF1000F05EA06050C
:104F000000F04A81A2EBD436B6FA86F6760935422D
:104F100040F04381BCF89A4025B2B5F1FF3F0DDC6B
:104F2000C4F386148C4209D1BCF89840C4F3C3255D
:104F3000754504BFE50B954200F04281BCF8B240D4
:104F400025B2B5F1FF3F0DDCC4F386148C4209D1C4
:104F5000BCF8B040C4F3C325754504BFE50B9542CA
:104F600000F04081BCF8CA4025B2B5F1FF3F0DDC2E
:104F7000C4F386148C4209D1BCF8C840C4F3C325DD
:104F8000754504BFE50B954200F03E81BCF8E24058
:104F900025B2B5F1FF3F0DDCC4F386148C4209D174
:104FA000BCF8E040C4F3C325754504BFE50B95424A
:104FB00000F03C81BCF8FA4025B2B5F1FF3F0DDCB2
:104FC000C4F386148C4209D1BCF8F840C4F3C3255D
:104FD000754504BFE50B954200F03A81BCF81241DB
:104FE00025B2B5F1FF3F0DDCC4F386148C4209D124
:104FF000BCF81041C4F3C325754504BFE50B9542C9
:1050000000F03881BCF82A4125B2B5F1FF3F0DDC34
:10501000C4F386148C4209D1BCF82841C4F3C325DB
:10502000754504BFE50B954200F03681BCF842415E
:1050300025B2B5F1FF3F0DDCC4F386148C4209D1D3
:10504000BCF84041C4F3C325754504BFE50B954248
:1050500000F03481BCF85A4125B2B5F1FF3F0DDCB8
:10506000C4F386148C4209D1BCF85841C4F3C3255B
:10507000754504BFE50B954200F03281BCF87241E2
:1050800025B2B5F1FF3F0DDCC4F386148C4209D183
:10509000BCF87041C4F3C325754504BFE50B9542C8
:1050A00000F03681BCF88A4125B2B5F1FF3F0DDC36
:1050B000C4F386148C4209D1BCF88841C4F3C325DB
:1050C000754504BFE50B954200F03481BCF8A24160
:1050D00025B2B5F1FF3F0DDCC4F386148C4209D133
:1050E000BCF8A041C4F3C325754504BFE50B954248
:1050F00000F03281BCF8BA4125B2B5F1FF3F0DDCBA
:10510000C4F386148C4209D1BCF8B841C4F3C3255A
:10511000754504BFE50B954200F03081BCF8D241E3
:1051200025B2B5F1FF3F0DDCC4F386148C4209D1E2
:10513000BCF8D041C4F3C325754504BFE50B9542C7
:1051400000F02E81BCF8EA4125B2B5F1FF3F0DDC3D
:10515000C4F386148C4209D1BCF8E841C4F3C321DE
:10516000714504BFE10B914200F02F814DF2C04028
:105170000FF21C41C0F6000040F2C52207F034FED9
:105180004EF6F050CEF200000068C00740F0AA8052
:105190000024204601B0F0BD15B1002516E100BF86
:1051A000BCF89A4025B2B5F1FF3F0BDCC4F386147E
:1051B0008C4207D1BCF89840C4F3C325754501D192
:1051C000012503E1BCF8B24025B2B5F1FF3F0BDC8D
:1051D000C4F386148C4207D1BCF8B040C4F3C32595
:1051E000754501D10225F1E0BCF8CA4025B2B5F100
:1051F000FF3F0BDCC4F386148C4207D1BCF8C840D7
:10520000C4F3C325754501D10325DFE0BCF8E240B6
:1052100025B2B5F1FF3F0BDCC4F386148C4207D1F5
:10522000BCF8E040C4F3C325754501D10425CDE0A9
:10523000BCF8FA4025B2B5F1FF3F0BDCC4F386148D
:105240008C4207D1BCF8F840C4F3C325754501D1A1
:105250000525BBE0BCF8124125B2B5F1FF3F0BDCE0
:10526000C4F386148C4207D1BCF81041C4F3C325A3
:10527000754501D10625A9E0BCF82A4125B2B5F152
:10528000FF3F0BDCC4F386148C4207D1BCF82841E5
:10529000C4F3C325754501D1072597E0BCF8424109
:1052A00025B2B5F1FF3F0BDCC4F386148C4207D165
:1052B000BCF84041C4F3C325754501D1082585E0FC
:1052C000BCF85A4125B2B5F1FF3F11DCC4F3861496
:1052D0008C420DD1BCF85841C4F3C325754507D1A4
:1052E000092573E000BE0024204601B0F0BD00BFD8
:1052F000BCF8724125B2B5F1FF3F0BDCC4F3861454
:105300008C4207D1BCF87041C4F3C325754501D167
:105310000A255BE0BCF88A4125B2B5F1FF3F0BDC02
:10532000C4F386148C4207D1BCF88841C4F3C3256A
:10533000754501D10B2549E0BCF8A24125B2B5F174
:10534000FF3F0BDCC4F386148C4207D1BCF8A041AC
:10535000C4F3C325754501D10C2537E0BCF8BA412B
:1053600025B2B5F1FF3F0BDCC4F386148C4207D1A4
:10537000BCF8B841C4F3C325754501D10D2525E01E
:10538000BCF8D24125B2B5F1FF3F0BDCC4F3861463
:105390008C4207D1BCF8D041C4F3C325754501D177
:1053A0000E2513E0BCF8EA4125B2B5F1FF3F3FF707
:1053B000DDAEC4F386148C427FF4D8AEBCF8E8416D
:1053C000C4F3C32171457FF4D1AE0F2505EB450130
:1053D0000CEBC10191F98A60B1F8887047EA064682
:1053E000002E00F19C804DF2F4270001C0F600076A
:1053F000BEF1000F069EC1F890303858A1F89460B5
:1054000005D16FF3DF34803144EAC2320A80816C07
:105410009CF80020002A4FF0000200F08580C1F3C4
:105420008331002968D0634613F8087F002F00F00D
:105430008580012960D0634613F8107F002F00F0AB
:105440007F80022958D0634613F8187F002F79D047
:10545000032951D0634613F8207F002F74D004290C
:105460004AD0634613F8287F002F6FD0052943D018
:10547000634613F8307F002F6AD006293CD063467C
:1054800013F8387F002F65D0072935D0634613F80D
:10549000407F002F60D008292ED0634613F8487F44
:1054A000002F5BD0092927D0634613F8507F002FC7
:1054B00056D00A2920D0634613F8587F002F51D0C8
:1054C0000B2919D0634613F8607F002F4CD00C29AC
:1054D00012D0634613F8687F002F47D00D290BD0F8
:1054E000634613F8707F002F42D00E2904D0634624
:1054F00013F8781F00293DD04DF2C0404DF22461D1
:10550000C0F60000C0F6000140F2B72207F06CFCC4
:105510004EF6F050CEF200000068C00708D100241B
:10552000204601B0F0BD00BF0021634623E000BF6C
:10553000002400BE204601B0F0BD00BF01211AE0EA
:10554000022118E0032116E0042114E0052112E0F5
:10555000062110E007210EE008210CE009210AE0F5
:105560000A2108E00B2106E00C2104E00D2102E0F5
:105570000E2100E00F210CEBC10701241C605A60D2
:1055800004227D70FA70FDF7E7FD204601B0F0BD02
:105590006863645F656470745F78666572000000BC
:1055A000B0B582B0054640780C46012802D829796A
:1055B000002941D040F2D810C2F200004068DCB1AE
:1055C0000021019101AA0023294606F079FE0199E4
:1055D00051B14EF604514FF08052CEF200010A60F4
:1055E000BFF34F8FBFF36F8F70B128782246697871
:1055F00004F0DAFB2CE000BF4FF0FF320023294615
:1056000006F036FD0028F0D14DF2C0404DF20B619E
:10561000C0F60000C0F6000140F24B1207F0E4FBB8
:105620004EF60450CEF20000D0F8EC00C0070FD0C8
:1056300000BE02B0B0BD00BF40F20C0C2B78C2F22D
:10564000000C012101FA03F39CF80220134201D05F
:1056500002B0B0BD0028ADD142EA03008CF80200D0
:10566000A8E7000000000000F0B581B00646012860
:1056700088BF00204DF2F4274FF400710001C0F6FE
:1056800000073C5840F6F840C2F20000FAF71AFE54
:1056900002212046FEF714FA0146A06C0022304693
:1056A000FDF7EEFF0546002852D0D4F8000442F67C
:1056B0002A1120F00400C4F80004206CC4F65471D0
:1056C000884205D3D4F8040440F48030C4F80404BC
:1056D000E068012161F35E70E0606069C00709D194
:1056E0006069C00704BF60695FEAC07002D1606989
:1056F000C007F2D007EB0610A76CA16C0221C668A8
:105700002046FEF7DDF98422002818BF4FF401720D
:1057100020210028C7F3833018BF4FF48071C6F3EF
:105720008F0310444218934226D24DF2C04026A166
:10573000C0F6000040F2751207F056FB4EF6F0502E
:10574000CEF200000068C00722D000BE20E000BFFB
:105750004DF2C04019A1C0F6000040F29B1207F0C4
:1057600043FB4EF6F050CEF200000068C00700D0B8
:1057700000BE284601B0F0BDB708BA1A43EA074395
:10578000E3656062C2EA0140A0621004C4F800014F
:10579000AE20C4F840044FF48050C4F84004A0691F
:1057A00040F04C5040F00400A061A06840F00100BF
:1057B00020F08000A060284601B0F0BD6863645FFF
:1057C000696E697400000000646669666F5F686FE7
:1057D00073745F696E697400012888BF70474DF269
:1057E000F4214EF20013C0F60001CEF2000301EBEB
:1057F00000101C21406800F01F0201EAD0000121C6
:105800009140C150704700002DE9F04F8DB0012844
:10581000024602904DF2F42288BF0020C0F600023A
:1058200000011658B069726902EA000804915FEA43
:10583000C80002D54FF0805070615FEA087040F1F7
:10584000198108207061D6F84004C0F34140032854
:105850000AD14EF6F050CEF200000068C00700D02A
:1058600000BE082506E000BF4DF2B021C0F60001E1
:1058700051F8205040F6F84A4FF0000BC2F2000AEF
:105880004FF000090AF18C07002408E03D60012474
:1058900009F101091837B9F1100F00F0E58017F987
:1058A000020C37F8041C41EA00400028F0D437F914
:1058B0000A0CB0F1FF3FEBDC17F80A0C4007E7D504
:1058C00038680028E4D0401B38BF58463860DED81E
:1058D000B06C9AF80010002900F08A80C0F3833180
:1058E00000296FD0504610F8082F002A00F084805D
:1058F000012967D0504610F8102F002A00F07E8052
:1059000002295FD0504610F8182F002A78D00329BA
:1059100058D0504610F8202F002A73D0042951D0B7
:10592000504610F8282F002A6ED005294AD050463C
:1059300010F8302F002A69D0062943D0504610F8BD
:10594000382F002A64D007293CD0504610F8402F49
:10595000002A5FD0082935D05046334610F8482F2A
:10596000002A59D009291E462CD0504610F8502F35
:10597000002A55D00A291E4624D0504610F8582F28
:10598000002A51D00B291E461CD0504610F8602F1B
:10599000002A4DD00C291E4614D0504610F8682F0E
:1059A000002A49D00D291E460CD0504610F8702F01
:1059B000002A45D00E291E4604D0504610F8781F04
:1059C000002941D04DF2C0404DF2246140F2B7228F
:1059D000C0F60000C0F6000107F006FA4EF6F050DF
:1059E000CEF200000068C0073FF450AF00BE4DE7A4
:1059F0000021504629E000BF012126E0022124E0D9
:105A0000032122E0042120E005211EE006211CE004
:105A100007211AE0082118E009211E4615E000BF01
:105A20000A211E4611E000BF0B211E460DE000BFFB
:105A30000C211E4609E000BF0D211E4605E000BFF7
:105A40000E211E4601E000BF0F210AEBC102012416
:105A50000460C0F804B00420D070304682F8019091
:105A6000FDF77AFB14E700BFE00703D1B06920F02F
:105A70000800B0615FEAC81040F18480D6F8404465
:105A8000A00724F0AE050FD5E00745F002050BD0C6
:105A900002988DF8280000208DF82900ADF82C0020
:105AA0000AA80499FFF77CFD200769D5600745F037
:105AB000080565D5D6F84004C0F3414030B102284E
:105AC00006D0012810D1002117E000BF022114E008
:105AD0003346D6F8001453F80C0F420621F00302A7
