:020000040800F2
:1000000088180020110200089B1A000891190008A6
:10001000991A00081D0300088B2400080000000046
:10002000000000000000000000000000A31A00080B
:100030001F03000800000000A11A0008A51A00080C
:100040002B0200082B0200082B0200082B020008DC
:100050002B0200082B0200082B0200082B020008CC
:100060002B0200082B0200082B0200082B020008BC
:100070002B0200082B0200082B0200082B020008AC
:100080002B0200082B0200082B0200082B0200089C
:100090002B0200082B0200082B0200082B0200088C
:1000A0002B0200082B0200082B0200082B0200087C
:1000B0002B0200082B0200082B0200082B0200086C
:1000C0002B0200082B0200082B0200082B0200085C
:1000D0002B020008212200082B0200082B02000836
:1000E0002B0200082B0200082B0200082B0200083C
:1000F0002B0200082B0200082B0200082B0200082C
:100100002B0200082B0200082B0200082B0200081B
:100110002B0200082B0200082B0200082B0200080B
:100120002B0200082B0200082B0200082B020008FB
:100130002B0200082B0200082B0200082B020008EB
:100140002B0200082B0200082B0200082B020008DB
:100150002B0200082B0200082B0200082B020008CB
:100160002B0200082B0200082B0200082B020008BB
:100170002B0200082B0200082B02000800000000E0
:100180002B0200082B0200082B0200082B0200089B
:100190002B0200082B0200082B0200082B0200088B
:1001A0002B0200082B0200082B0200082B0200087B
:1001B0002B0200082B0200082B0200082B0200086B
:1001C0002B0200082B020008000000002B02000890
:1001D0002B0200082B0200082B0200082B0200084B
:1001E0002B0200082B0200082B0200082B0200083B
:1001F0002B0200082B020008DFF810D000F07CF87A
:1002000000480047DD250008AFF300808818002073
:100210000648804706480047FEE7FEE7FEE7FEE7A0
:10022000FEE7FEE7FEE7FEE7FEE7FEE74D1B000800
:10023000F90100082DE9F05F0546002092469B4633
:1002400088460646814640241BE0284641464746EC
:10025000224600F041F853465A46C01A914110D345
:1002600011461846224600F028F82D1A67EB0108BF
:100270004F4622460120002100F01FF817EB00092D
:100280004E41201EA4F10104DFDC484631462A46D7
:100290004346BDE8F09FD2B201E000F8012B491EB1
:1002A000FBD270470022F6E710B513460A46044613
:1002B0001946FFF7F0FF204610BD202A04DB203A44
:1002C00000FA02F1002070479140C2F1200320FAA9
:1002D00003F3194390407047202A04DB203A21FAA7
:1002E00002F00021704721FA02F3D040C2F120024F
:1002F0009140084319467047064C074D06E0E068F8
:1003000040F0010394E8070098471034AC42F6D35C
:10031000FFF776FFB0260008D0260008FEE77047FA
:1003200072B6FEE72DE9F041876D044600F09AF9B8
:10033000064694F835000025022806D08020606526
:10034000012084F83450BDE8F0812068016821F074
:10035000160101602068416921F080014161206C33
:1003600008B9A06C20B12068016821F00801016083
:100370002068016821F0010101600CE000F072F9D1
:10038000801B052807D920216165032084F83500EA
:1003900084F83450D7E720680068C007EED194F89D
:1003A0005C203F2001219040B86084F83510002087
:1003B00084F83450C7E790F83510022903D0802123
:1003C000416501207047052180F8351000680168FB
:1003D00021F00101016000207047000070B5044663
:1003E00000F040F90546601C02D00448007804443F
:1003F00000F038F9401BA042FAD370BD080000207D
:100400002DE9F84FDFF80CB2012403254FF00F0A55
:1004100000220BF1040E00BF0B6804FA02F6334011
:10042000B34278D10F7907F00307012F01D0022FD3
:100430001AD187684FEA4209D1F80CC005FA09F8C9
:1004400027EA08070CFA09FC4CEA070CC0F808C0B8
:10045000476891F804C0B743CCF3001C0CFA02FCC7
:100460004CEA070CC0F804C00E79F643B6070BD06F
:10047000C6684FEA420C8F6805FA0CF826EA0806AF
:1004800007FA0CF73743C7600E7906F00306022E11
:1004900012D1D6084FEA427800EB860600960F6923
:1004A000D6F820904FEAD8660AFA06FCB74029EA47
:1004B0000C063743009E37620F7906684FEA420CFC
:1004C00007F0030705FA0CF807FA0CF726EA080606
:1004D000374307604E6816F4403F1CD04E4E3768D5
:1004E00047F480473760366822F00308970706F420
:1004F00080460096494E3F0F4644B146D6F80868FC
:10050000DFF81C810AFA07FC404526EA0C0603D1F5
:100510004FF0000C41E076E0DFF808C1604502D101
:100520004FF0010C39E0DFF800C1604502D14FF017
:10053000020C32E0DFF8F4C0604502D14FF0030C4A
:100540002BE0DFF8ECC0604502D14FF0040C24E052
:10055000DFF8E0C0604502D14FF0050C1DE0DFF888
:10056000D8C0604502D14FF0060C16E0DFF8CCC0D1
:10057000604502D14FF0070C0FE0DFF8C4C06045C2
:1005800002D14FF0080C08E0DFF8B8C0604502D196
:100590004FF0090C01E04FF00A0C0CFA07FC4CEA92
:1005A000060CC9F808C84F68DBF80060FF0226EAAD
:1005B000030600D51E437746CBF80060D1F804C08F
:1005C000DEF800605FEA8C2C26EA030600D51E43A5
:1005D000DFF840C03E60ACF1040C4F68DCF800600E
:1005E000BF0326EA030600D51E430A4FCCF800607D
:1005F000083FD1F804C03E685FEACC3C26EA030617
:1006000000D51E433E60521C102AFFF405AFBDE822
:10061000F88F0000083C014044380240003001409F
:10062000000002400004024000080240000C0240AA
:10063000001002400014024000180240001C02405A
:100640000020024000240240426921EA02030A40DD
:1006500043EA0241816170470AB181617047090430
:10066000FBE7000001488068704700000800002098
:10067000F8B5040005D094F8D5030026256810B11C
:1006800006E00120F8BD204684F8D46300F028F885
:10069000032084F8D503B5F1A04F00D1A6712068DE
:1006A00001F023FE207C8DF8000094E80F0001F09B
:1006B000BDFD022560B92068012101F0B7FE38B9FF
:1006C000207C8DF8000094E80F0001F04FFE10B17F
:1006D00084F8D553D5E7012084F8D5030020F8BD70
:1006E00030B5ABB00446142124A8FFF7DBFD902100
:1006F0006846FFF7D7FD2068B0F1A04F40D14FF416
:1007000000100090002468461F9400F04FF908B1D3
:10071000FFF706FE1B48016841F001010160006817
:1007200024A9194D00F0010029904FF4007026947F
:10073000CDE924042846FFF763FE0DF1900C022159
:100740004FF4C0500A238CE8130003222846CDE959
:10075000272324A9FFF754FE0A48001D016841F031
:1007600080010160006800F0800029900548143085
:10077000016841F480410160006800F480402990E4
:100780002BB030BD30380240000002400248816882
:10079000027811448160704708000020032010B5E2
:1007A00000F0BCF80F2000F005F800F071F8002010
:1007B00010BD000070B50D4D04464FF47A700C4A20
:1007C00029781268B0FBF1F0B2FBF0F000F05AFEAD
:1007D00048B9102C07D200222146501E00F07EF8A6
:1007E00000206C6070BD012070BD0000080000207A
:1007F00014000020154BF0B5083B427813491A60ED
:100800000B680A1F23F001030B6043681360057B2C
:10081000C67A827A437B2D07847B45EA0665C77BCF
:1008200090F809C0067A90F800E045EAC24040EA34
:10083000834040EA444040EA074040EA0C2040EA56
:10084000460040EA0E000860F0BD0000A0ED00E0A8
:10085000BFF35F8F044800210368034A23F4803309
:10086000036070321160704724ED00E0074A40F0E9
:100870000100064970321060086840F4803008605A
:10088000BFF34F8FBFF36F8F7047000024ED00E080
:100890000A4808B5016841F080510160006800F025
:1008A000805000900548001D016841F480410160BE
:1008B000006800F48040009008BD0000403802400D
:1008C000002809DB410900F01F028900012001F125
:1008D000E0219040C1F80001704700000E4BF0B4D9
:1008E0001B680D46C3F30223C3F10706042E00D98B
:1008F0000426191D072901D2002300E0DB1E012474
:1009000004FA06F19C40491E2940641E9940144097
:100910002143F0BC01F0CABD0CED00E0064900F037
:10092000070210B54FF6FF040868044B204040EA68
:1009300002201843086010BD0CED00E00000FA052D
:100940001848F8B5016841F0805101600068164C04
:1009500000F080500090206840F480302060FFF765
:1009600081FE4FF47A76054605E000BFFFF77AFE78
:10097000401BB0420FD86068C003F7D5206840F430
:1009800000302060FFF76EFE054606E0FFF76AFEC6
:10099000401BB04201D90320F8BD60688003F5D543
:1009A0000020F8BD40380240007000402DE9F84FAB
:1009B00004460078DFF824944FF000063746C0075D
:1009C0000ED0D9F8001021F40001C9F80010D9F8B0
:1009D0000010626B1143C9F80010606B00B901266A
:1009E000FE4D2068843500030ED5E16B286820F4A5
:1009F000401008432860E06BB0F5801F01D010B1B3
:100A000002E0012600E0012720684FF4800BC002BD
:100A10000CD5216C286820F4400008432860206C25
:100A2000584501D1012601E000B901272068C10124
:100A300000D50126800666D5E8483830016841F0C7
:100A4000805101600068DFF898A300F080500090AA
:100A5000DAF8001041F48071CAF80010FFF702FEC6
:100A6000804605E0FFF7FEFDA0EB080064287DD876
:100A7000DAF80000C005F5D5DFF8608308F16808F2
:100A8000D8F8000010F440702AD0218E01F4407193
:100A9000814225D0D8F80010D8F8002021F4407108
:100AA00042F48032C8F80020D8F8002022F48032C6
:100AB000C8F80020C8F80010D8F80000C0070FD010
:100AC000FFF7D0FD824607E0FFF7CCFDA0EB0A015F
:100AD00041F288308142CAD8D8F800008007F3D5A7
:100AE000206BC0F3012103297ED0D9F8001021F436
:100AF000F811C9F80010228ED8F80010C2F30B02CA
:100B00001143C8F800102078C00607D5286820F0E7
:100B1000807028602868A16B084328602188AF484E
:100B20008830490405D5626E016821F440311143D3
:100B300001602188090405D5A26E016821F44021D5
:100B4000114301602168C90305D5E26E016821F4F3
:100B50004011114301602168890305D5226F0168A6
:100B600021F4400111430160217800E034E149069D
:100B700005D5626C016821F0030111430160217801
:100B8000090605D5A26C016821F00C011143016032
:100B90002188C90505D5E26C016821F030011143B7
:100BA00001602188890505D5226D016821F0C00109
:100BB000114301602188490505D5626D016821F462
:100BC0004071114301602188090505D5A26D0168B6
:100BD00021F44061114301602188C90407D5E26D09
:100BE000016821F4405100E068E011430160218870
:100BF000890405D5226E016821F44041114301604A
:100C00002168490205D5A26F016821F08061114376
:100C1000016021684FF0006A890209D5E26F01681E
:100C200021F0006111430160E16F514500D10127BE
:100C300021680A0700D50127490305D5626F0168BD
:100C400021F04071114301602168090206D5D4F8F2
:100C50008020016821F08051114301602168490121
:100C600006D5D4F88420016821F0005111430160B9
:100C70002068000106D5D4F88810286820F000709C
:100C8000084328602068C00006D5D4F88C10286876
:100C900020F0806008432860DFF84891012E02D0E0
:100CA000206880017ED5D9F800004E4620F0806093
:100CB000C9F80000FFF7D6FC80460FE04A4AD9F891
:100CC0000030104023F4F8120243C9F8002012E764
:100CD000FFF7C8FCA0EB080064287DD8306800014D
:100CE000F6D421783D487C30C90712D0616B81B9B8
:100CF000237A62680168D0F800C09201C1F3014113
:100D000042EA0142CCF3036142EA016141EA037124
:100D1000016021680A0303D5E26BB2F5801F04D09D
:100D2000C9021AD5216C594517D16368016894F836
:100D30000CC002689B01C1F3014143EA0141C2F3C7
:100D4000027241EA0C6141EA027101602968626A3B
:100D500021F01F01521E114329602168C90110D5DD
:100D6000238A62680168D0F800C09201C1F3036170
:100D700042EA034242EA0162CCF3027142EA0171A3
:100D80000160216889010CD56168228A237B94F86F
:100D900008C0890141EA024141EA036141EA0C715C
:100DA000016000E011E03168B04641F080613160DF
:100DB000FFF758FC064604E0FFF754FC801B64284C
:100DC0000AD8D8F800000001F6D5E7B3D9F800003A
:100DD0004E4620F0805009E07BE0000008380240D9
:100DE0000070004000380240FFFCFF0FC9F800000F
:100DF000FFF738FC074604E0FFF734FCC01B64280B
:100E000067D83068C0438000F6D5216835480A03AA
:100E100001D5E26B1AB1C9021DD5216CD9B963693C
:100E20000168277E02689B01C1F3014143EA014347
:100E3000C2F3027143EA076242EA01710160296864
:100E40006FF0FF0300E04BE0A26A21F4F85103EBDE
:100E50000222114329602168890212D5E16F5145B0
:100E60000FD1238C6269016807689201C1F30361A5
:100E700042EA034242EA0162C7F3027142EA0171A7
:100E800001602178090716D561690268D0F800C0B1
:100E90008B01277FC2F30362CCF3014143EA014196
:100EA00041EA026141EA077101602868E16A20F4C1
:100EB000403008432860306840F080503060FFF7D1
:100EC000D1FB044608E000BFFFF7CCFB001B642801
:100ED00002D90320BDE8F88F3068C0438000F3D406
:100EE0000020F7E788380240704700002DE9F047FE
:100EF00005000F4663D0444E306800F00F00B84242
:100F000009D2306820F00F0038433060306800F0BC
:100F10000F00B84253D128683C4C810712D54007D6
:100F200003D5206840F4E05020602878000703D5FE
:100F3000206840F460402060A968206820F0F0003C
:100F4000084320602878C0072AD0304968680839EB
:100F5000012810D00968022810D0890700292EDA4C
:100F6000216821F0030101432160FFF77BFB8046EC
:100F700041F288390DE009688903EFE78901EDE75F
:100F8000FFF770FBA0EB0801494502D90320BDE83B
:100F9000F0876868216801F00C01B1EB800FEFD198
:100FA000306800F00F00B8420BD9306820F00F0015
:100FB00038433060306800F00F00B84201D00120A3
:100FC000E5E72878400705D5E968206820F4E05077
:100FD000084320602878000706D52869216821F495
:100FE000604141EAC000206000F040F82168084AF2
:100FF000C1F30311515CC840064908600648006807
:10100000FFF7D8FB0020C2E7003C0240083802404E
:1010100098260008140000200C00002002480168F7
:1010200041F400210160704700380240044905483E
:1010300009680068044AC1F38221515CC8407047C6
:101040000838024014000020A8260008044905487A
:1010500009680068044AC1F34231515CC8407047D6
:101060000838024014000020A8260008154910B5D1
:101070001548096811F00C0213D01449042A0FD046
:10108000082A0ED10F4C241F2268236802F03F0269
:101090005B0207D52068C0F38810A0FB010106E0C1
:1010A000084610BD2168C1F38811A1FB000100238F
:1010B000FFF7C0F82168C1F30141491C4900B0FBAA
:1010C000F1F010BD083802400024F40040787D01A2
:1010D000054810B50068000605D5FFF705FF024971
:1010E0008020891C087010BD0C3802402DE9F84F93
:1010F00004004FF000076ED02078DFF87CA3AAF13F
:101100000408C007A8F104054CD0DAF800105046D6
:10111000C1F38101012908D00068C0F381000228D1
:101120000AD1D8F80000400206D52868800339D5D6
:1011300060680028DFD035E06068B0F5803F0BD0F4
:1011400010B1B0F5A02F11D0286820F480302860AD
:10115000286820F4802002E0286840F4803028606D
:10116000606890B1FFF77EFA06460AE0286840F40E
:1011700080202860F0E700BFFFF774FA801B642826
:1011800072D828688003F7D50CE0FFF76BFA0646A3
:1011900005E000BFFFF766FA801B6428F0D82868D6
:1011A0008003F7D42078800742D5DAF80010504643
:1011B00011F00C0F08D00068C0F3810002280BD199
:1011C000D8F80000400207D42868800718D5E068E6
:1011D000012800D114E04AE1E0680028286817D00F
:1011E00040F001002860FFF73DFA064605E000BF29
:1011F000FFF738FA801B0228C2D828688007F7D585
:101200002069296821F0F80141EAC00028600FE058
:1012100020F001002860FFF725FA064605E000BF30
:10122000FFF720FA801B02281ED828688007F7D411
:101230002078000729D5904861696C3000298146E3
:10124000016812D041F001010160FFF70BFA064678
:1012500005E000BFFFF706FA801B022804D8D9F882
:1012600000008007F6D510E089E021F0010101605F
:10127000FFF7F8F9064604E0FFF7F4F9801B0228AF
:101280007DD8D9F800008007F6D4207840076BD5C8
:10129000DFF8E49109F13809D9F80000C0000BD457
:1012A000D9F8001041F08051C9F80010D9F80000B9
:1012B000012700F08050009070480168C90512D4E1
:1012C0000168834641F480710160FFF7CBF906465F
:1012D00005E000BFFFF7C6F9801B64284FD8DBF894
:1012E0000000C005F6D5644EA068683601280AD013
:1012F00008B1052811D0306820F001003060306856
:1013000020F0040002E0306840F001003060A06886
:10131000A0B1FFF7A7F983460CE0306840F0040065
:101320003060F0E7FFF79EF9A0EB0B0141F2883047
:10133000814268D830688007F4D50EE0FFF792F953
:10134000834607E0FFF78EF9A0EB0B0141F28830EE
:10135000814258D830688007F4D42FB1D9F80010F2
:1013600021F08051C9F80010A069E0B3DAF800104C
:10137000C1F3810102294DD00228286800E042E033
:1013800020F08070286003D0FFF76CF904463DE040
:10139000FFF768F9064604E0FFF764F9801B0228AE
:1013A00031D828688001F7D4D4E90921DFF8D0C00A
:1013B000D4E9070694F830304F0894F82C103043E5
:1013C0000CEB074444EA8212104340EA016040EA11
:1013D0000370C8F80000286840F080702860FFF7AC
:1013E00041F9044605E044E0FFF73CF9001B022800
:1013F00009D828688001F7D53BE000BFFFF732F934
:10140000001B022802D90320BDE8F88F286880015C
:10141000F4D42EE00128D8F8000028D0E16900F4C7
:1014200080028A4223D1216A00F03F028A421ED103
:10143000626A47F6C0710140B1EB821F17D1A16A01
:101440004FF0FF3200F4403302EB5101B3EB014F98
:101450000DD194F82C1000F07062B2EB016F06D140
:1014600094F8301000F0E040B0EB017F01D0012093
:10147000CAE70020C8E700000838024000700040BA
:101480000000FFFF401EB0F1807F10B501D30120A6
:1014900010BD4FF0E02460610F21601701F006F8E5
:1014A0000020A0610721216110BD7047704770477F
:1014B0002DE9F04102680025044640F60F07022698
:1014C000D06911689368384205D187067ED58F06AA
:1014D0007CD5A16E33E1DFF894C203F0010701EA85
:1014E0000C0C57EA0C0C71D05FEAC07C0CD05FEAA0
:1014F000C15C09D54FF0010CC2F820C0D4F884209B
:1015000042F00102C4F88420820709D5DA0707D027
:1015100022681662D4F8842042F00402C4F88420C1
:1015200042070AD5DA0708D0236804221A62D4F8E1
:10153000842042F00202C4F8842002070CD501F096
:1015400020023A4308D0236808221A62D4F8842083
:1015500042F00802C4F8842002050BD54A0109D5DF
:1015600023684FF400621A62D4F8842042F020020B
:10157000C4F88420D4F88420002A36D0800605D50B
:10158000880603D5A16E09B1204688472168D4F8A2
:1015900084008968490602D410F0280F27D020461D
:1015A00000F09BFB2068806840061BD5206808304F
:1015B00050E8001F21F0400140E80012002AF5D158
:1015C000606F78B16A490165606F00E015E0FEF771
:1015D000F2FE002809D0606F016D00E02046BDE8F2
:1015E000F04108472046FFF762FFBDE8F081204642
:1015F000FFF75DFFC4F88450F7E7D4F860C02027F8
:10160000BCF1010F7ED15FEAC06C7BD55FEAC16C93
:1016100078D5102010622068806840064FD5626F30
:10162000FB00106840680004000C3CD0B4F858106F
:10163000814238D9A4F85A00D06998422BD020684A
:1016400050E8001F21F4807140E80012002AF6D112
:101650002068083050E8001F21F0010140E8001226
:10166000002AF5D12068083050E8001F21F0400121
:1016700040E80012002AF5D1C4F880702566216880
:1016800051E8000F20F0100041E80002002AF6D1D6
:10169000606FFEF747FE6666B4F85800B4F85A105B
:1016A000401A81B207E0B4F8581081429DD1D06948
:1016B00098429AD166662046FFF7F7FE95E7B4F8A0
:1016C0005800B4F85A10B4F85A20401A81B2002ACF
:1016D0008BD0002989D0226852E8000F20F4907046
:1016E00042E80003002BF6D1206800F1080050E822
:1016F000002F22F0010240E80023002BF4D1C4F8AF
:10170000807000E00BE02566A566206850E8002F99
:1017100022F0100240E80023002BF6D1CAE7C602EF
:1017200008D55B0206D54FF4801010622046FFF703
:10173000BDFE5AE7020606D50A0604D5E16E002969
:101740007FF44CAF51E74006B8D54806B6D52046E1
:10175000026852E8001F21F0400142E80013002B0C
:10176000F6D1C767C56600F012F93EE72001000414
:10177000CB1C000810B5040002D0E06F10B107E0E8
:10178000012010BD002084F87800204600F026F8E3
:101790002420E0672068016821F001010160606A8F
:1017A00010B1204600F0DAF9204600F07BFB01285A
:1017B000E7D02068416821F4904141602068816849
:1017C00021F02A0181602068016841F00101016077
:1017D0002046BDE8104000F025BA000010B5AAB0C0
:1017E0000446142124A8FEF75DFD90216846FEF70B
:1017F00059FD1D492068884233D1402000900024C3
:1018000068461194FFF7D2F808B1FEF789FD174832
:10181000016841F010010160006800F0100029909B
:1018200012481438016841F00201016000680DF1AE
:10183000900C022100F0020029904FF44040042354
:101840008CE8130003220A48CDE9272324A9FEF7D8
:10185000D7FD002204212520FFF740F82520FFF7BF
:101860002FF82AB010BD000000100140443802409B
:101870000004024030B4D0F88030202B02D0022087
:1018800030BC704791B18AB10023036603685B687E
:101890001B0208D5046854E8003F43F0806344E825
:1018A0000035002DF6D130BC00F014BC0120E7E774
:1018B00030B40068094988420DD10948094C416893
:1018C00003784A1C63544260014604F5806030BCD2
:1018D0000122FFF7CFBF30BC70470000001001406D
:1018E000000000201C0000202DE9F8430446C06FD2
:1018F000984616460D46202802D00220BDE8F883FF
:1019000095B18EB10021C4F884102120E067FEF764
:10191000A9FE8146A068A4F85060A4F85260202770
:10192000B0F5805F02D003E00120E7E7206910B145
:101930002E46002510E000260EE08021204600F013
:1019400025FCC0B9D6B116F8010B21688862B4F83D
:101950005200401EA4F85200B4F852004B464FF01B
:101960000002CDF800800028E7D14FF0400120466A
:1019700000F00CFC40B1E7670320BFE735F8020B2D
:101980002168C0F30800E1E7E7670020B6E7704789
:10199000FEE70000104810B586B0016841F0020172
:1019A0000160006801210D4C00F002000590032049
:1019B000CDE90001CDE9021069462046FEF720FD81
:1019C000012220461146FEF747FE01222046022151
:1019D000FEF742FE06B010BD30380240000402405F
:1019E0000D4808B5016841F080010160016801F00F
:1019F00080010091016841F002010160016801F07D
:101A000002010091016841F001010160006800F0ED
:101A10000100009008BD0000303802400F4800214E
:101A200010B50D4C0C224FF4E1330460C0E90131D4
:101A3000C160C0E904128161C16101624162FFF7C6
:101A400099FE08B1FEF76CFCBDE810400449012284
:101A50000248FFF70FBF0000001001401C040020E7
:101A6000000000200B48012370B54FF0A045056031
:101A7000082444710021C371022281714272817273
:101A8000FEF7F6FD002803D0BDE87040FEF748BC25
:101A900070BD0000A4040020FEE7FFF719FBFEE77D
:101AA00070477047FEF772BE70B594B03421684637
:101AB000FEF7F8FB14210DA8FEF7F4FB214801689E
:101AC00041F080510160006800F0805012901E4883
:101AD000016841F44041016000680224192300F4C8
:101AE00040401290012008934FF4D87582050104FC
:101AF0000926CDE90642CDE90954CDE90001CDE939
:101B00000B646846FFF7F2FA08B172B6FEE7FEF71B
:101B100017FF08B172B6FEE70FAD00214FF4A052D7
:101B20004FF4805385E80E000F20CDE90D04072106
:101B30000DA8FFF7DBF908B172B6FEE7FFF76EFA02
:101B400014B070BD40380240007000400248016887
:101B500041F470010160704788ED00E090F82410B6
:101B6000090706D50168436B4A6822F400421A430C
:101B70004A6090F82410C90706D00168836A4A6851
:101B800022F400321A434A6090F82410890706D5DF
:101B90000168C36A4A6822F480321A434A6090F8A6
:101BA0002410490706D50168036B4A6822F4802295
:101BB0001A434A6090F82410C90606D50168836B61
:101BC0008A6822F480521A438A6090F824108906A9
:101BD00006D50168C36B8A6822F400521A438A60F2
:101BE00090F82410490611D50168036C4A6822F464
:101BF00080121A434A60016CB1F5801F06D101685A
:101C0000436C4A6822F4C0021A434A6090F82410D8
:101C1000090606D50168826C486820F4002010434C
:101C2000486070472DE9F84300250446C0F8845009
:101C3000FEF718FD8046206820266FF07E4700687A
:101C4000000712D50022434631042046009700F0D9
:101C50009DFA50B1216851E8000F20F0800041E862
:101C60000002002AF6D1E66721E0206800684007FC
:101C700022D5002243464FF480012046009700F011
:101C800085FAC8B1206850E8001F21F4907140E83F
:101C90000012002AF6D12068083050E8001F21F019
:101CA000010140E80012002AF5D1C4F88060032049
:101CB00084F87850BDE8F883E667C4F8806025664C
:101CC0006566002084F87850F4E710B5806B002139
:101CD000A0F85A10FFF7EBFB10BD016851E8002F88
:101CE00022F4907241E80023002BF6D101680831FC
:101CF00051E8002F22F0010241E80023002BF5D12A
:101D0000016E012908D1026852E8001F21F010017C
:101D100042E80013002BF6D100212022C0F88020D9
:101D200001668166704710B5D0F88010B0F85C206D
:101D30002229016804D0886940F00800886110BD3C
:101D4000496A436D11401980416D891C4165B0F8A5
:101D50005A10491EA0F85A10B0F85A100029EED1B6
:101D6000026852E8001F21F4907142E80013002B32
:101D7000F6D10168083151E8002F22F0010241E854
:101D80000023002BF5D100212022C0F8802081669D
:101D9000416602685268120208D5036853E8002FB2
:101DA00022F0806243E80024002CF6D1026E012A62
:101DB00002D0FFF77DFD10BD0166026852E8001FEA
:101DC00021F0100142E80013002BF6D10168CA6926
:101DD000D243D20601D410220A62B0F85810FFF79D
:101DE00064FB10BD10B5D0F88010B0F85C2022293B
:101DF000016804D0886940F00800886110BD496A14
:101E0000436D11401970416D491C4165B0F85A107D
:101E1000491EA0F85A10B0F85A100029EED10268F5
:101E200052E8001F21F4907142E80013002BF6D114
:101E30000168083151E8002F22F0010241E8002337
:101E4000002BF5D100212022C0F880208166416658
:101E500002685268120208D5036853E8002F22F086
:101E6000806243E80024002CF6D1026E012A02D0E1
:101E7000FFF71EFD10BD0166026852E8001F21F049
:101E8000100142E80013002BF6D10168CA69D24361
:101E9000D20601D410220A62B0F85810FFF705FBF1
:101EA00010BD00002DE9F04104460368C269816855
:101EB000D4E90450DFF8F0C17C4E29431F680025A7
:101EC00010437B4A014307EA0C070F431F604FF49E
:101ED00000402168E7684B6823F440533B434B6064
:101EE0002768A369216AD7F808C019432CF4306326
:101EF0000B43BB602168B1420AD1116811F00301A4
:101F000052D001297CD0022971D003296ED184E0FE
:101F1000684B99420AD1116811F00C0167D004296D
:101F200065D0082975D00C2960D176E0624B9942C2
:101F30000AD1116811F0300159D010296BD0202935
:101F400067D0302952D168E05C4B99420AD11168C0
:101F500011F0C0014BD040295DD0802959D0C02953
:101F600044D15AE0564B99420DD1116811F4407199
:101F70003DD0B1F5807F4ED0B1F5007F49D0B1F5AD
:101F8000407F33D149E04F4B99420FD1116811F492
:101F9000406109D0B1F5806F3DD0B1F5006F38D008
:101FA000B1F5406F22D138E0012120E0464B994243
:101FB0000DD1116811F4405119D0B1F5805F2AD0CC
:101FC000B1F5005F25D0B1F5405F0FD125E03F4B63
:101FD00099420BD1116811F4404108D0B1F5804FFE
:101FE00019D0814215D0B1F5404F16D01021E369C8
:101FF000374A4FF6EF7683422ED1092949D201E0C4
:1020000009E006E0DFE801F00B0E114513454545F8
:1020100016000221EBE70421E9E70821E7E7FFF7D3
:1020200005F806E0FFF712F803E0104602E0FFF7BC
:102030001DF878B36168400000EB5100B0FBF1F08F
:10204000A0F11001B14224D84FF6F0732168C0F31B
:1020500042021840104320E009291AD2DFE801F0BB
:1020600005080B190D1919191000FEF7DFFF06E01E
:10207000FEF7ECFF03E0104602E0FEF7F7FF48B181
:10208000616800EB5100B0FBF1F0A0F11001B1422A
:1020900001D9012502E0216880B2C8600020A06655
:1020A000E0662846BDE8F081F369FFEF00100140CB
:1020B000903802400044004000480040004C00407E
:1020C000005000400014014000780040007C0040B7
:1020D0000024F40030B58368002441654FF4805536
:1020E000A0F85820AB42A0F85A204FF0FF018466B8
:1020F00004D1026972BB40F2FF112BE04FF07F0266
:1021000033B3B3F1805F28D0A0F85C402221C0F83F
:102110008440C0F880100168083151E8002F42F077
:10212000010241E80023002BF5D18168A94201D1C9
:102130000169C9B1134902698166BAB1016851E800
:10214000002F42F4907241E80023002BF6D116E0F4
:10215000036933B9A0F85C10D8E7016909B13F21E0
:10216000F8E7A0F85C20D1E707498166026852E8E9
:10217000001F41F0200142E80013002BF6D100209F
:1021800030BD0000E51D0008271D00082DE9F047BF
:10219000994617460D460446089E4FF0000833E066
:1021A000701C31D0FEF75EFAA0EB0900B04218D8DF
:1021B000BEB120680168490726D5802D24D0402D66
:1021C00022D0C169C94309070DD4082505622046FC
:1021D000FFF783FDC4F88450012084F87880BDE8BF
:1021E000F0870320FBE7C069C04300050CD42168D9
:1021F0004FF4006008622046FFF76FFD2021C4F80D
:10220000841084F87880ECE72068C06935EA000023
:1022100004D00020B842C3D00020E0E70120F9E755
:102220000148FFF745B900001C04002070B50D46B9
:102230000446C2F307210498012918D0E06840F051
:102240004000E060204600F02DF8A16B41F48031A1
:10225000C4F83810C5F30741012907D1A16841F03E
:102260000601A160A16841F02001A16070BDA26BD0
:10227000C3B20B49012B22F48030A063E06800EA6E
:102280000100E060E06820F44010E06003D1E06805
:1022900040F48010E060204600F004F8DAE7000027
:1022A000BFFFBDFF08B500224FF070610092521CC5
:1022B0008A42009212D80269002A01DB009AF6E7EE
:1022C0000A220092521E0092FCD1026942F00102E1
:1022D0000261009A521C00928A4201D9032008BD73
:1022E0000269D207F5D1002008BD816821F0010103
:1022F00081600020704708B500214FF070620091A6
:10230000009B5B1C009393420AD80369002BF7DA09
:102310000091102303610099491C0091914201D959
:10232000032008BD0169C906F5D4002008BD18B511
:1023300000224FF070630092009C641C00949C4249
:102340000CD80469002CF7DA2024009244EA8111A9
:1023500001610099491C0091994201D9032018BDDF
:1023600001698906F5D4002018BD0000F0B50027EA
:102370000E4604463D46C0F8007E806B20F40010F7
:10238000A063E068400602D4300E012804D0D4F8DF
:10239000000420F0040103E0D4F8000440F004013C
:1023A0002046C4F800141021FFF7C1FF00B1012539
:1023B0002046FFF7A0FF00B101254FF0FF310020BC
:1023C000C6F3072207E000BF04EB4013C3F808156B
:1023D000C3F80C75401C8242F6D80E48A7616161B3
:1023E000844203D10C4942150C4802E00C4980227A
:1023F0000C486262A162C4F80001C6F3074018B934
:10240000A06940F01000A061A06907490843A061DD
:102410002846F0BD00000440000200010003E00077
:1024200080006000E0004000080020A370B5044672
:10243000C06801294FF0000520F0C040E06001D0E5
:1024400079B120E0E06840F00050E0600A20FDF73C
:10245000C5FF60690A3510F0010F10D1C82DF5D302
:102460000DE0E06840F08040E0600A20FDF7B6FF34
:1024700060690A3510F0010F01D0C82DF5D3C82DC1
:1024800001D0002070BD012070BDFEE70FB4054BE8
:1024900010B503A9044A029800F028F810BC5DF8B2
:1024A00014FB0000C52500081800002009070028BB
:1024B0004FEA116104DB00F1E02080F8001470475E
:1024C00000F00F0000F1E02080F8141D704702E0DA
:1024D00008C8121F08C1002AFAD1704770470020AF
:1024E00001E001C1121F002AFBD170472DE9F84F0E
:1024F0009946924688460546002706E025280AD0D8
:1025000051464A4690476D1C7F1C28780028F5D11B
:102510003846BDE8F88F002315F8011F18462E290C
:1025200015D115F8011F04232A290DD06FF02F02B1
:102530002978A1F13004092C09D800EB800002EBC6
:10254000400008446D1CF3E758F8040B6D1C2A7812
:10255000002ADDD0632A07D0732A0FD010465146D7
:102560004A4690477F1C2AE018F8042B8DF800207B
:1025700000218DF801106E46012103E058F8046B2C
:102580004FF0FF315A074FF0000401D409E0641CFA
:1025900084420BDA8C42FADB325D002AF7D105E087
:1025A000641C8C42FCDB305D0028F9D1274404E038
:1025B00016F8010B51464A469047641EF8D26D1C2E
:1025C000A3E7000013B5044801224FF0FF3369462A
:1025D000FFF78AF900981CBD1C0400201FB50024D9
:1025E0000094019402940394FEF732F901208DF8CF
:1025F0000C001F218DF8081087228DF809208DF816
:102600000D008DF8000068468DF80A408DF80E40E8
:102610008DF8014001948DF80B408DF80F40FEF7C6
:10262000E9F80420FEF722F9FEF7B8F8FFF73CFAC4
:10263000FFF7D6F9FFF716FAFFF7F0F9FFF7AAF957
:102640000D4D4FF48066DFF834804FF47A772868B8
:1026500048B10B490BA0FFF719FF09483146FDF7B8
:1026600021FE2C60F3E73846FDF7B8FE0221404614
:10267000FDF7EAFFEBE70000040000200004024041
:102680001C00002055534152545F52585F4255463A
:102690003A20257300000000000000000000000048
:1026A00001020304060708090000000001020304F8
:1026B000D0260008000000201C000000CE240008E6
:1026C000EC2600081C0000206C180000DE24000826
:1026D00000000000000000000100000010000000E9
:0C26E000000000000024F40000000000D6
:04000005080001F9F5
:00000001FF
