:020000040800F2
:10000000E06F00200D020008B9200008891F0008D9
:10001000B1200008E1030008912F00080000000053
:100020000000000000000000000000004121000866
:10003000E903000800000000D12000086921000841
:1000400027020008270200082702000827020008EC
:1000500027020008270200082702000827020008DC
:1000600027020008270200082702000827020008CC
:1000700027020008270200082702000827020008BC
:1000800027020008270200082702000827020008AC
:10009000270200082702000827020008270200089C
:1000A000270200082702000827020008270200088C
:1000B000270200082702000827020008270200087C
:1000C000270200082702000827020008270200086C
:1000D00027020008812F00082702000827020008D5
:1000E000270200082702000827020008270200084C
:1000F000270200082702000827020008270200083C
:10010000270200082702000827020008270200082B
:10011000270200082702000827020008270200081B
:10012000270200082702000827020008270200080B
:1001300027020008270200082702000827020008FB
:10014000270200082702000827020008C120000833
:1001500027020008270200082702000827020008DB
:1001600027020008270200082702000827020008CB
:1001700027020008C920000827020008000000002C
:1001800027020008270200082702000827020008AB
:10019000270200082702000827020008270200089B
:1001A000270200082702000827020008270200088B
:1001B000270200082702000827020008270200087B
:1001C000270200082702000800000000270200089C
:1001D000270200082702000827020008270200085B
:1001E000270200082702000827020008270200084B
:1001F0002702000827020008DFF80CD000F0DEF824
:1002000000480047017B0008E06F00200648804757
:1002100006480047FEE7FEE7FEE7FEE7FEE7FEE7EB
:10022000FEE7FEE7FEE7FEE749220008F9010008C5
:100230002DE9F05F0546002092469B46884606461B
:10024000814640241BE0284641464746224600F0AE
:10025000A4F853465A46C01A914110D31146184685
:10026000224600F08BF82D1A67EB01084F46224614
:100270000120002100F082F817EB00094E41201EFA
:10028000A4F10104DFDC484631462A464346BDE876
:10029000F09F000000487047E0E4000840EA0103D6
:1002A0009B0703D009E008C9121F08C0042AFAD22C
:1002B00003E011F8013B00F8013B521EF9D27047F0
:1002C000D2B201E000F8012B491EFBD27047002298
:1002D000F6E710B513460A4604461946FFF7F0FF45
:1002E000204610BD10B5002200E0521C835C8C5CDF
:1002F000A34201D1002BF8D1D8B2E1B2401A10BD0F
:1003000030B504460020034600E05B1C934203D254
:10031000E05CCD5C401BF8D030BD30B50546002018
:10032000034600E05B1C934205D2EC5CC85C201ADB
:1003300001D1002CF6D130BD70B50F4D00B9286841
:10034000002412E00A4602E09E4203D0521C1378B9
:10035000002BF9D1DAB2224305D02BB124B1002110
:1003600000F8011B04E00446401C0678002EE9D189
:100370002860204670BD000000000020202A04DB19
:10038000203A00FA02F1002070479140C2F12003A8
:1003900020FA03F3194390407047202A04DB203AE7
:1003A00021FA02F00021704721FA02F3D040C2F195
:1003B000200291400843194670470000064C074D43
:1003C00006E0E06840F0010394E807009847103425
:1003D000AC42F6D3FFF714FF08ED000828ED000843
:1003E000FEE7000000000000704700000000000071
:1003F000EFF3108072B600BFFEE7000000000000BF
:1004000070B50446866D00F04FF994F83510022956
:1004100028D105462068216C0268002922F01602C6
:100420000260426922F08001416101D1A16C19B1E1
:10043000016821F008010160016821F001010160FB
:1004400020680068C00715D000F02EF9401B062870
:10045000F6D320206065032084F83500002184F85D
:10046000341070BD802060650120002184F83410B4
:1004700070BD00BFE06D3F2101FA00F0B0600120C7
:1004800084F835000020002184F8341070BD00008D
:1004900090F83510022909D1052180F8351000683F
:1004A000016821F001010160002070478021416551
:1004B0000120704700000000B0B5044600F0F4F8D9
:1004C00040F208010546C2F20001621C097818BF1B
:1004D0000C4400BF00F0E8F8401BA042FAD3B0BDC6
:1004E0002DE9F04F82B000F13E420A2302F1FF777E
:1004F00042F20042C4F2020243F6004B90424FEA3D
:10050000B72208BF0923092AC4F2010B38BF4FEAFA
:10051000B72300244FF0010E00270026009306E0C9
:1005200001360437102E04F1020400F0A9800EFAFF
:1005300006F80B6813EA080FF2D0D1F804A00322E2
:100540000AF0030C02FA04F5ACF101036FEA0509A5
:10055000012B0FD88368CD6803EA0903A5402B431C
:100560008360CAF30015436823EA0803B5402B43B0
:10057000436005E0BCF1030F02D14FF0030C22E011
:10058000C3688D6803EA0903A540BCF1020F43EA82
:100590000503C36017D16FF003020F2502EA56036B
:1005A00007F01C02034405FA02FAD3F820C00D69D3
:1005B0002CEA0A0C05FA02F242EA0C021A62D1F89D
:1005C00004A00AF0030C02680CFA04F302EA090220
:1005D0001AF4403F42EA03020260A1D043F644030A
:1005E0004FF60849C4F20203CFF6FF790F251A68C7
:1005F00042F480421A601A6826F0030302F4804233
:1006000001920BEB0302019B07F00C0352F809C0A7
:100610009D402CEA050C009D05FA03F343EA0C0308
:1006200042F80930DBF808C04B684CEA0805DA02EA
:1006300058BF2CEA080543F60C499A02C4F2010996
:10064000CBF80850D9F800C04CEA080558BF2CEA8E
:1006500008059A03C9F80050DBF804C04CEA080505
:1006600058BF2CEA0805DB03CBF80450DBF8002068
:1006700042EA080558BF22EA0805CBF800504FE7C8
:1006800002B0BDE8F08F0000426902EA0103914325
:1006900041EA034181617047002A08BF0904816172
:1006A000704700000000000045F69C70C2F2000098
:1006B000006870470000000040F2080045F69C7199
:1006C000C2F20000C2F2000100780A68104408601B
:1006D000704700000000000080B5032000F0E0F843
:1006E0000F2000F005F800F077F8002080BD000032
:1006F00070B540F2080640F28801C2F20006C2F26C
:1007000000014FF47A73044632780968B3FBF2F2C1
:10071000B1FBF2F1084600F03FFF0F2C4FF001054E
:1007200008D838B94FF0FF3000222146002500F0EC
:1007300087F87460284670BD10B54EF6A05E41780B
:10074000CEF2000E90F800C04EF8081CDEF8001043
:1007500021F00101CEF8001041684EF8041C017B25
:10076000C37A827A447B1B0643EA0171837B41EAA8
:10077000C241C27B41EA8441447A41EA4341007A62
:1007800041EA024141EA042141EA400040EA0C000A
:10079000CEF8000010BD00004EF62450CEF200004E
:1007A000BFF35F8F016821F4803101600021016790
:1007B00070470000000000004EF6245140F0010098
:1007C000CEF200010867086840F480300860BFF38B
:1007D0004F8FBFF36F8F704782B043F64000002207
:1007E000C4F20200016841F080510160016801F02B
:1007F000805101910199416841F480414160406814
:100800000F2100F4804000906FF00100009B02B0C7
:1008100000F016B800000000002848BF7047C1B2C1
:100820004EF20012CEF2000200F01F0042EAD101A7
:10083000012221F0030102FA00F008607047000075
:1008400070B54EF60C5C4FF0FF36CEF2000C00F1A6
:10085000604505F56445DCF80030C3F3022E8EF0E8
:100860000703042B28BF0423BEF1030406FA03F395
:1008700021EA030100F00F0338BF0024043B0028E5
:10088000634406FA04F048BF03F10C05A14022EAD4
:10089000000008430001287070BD00000000000047
:1008A0004EF60C514FF6FF03CEF200010A681A40D3
:1008B00060F30A2242F0806040F0FD7008607047EB
:1008C000B0B582B043F6400047F20005C4F2020022
:1008D000C4F20005016841F080510160006800F039
:1008E000805001900198286840F480302860FFF71C
:1008F000DBFE04466868C00306D4FFF7D5FE001B84
:10090000B0F57A7FF6D910E0286840F4003028600E
:10091000FFF7CAFE044600BF6868800308D4FFF7EB
:10092000C3FE001BB0F57A7FF6D9032002B0B0BD3C
:10093000002002B0B0BD00002DE9F04782B0D0F831
:1009400000A043F6900604465FEACA70C4F20206AD
:100950001AD14FF000095FEA0A3028D556F8040C86
:10096000E16B20F44010B1F5801F40EA010046F829
:10097000040CB1FA81F04FEA501808BF4FF001099A
:100980005FEACA2018D429E056F8880C20F4000049
:1009900046F8880C606B56F8881C014346F8881CA2
:1009A000B0FA80F04FEA50195FEA0A30D6D44FF01F
:1009B00000085FEACA2011D556F8040C216C20F417
:1009C0004000B1F5800F40EA010008BF4FF0010977
:1009D000002908BF4FF0010846F8040C5FEA8A605E
:1009E00057465CD556F8500C47F2000740F080504F
:1009F00046F8500CC4F2000756F8500C00F0805036
:100A000001900198386840F480703860FFF74CFE20
:100A1000054600BF3868C00506D4FFF745FE401BF9
:100A20006428F7D958E200BF56F8200C10F4407043
:100A30001BD0216B01F44071884216D056F8200C6F
:100A400056F8201C41F4803146F8201C56F8201C32
:100A500020F4407021F4803146F8201C46F8200C28
:100A600056F8200CC00740F03B824FF6FF43276842
:100A7000206B56F8882CC0F6FF7300F4407122F406
:100A8000F81203406FF31F30B1F5407F08BF1A43DF
:100A900046F8882C56F8201C084346F8200CF80627
:100AA00038D4780444D438044AD4F80350D4B80372
:100AB00056D478065CD4380662D4F80568D4B805F4
:100AC0006ED4780575D438057CD4F80400F18380A1
:100AD000B80400F18980780200F18F80B80200F13B
:100AE0009580780300F1A180380200F1A780780199
:100AF00000F1AE80380100F1B580F8000AF0807096
:100B000000F1BE80002808BFB9F1000F40F0E4807A
:100B1000C4E000BF56F8040C20F0807046F8040CC6
:100B2000A06B56F8041C084346F8040C7804BAD5A8
:100B30003068616E20F44030084330603804B4D52A
:100B40003068A16E20F4402008433060F803AED531
:100B50003068E16E20F4401008433060B803A8D537
:100B60003068216F20F44000084330607806A2D539
:100B70003068616C20F003000843306038069CD573
:100B80003068A16C20F00C0008433060F80596D561
:100B90003068E16C20F0300008433060B80590D533
:100BA0003068216D20F0C0000843306078057FF583
:100BB0008AAF3068616D20F44070084330603805BA
:100BC0007FF583AF3068A16D20F44060084330604A
:100BD000F8047FF57DAF3068E16D20F440500843A4
:100BE0003060B8047FF577AF3068216E20F4404064
:100BF0000843306078027FF571AF3068A16F20F054
:100C0000806008433060B8027FF56BAF3068E16FF9
:100C100020F00060B1F1006F40EA010008BF4FF022
:100C20000108306078037FF55FAF3068616F20F0B6
:100C300040700843306038027FF559AF3068D4F80F
:100C4000801020F080500843306078017FF552AF6B
:100C50003068D4F8841020F0005008433060380128
:100C60007FF54BAF56F8040CD4F8881020F00070D4
:100C7000084346F8040CF8000AF080707FF542AF94
:100C800056F8041CD4F88C2021F08061114346F8FA
:100C9000041C002808BFB9F1000F1DD117F0007027
:100CA0001AD117F0080008BFB8F1000F00F0A680B5
:100CB00056F8900C20F0805046F8900CFFF7F4FCAA
:100CC000054600BF56F8900C800029D5FFF7ECFCD4
:100CD000401B6428F6D9FFE056F8900C20F08060A5
:100CE00046F8900CFFF7E0FC054600BF56F8900C64
:100CF000000105D5FFF7D8FC401B6428F6D9EBE0CE
:100D00002068C10702D0616B00297BD0010340F14C
:100D10008D80E16BB1F5801F40F088808CE000BFD2
:100D20002068010301D5E16B19B1C1021ED5216C08
:100D3000E1B956F8081C56F8082C01F4403102F0CD
:100D4000E04263691144A26941EA8311A76A41EA5A
:100D5000026146F8081C56F8041C6FF0FF0221F4EB
:100D6000F85102EB0722114346F8041C810214D506
:100D7000E16FB1F1006F10D156F8081C56F8082C3D
:100D800001F0706102F0E0426369276A114441EAB0
:100D9000831141EA074146F8081C000718D556F8A8
:100DA000080C56F8081C00F0706001F440316269CC
:100DB0000844E16940EA8210E36A40EA017046F8BB
:100DC000080C56F8040C20F44030184346F8040C84
:100DD00056F8900C40F0805046F8900CFFF764FCF9
:100DE000044600BF56F8900C800007D4FFF75CFC67
:100DF000001B6528F6D3032084E000BF002002B06A
:100E0000BDE8F08756F80C1C56F80C2C01F4403164
:100E100002F07062D4E90135114441EA831141EADC
:100E2000057146F80C1C01033FF573AFC1021DD5D7
:100E3000216CB1F5800F19D156F80C1C56F80C2C0A
:100E400001F4403102F0E04263681144E26841EA93
:100E50008311656A41EA026146F80C1C56F8041CCD
:100E60006A1E21F01F01114346F8041CC10110D570
:100E700056F80C1C56F80C2C01F0706102F0E042A0
:100E800063682569114441EA831141EA054146F846
:100E90000C1C80010CD56068A368D4E90321090407
:100EA00041EA801040EA026040EA037046F80C0C08
:100EB00056F8900C40F0806046F8900CFFF7F4FB79
:100EC000054600BF56F8900C00013FF5EAAEFFF76B
:100ED000EBFB401B6428F5D9032002B0BDE8F08786
:100EE000FFF7E2FB054641F2883700BF56F8200CB9
:100EF00080073FF5BAADFFF7D7FB401BB8424FF074
:100F00000300F3D902B0BDE8F08700000000000044
:100F100070470000000000002DE9F041002800F0BB
:100F2000CF8043F608080446C4F202080D46D8F8FC
:100F3000F80300F00F0088420DD2D8F8F80320F033
:100F40000F002843C8F8F803D8F8F80300F00F00A2
:100F5000A84240F0B5802068810717D5410705D524
:100F6000D8F8001041F4E051C8F80010010705D589
:100F7000D8F8001041F46041C8F80010D8F800100B
:100F8000A26821F0F0011143C8F80010C00725D174
:100F9000D8F8F80300F00F00A8420DD9D8F8F803EC
:100FA00020F00F002843C8F8F803D8F8F80300F041
:100FB0000F00A84240F08480206841071AD400073F
:100FC00022D4D8F8000000F00C0008282BD0042808
:100FD0004CD147F64000C0F27D104BE0606802281B
:100FE00062D0012868D158F8081C89036CD401200C
:100FF000BDE8F081D8F80010E26821F4E051114317
:10100000C8F800100007DCD5D8F80000216920F4EA
:10101000604040EAC100C8F80000D8F8000000F0C5
:101020000C000828D3D158F8042C58F8040C4002BE
:1010300047F6400058F8041CC0F27D105CBF42F235
:101040000040C0F2F400C1F3881102F03F02A0FB9F
:1010500001010023FFF7ECF858F8041C0222C1F349
:10106000014102EB4101B0FBF1F003E042F200402C
:10107000C0F2F400D8F800104EF2F042C0F60002C0
:10108000C1F30311515C40F20C02C2F20002C840ED
:1010900040F28801C2F2000108601068FFF728FBE7
:1010A0000020BDE8F08100BF58F8081C89010BD46E
:1010B0000120BDE8F08100BF58F8081C890703D45F
:1010C0000120BDE8F08100BFD8F8001021F0030135
:1010D0000843C8F80000FFF7E7FA064641F28837F0
:1010E000D8F80000616800F00C00B0EB810F3FF40D
:1010F0004FAFFFF7D9FA801BB842F1D90320BDE802
:10110000F08100000000000043F60000C4F202007D
:10111000016841F4002101607047000000000000F8
:1011200040F2880043F60801C2F20000C4F2020156
:101130004EF2005200680968C0F60002C1F3822135
:10114000515CC8407047000040F2880043F6080137
:10115000C2F20000C4F202014EF2005200680968B7
:10116000C0F60002C1F34231515CC8407047000034
:1011700010B543F60404C4F20204606800F00C00E9
:10118000082807D0042825D147F64000C0F27D107A
:1011900010BD00BF22682068400247F64000216869
:1011A000C0F27D105CBF42F20040C0F2F400C1F317
:1011B000881102F03F02A0FB01010023FFF738F87D
:1011C00021680222C1F3014102EB4101B0FBF1F0C1
:1011D00010BD00BF42F20040C0F2F40010BD00009C
:1011E00010B543F60C04C4F202042068000658BF90
:1011F00010BDFFF78DFE8020A07010BD0000000024
:101200002DE9F04182B000286ED00446007843F604
:101210000006C007C4F202060BD0B06800F00C0054
:10122000042840F09F803068800302D56068002861
:101230005AD0207880071AD5B06810F00C0F09D06A
:10124000B06800F00C00082840F0AA8070684002E6
:1012500000F1A6803068800702D5E068012843D1FC
:101260003068216920F0F80040EAC1003060207841
:1012700000073DD4207840074ED4A56985B3B068F7
:1012800000F00C00082840F0BF80012D70682BD0C2
:1012900000F48001E269914226D100F03F01226A08
:1012A000914221D147F6C071626A0140B1EB821FC1
:1012B0001AD1A16A4FF6FF72C903914300F440327C
:1012C000A1F580318A420FD1E16A00F07062B2EB81
:1012D000016F09D1216B00F0E040B0EB017F03D139
:1012E000002002B0BDE8F081012002B0BDE8F0812D
:1012F00060690028706F77D040F001007067FFF7D9
:10130000D3F90546706F8007B4D4FFF7CDF9401BC1
:101310000228F7D915E100BF306C10F0805808D1D1
:10132000306C40F080503064306C00F080500190A0
:10133000019847F20007C4F200073868C00543D49B
:10134000386840F480703860FFF7AEF9054600BF9A
:101350003868C00538D4FFF7A7F9401B6428F7D9CF
:10136000EFE000BFB06800F00C00082803D17068FF
:1013700040023FF558AF6068002800F0B580B0F536
:10138000A02F00F0C980B0F5803F00F0C980306820
:1013900020F480303060306820F48020C3E000BF4B
:1013A000E0680028306851D040F001003060FFF75D
:1013B0007BF90546306880073FF552AFFFF774F9B7
:1013C000401B0228F6D9BCE0A068002850D00528B0
:1013D00068D001286AD0306F20F001003067306F8C
:1013E00020F0040065E000BF20F001007067FFF707
:1013F0005BF90546706F80077FF53CAFFFF754F946
:10140000401B0228F6D99CE0306820F080703060E4
:10141000FFF74AF9022D05460CD100BF3068800164
:1014200040F19480FFF740F9401B02284FF0030081
:10143000F4D956E7306880017FF552AFFFF734F9F1
:10144000401B02284FF00300F4D94AE720F00100C6
:101450003060FFF729F90546306880077FF507AF50
:10146000FFF722F9401B02284FF00300F4D938E7B8
:10147000306F20F001003067306F20F004003067DB
:10148000FFF712F9054641F2883700BF306F800739
:1014900020D5FFF709F9401BB8424FF00300F5D9FA
:1014A0001FE700BF306F40F004003067306F40F03E
:1014B00001003067FFF7F8F8054641F2883700BFB2
:1014C000306F800706D4FFF7EFF8401BB842F7D91A
:1014D00037E000BFB8F1000F7FF4CFAE306C20F0E2
:1014E00080503064C9E600BF306820F4803030603E
:1014F000306820F480203060FFF7D6F8054600BF42
:10150000306880037FF595AEFFF7CEF8401B642866
:101510004FF00300F4D9E4E6306840F480203060F6
:10152000306840F480303060FFF7BEF8054600BFF9
:10153000306880033FF57DAEFFF7B6F8401B6428A6
:10154000F6D9032002B0BDE8F08100BF04F11C070A
:10155000256B8FCF0843D9034FF6FF7340EA821003
:10156000994340EA0760A1F58031084340EA0570DD
:101570007060306840F080703060FFF795F8044686
:10158000306880013FF5ACAEFFF78EF8001B0228F3
:101590004FF00300F4D9A4E6411E0020B0EB116F18
:1015A00002D00120704700BF4EF21002F023CEF2AD
:1015B000000251604EF62351CEF200010B7007215C
:1015C000906011607047000070470000000000004C
:1015D000704700000000000070470000000000009D
:1015E000B0B50446006840F62F02C169056801EAFB
:1015F000020305F0200E202B836809D1BEF1000FF5
:1016000006D0A16E00293BD02046BDE8B040084777
:1016100040F60F02114209D040F2201203F0010CF3
:10162000C0F200422A4012EB0C0215D1226E012AB0
:1016300005D111F0100218BF15F0100222D1CA0214
:1016400014D513F4800211D04FF4801101622046AA
:10165000BDE8B040FFF7BCBFCA0718BF15F48072E1
:1016600040F0A2818A0700F1A981B2E1080640F1A9
:101670009B8015F0800000F09780E16E0029C3D1B7
:10168000B0BD00BF102101628068400600F1C48037
:10169000B4F85800B4F85A10B4F85A20002A18BF09
:1016A0008842EDD0401A216851E8001F226821F4D9
:1016B000907142E80013F3B1216851E8001F2268DD
:1016C00021F4907142E80013002B1FBF216851E8FC
:1016D000001F226821F490711CBF42E80013002B08
:1016E00009D0216851E8001F226821F4907142E876
:1016F0000013002BD7D1216851E8021F226821F086
:10170000010142E80213F3B1216851E8021F226887
:1017100021F0010142E80213002B1FBF216851E8AC
:10172000021F226821F001011CBF42E80213002BB6
:1017300009D0216851E8021F226821F0010142E826
:101740000213002BD7D12021C4F88010002121667C
:10175000A166216851E8001F226821F0100142E8CB
:101760000013F3B1216851E8001F226821F0100135
:1017700042E80013002B1FBF216851E8001F2268B8
:1017800021F010011CBF42E80013002B09D0216892
:1017900051E8001F226821F0100142E80013002BDD
:1017A000D7D181B230E200BF48067FF569AF15F0AE
:1017B000400008BFB0BD206850E8000F216820F04D
:1017C000400041E80002F2B1206850E8000F2168B3
:1017D00020F0400041E80002002A1FBF206850E8C6
:1017E000000F216820F040001CBF41E80002002AE1
:1017F00009D0206850E8000F216820F0400041E83F
:101800000002002AD7D12020E0670020E0662046B1
:10181000BDE8B04000F0B4BB606F01684A68B4F83E
:10182000583091B2002900F0E781994280F0E481BC
:10183000A4F85A20C069B0F5807F00F0A880206825
:1018400050E8000F216820F4807041E80002F2B1F6
:10185000206850E8000F216820F4807041E8000201
:10186000002A1FBF206850E8000F216820F4807014
:101870001CBF41E80002002A09D0206850E8000F90
:10188000216820F4807041E80002002AD7D1206846
:1018900050E8020F216820F0010041E80202F2B195
:1018A000206850E8020F216820F0010041E80202A0
:1018B000002A1FBF206850E8020F216820F00100B5
:1018C0001CBF41E80202002A09D0206850E8020F3C
:1018D000216820F0010041E80202002AD7D12068E7
:1018E00050E8020F216820F0400041E80202F2B106
:1018F000206850E8020F216820F0400041E8020211
:10190000002A1FBF206850E8020F216820F0400025
:101910001CBF41E80202002A09D0206850E8020FEB
:10192000216820F0400041E80202002AD7D120209F
:10193000C4F8800000202066206850E8000F21686D
:1019400020F0100041E80002F2B1206850E8000FDA
:10195000216820F0100041E80002002A1FBF206823
:1019600050E8000F216820F010001CBF41E8000281
:10197000002A09D0206850E8000F216820F01000EC
:1019800041E80002002AD7D1606FFEF739FD02203E
:101990006066B4F85800B4F85A10401A81B2204674
:1019A000BDE8B040FFF710BE01220262D4F88420E7
:1019B00042F00102C4F884208A070AD5BCF1000F66
:1019C00007D002220262D4F8842042F00402C4F854
:1019D00084204A070AD5BCF1000F07D00422026216
:1019E000D4F8842042F00202C4F884200A070DD5FE
:1019F0004EEA0C02B2FA82F2520907D108220262C0
:101A0000D4F8842042F00802C4F884200A050BD5DB
:101A100015F0806208D04FF400620262D4F884208E
:101A200042F02002C4F88420D4F88420002A3FF435
:101A300027AE11F0200118BFBEF1000F40F0D48096
:101A4000D4F88410806800F0400001F028014018AC
:101A500006D12046FFF7C0FD0020C4F88400B0BDC9
:101A6000206850E8000F216820F4907041E80002DF
:101A7000F2B1206850E8000F216820F4907041E82E
:101A80000002002A1FBF206850E8000F216820F4E0
:101A900090701CBF41E80002002A09D0206850E87D
:101AA000000F216820F4907041E80002002AD7D18D
:101AB000206850E8020F216820F0010041E802028E
:101AC000F2B1206850E8020F216820F0010041E8DF
:101AD0000202002A1FBF206850E8020F216820F090
:101AE00001001CBF41E80202002A09D0206850E82A
:101AF000020F216820F0010041E80202002AD7D13C
:101B0000206E012827D1206850E8000F216820F0BE
:101B1000100041E80002F2B1206850E8000F21688F
:101B200020F0100041E80002002A1FBF206850E8A2
:101B3000000F216820F010001CBF41E80002002ABD
:101B400009D0206850E8000F216820F0100041E81B
:101B50000002002AD7D12020C4F88000002020668F
:101B60002168A0668868400638D5206850E8020FD2
:101B7000216820F0400041E80202F2B1206850E8FC
:101B8000020F216820F0400041E80202002A1FBF36
:101B9000206850E8020F216820F040001CBF41E897
:101BA0000202002A09D0206850E8020F216820F0C4
:101BB000400041E80202002AD7D1606F70B142F2C2
:101BC000E941C0F600010165FEF762FC00283FF420
:101BD00057AD606F016DBDE8B04008472046BDE8D5
:101BE000B040FFF7F9BC00BFA16E00293FF428AF59
:101BF00020468847206823E78B427FF441ADC069C7
:101C0000B0F5807F7FF43CAD022060662046BDE8E1
:101C1000B040FFF7D9BC000010B5D0B10446C06F8A
:101C200028B9002084F87800204600F029F8242004
:101C3000E0672068616A0029026822F00101016002
:101C400002D0204600F024FB204600F011FE0128BF
:101C500002D1012010BD00BF2068416821F49041ED
:101C60004160816821F02A018160016841F0010131
:101C700001602046BDE8104000F07ABB0000000083
:101C8000B0B5AAB0044601A841F2000504308C2189
:101C9000C4F20105FEF71BFB2068A84202D02AB05F
:101CA000B0BD00BF4020019001A8FEF745FE08B17D
:101CB000FEF79EFB43F63000C4F20200416941F09A
:101CC00010014161416901F01001259125990168D8
:101CD00041F002010160006825A900F00200259092
:101CE00025984FF440402590022026900020279010
:101CF000032028900420299005F57440FEF7F0FB9E
:101D0000252006210022FEF79BFD2520FEF784FDFD
:101D10002AB0B0BD0000000080B5D0F88030202B84
:101D200006D10123002918BF002A03D1184680BD1F
:101D3000022080BD0023036603685B681B0205D494
:101D400000F0B6FE0023184680BD00BF036853E8CC
:101D500000CFD0F800E04CF080634EE8003CBCF1CE
:101D6000000FEDD0036853E800CFD0F800E04CF04E
:101D700080634EE8003CBCF1000F1FBF036853E8CE
:101D800000CFD0F800E04CF080631CBF4EE8003C70
:101D9000BCF1000FD4D0036853E800CFD0F800E0C6
:101DA0004CF080634EE8003CBCF1000FCED1C7E799
:101DB00041F200010068C4F20101884218BF704777
:101DC00040F2900140F6EC02C2F20001C2F20002C1
:101DD0004B680878D05441F6C050C2F2000001228E
:101DE00001334B60FFF798BF2DE9F0410446C06F07
:101DF000202845D10D4600294FF0010000F0BB809E
:101E00001646002A08BFBDE8F08198460020C4F8B5
:101E100084002120E067FEF747FCA4F85060A4F896
:101E200052600646A168B1F5805F02D120690028A2
:101E300070D02F460025B4F85200002870D018F159
:101E4000010021D0B8F1000F42D121680CE000BFA1
:101E500017F8010B8862B4F852000138A4F8520058
:101E6000B4F8520000285CD0C869000640F17E80BA
:101E7000002FEDD135F8020B00276FF35F20E9E763
:101E80000220BDE8F08100BF216802E0C8690006B9
:101E900009D4C869000606D4C86900065CBFC869D1
:101EA0005FEA0060F2D51FB117F8010B05E000BF33
:101EB00035F8020B00276FF35F208862B4F85200F8
:101EC0000138A4F85200B4F852000028E1D128E00B
:101ED000216800BFC869000608D4FEF7E5FB801B37
:101EE000404545D821680868F4E700BF17B117F8E6
:101EF000010B04E035F8020B00276FF35F208862C6
:101F0000B4F852000138A4F85200B4F85200002886
:101F1000E0D106E00027B4F8520000287FF48FAF2C
:101F20002168C86940061FD4B8F1000F1ED018F10F
:101F300001000FD1C869400616D4C869400613D401
:101F4000C869400610D4C86940064FF00000F1D5BA
:101F50000FE000BFFEF7A8FB801B404508D82068B3
:101F60000168C0694006F5D5002002E0FEF79CFB41
:101F700003202021E167BDE8F0810000000000009F
:101F8000704700000000000000BE70470000000025
:101F900010B586B043F6300040F20044C4F20200AF
:101FA000C4F20204016841F00201016000680121ED
:101FB00000F002000190019803200190CDE9021188
:101FC000049001A92046FEF78BFA01210122204648
:101FD000FEF762FB022101222046FEF75DFB06B000
:101FE00010BD00000000000080B542F261204EF6F6
:101FF0005C42C0F60000C0F60002002105F06CFE55
:1020000042F29831C2F20001086080BD0000000079
:1020100083B043F63000C4F20200016841F0800151
:102020000160016801F0800102910299016841F0AC
:1020300002010160016801F002010191019901684A
:1020400041F001010160006800F00100009000987B
:1020500003B070470000000080B541F6C05041F267
:102060000001C2F20000C4F201010C2201604FF431
:10207000E13141600021C0E902110161C0E905219F
:10208000C0E907114162FFF7C7FD08B1FEF7B0F9DB
:1020900041F6C05040F29001C2F20000C2F20001CD
:1020A0000122BDE88040FFF737BE000000000000BD
:1020B000FEE7000000000000FFF792F8FEE70000D6
:1020C0000020012109F094BC0120012109F090BCFD
:1020D000EFF30980BFF36F8F154B1A681EF0100FD6
:1020E00008BF20ED108A20E9F04F10602DE90900AB
:1020F0004FF0500072B680F31188BFF34F8FBFF3DB
:102100006F8F62B60AF08CFE4FF0000080F31188EA
:10211000BDE8090019680868B0E8F04F1EF0100F1C
:1021200008BFB0EC108A80F30988BFF36F8F704747
:1021300098000020000000000000000000000000E7
:10214000074B19680868B0E8F04F80F30988BFF3BF
:102150006F8F4FF0000080F31188704700BF00BF01
:10216000980000200000000080B5FEF7A5FA0BF0F3
:10217000C7FC012808BF80BDBDE880400AF058BFF9
:1021800080B594B000200690CDE90B00CDE90900A0
:10219000CDE90400CDE9020043F64000C4F202009C
:1021A000016841F080510160006800F080500190AA
:1021B00047F200000199C4F20000016841F4404177
:1021C000016000684FF4800100F4404001900198E4
:1021D000012007904FF48030089002200D900E915E
:1021E00019210F914FF4D871CDE910100921CDE9D3
:1021F000121007A8FFF704F820B1EFF3108072B6B1
:10220000FEE700BFFEF75CFB20B1EFF3108072B673
:10221000FEE700BF0F2002900220039000200490F0
:102220004FF4A05005904FF48050069002A807216B
:10223000FEF772FE20B1EFF3108072B6FEE700BF2A
:10224000FEF762FF14B080BD4EF68850CEF200005B
:10225000016841F470010160704700000000000057
:1022600082B000F09DFE4AF60220ADF8040001A9FC
:10227000002009F0CDFB00BF4FF0FF30002109F036
:102280004FF9012005F09CFCF6E70000000000007B
:10229000416A0A070CD4CA0715D18A071ED44A0717
:1022A00027D4CA0630D48A0639D44A0655D541E027
:1022B0000268D0F834C0536823F4004343EA0C03A7
:1022C0005360CA07E9D00268D0F828C0536823F4E5
:1022D000003343EA0C0353608A07E0D50268D0F864
:1022E0002CC0536823F4803343EA0C0353604A073D
:1022F000D7D50268D0F830C0536823F4802343EA6E
:102300000C035360CA06CED50268D0F838C0936873
:1023100023F4805343EA0C0393608A06C5D5026810
:10232000D0F83CC0936823F4005343EA0C03936055
:102330004A0612D50268D0F840C05368BCF5801F29
:1023400023F4801343EA0C03536006D1536823F44B
:10235000C00C436C43EA0C035360090658BF704736
:102360000168806C4A6822F400221043486070477C
:10237000B0B582B004460020C4F88400FEF794F99A
:10238000216805460A68120737D54FF4001100226C
:102390006FF07E40009020462B4600F045FC58B37D
:1023A000206850E8000F216820F0800041E800021A
:1023B000F2B1206850E8000F216820F0800041E869
:1023C0000002002A1FBF206850E8000F216820F09B
:1023D00080001CBF41E80002002A09D0206850E8B4
:1023E000000F216820F0800041E80002002AD7D1C8
:1023F0002020E06763E000BF21680868400765D5DA
:102400004FF4800100226FF07E40009020462B4662
:1024100000F00AFC002859D0206850E8000F21681D
:1024200020F4907041E80002F2B1206850E8000FFB
:10243000216820F4907041E80002002A1FBF206844
:1024400050E8000F216820F490701CBF41E80002A2
:10245000002A09D0206850E8000F216820F490700D
:1024600041E80002002AD7D1206850E8020F216815
:1024700020F0010041E80202F2B1206850E8020FAA
:10248000216820F0010041E80202002A1FBF2068F5
:1024900050E8020F216820F001001CBF41E8020251
:1024A000002A09D0206850E8020F216820F00100BE
:1024B00041E80202002AD7D12020C4F8800003207E
:1024C000002184F8781002B0B0BD00BF2020E06782
:1024D000C4F88000002020666066002184F878102F
:1024E00002B0B0BD00000000806B0021A0F85A10BF
:1024F000FFF772B800000000B0F85C200168D0F867
:102500008030222B40F0A280496A436D114023F8AD
:10251000021B4365B0F85A100139A0F85A10B0F800
:102520005A10002918BF7047016851E8001F02685F
:1025300021F4907142E80013F3B1016851E8001FE3
:10254000026821F4907142E80013002B1FBF01685C
:1025500051E8001F026821F490711CBF42E800138B
:10256000002B09D0016851E8001F026821F4907126
:1025700042E80013002BD7D1016851E8021F02681E
:1025800021F0010142E80213F3B1016851E8021F92
:10259000026821F0010142E80213002B1FBF01680D
:1025A00051E8021F026821F001011CBF42E802133A
:1025B000002B09D0016851E8021F026821F00101D7
:1025C00042E80213002BD7D12021C0F8801000214F
:1025D000816641660168496809023DD4016E01299E
:1025E00064D100210166016851E8001F026821F0F2
:1025F000100142E80013F3B1016851E8001F0268BE
:1026000021F0100142E80013002B1FBF016851E8C0
:10261000001F026821F010011CBF42E80013002BCC
:1026200009D0016851E8001F026821F0100142E85A
:102630000013002BD7D10168CA69D20601D5102238
:102640000A62B0F85810FEF7BFBF00BF886940F0BB
:1026500008008861704700BF016851E8001F0268E8
:1026600021F0806142E80013002BB7D0016851E8E7
:10267000001F026821F0806142E80013002B1FBF99
:10268000016851E8001F026821F080611CBF42E828
:102690000013002BA2D0016851E8001F026821F04E
:1026A000806142E80013002BD6D197E7FFF780BB8B
:1026B000B0F85C100268D0F88030222B40F0A48083
:1026C000526A436D11401970416D01314165B0F896
:1026D0005A100139A0F85A10B0F85A10002918BF42
:1026E0007047016851E8001F026821F4907142E8C8
:1026F0000013FBB1016851E8001F026821F49071DA
:1027000042E80013002B1FBF016851E8001F026858
:1027100021F490711CBF42E80013002B0AD001681D
:1027200051E8001F026821F4907142E80013002B69
:10273000D7D100BF016851E8021F026821F00101F2
:1027400042E80213F3B1016851E8021F026821F068
:10275000010142E80213002B1FBF016851E8021F6C
:10276000026821F001011CBF42E80213002B09D0CE
:10277000016851E8021F026821F0010142E80213DA
:10278000002BD7D12021C0F880100021816641663E
:102790000168496809023DD4016E012964D1002114
:1027A0000166016851E8001F026821F0100142E84B
:1027B0000013F3B1016851E8001F026821F0100115
:1027C00042E80013002B1FBF016851E8001F026898
:1027D00021F010011CBF42E80013002B09D0016852
:1027E00051E8001F026821F0100142E80013002B9D
:1027F000D7D10168CA69D20601D510220A62B0F8A1
:102800005810FEF7E1BE00BF906940F008009061EB
:10281000704700BF016851E8001F026821F0806125
:1028200042E80013002BB7D0016851E8001F02688E
:1028300021F0806142E80013002B1FBF016851E8BE
:10284000001F026821F080611CBF42E80013002BCA
:10285000A2D0016851E8001F026821F0806142E8BF
:102860000013002BD6D197E7FFF7A2BA00000000B3
:1028700070B506460168806846F6F315D6E903325E
:1028800002437069D6F81CC00C68CEF6FF75104381
:1028900004EA0502104340EA0C000860486820F48E
:1028A000405018434860B06947F2FF73326AC4F27F
:1028B000000310438A6822F43062994240EA020021
:1028C0004FF01002886019DC44F6FF30C4F20000BB
:1028D00081422DDC44F20040C4F2000081424DD020
:1028E00044F60000C4F20000814271D143F690002A
:1028F000C4F202000068010956E000BF40F6FF7014
:10290000C4F20100814227DC47F60000C4F2000057
:1029100081423BD047F60040C4F20000814257D1CB
:1029200043F69000C4F202000068810B3CE000BF57
:1029300044F60040C4F2000081422FD045F200006E
:10294000C4F20000814243D143F69000C4F2020079
:102950000068010A28E000BF41F20040C4F2010013
:10296000814227D041F20000C4F2010081422FD100
:1029700043F69000C4F20200016821E043F69000A3
:10298000C4F20200006881080EE000BF43F6900028
:10299000C4F202000068010B06E000BF43F690009D
:1029A000C4F20200006881094EF27452C0F60002BF
:1029B0000AE000BF43F69000C4F202000068810AFA
:1029C0004EF26452C0F6000201F0030052F82020DB
:1029D00042F20040BCF5004FC0F2F4000ED1082ACC
:1029E0004FF0010122D8DFE802F0051929211D214D
:1029F00021212700FEF794FB00BB16E0082A4FF0C8
:102A0000010113D8DFE802F0062E3812321212123A
:102A1000360000BFFEF784FB70BB3AE0FEF794FB84
:102A200060B902E0FEF7A4FB40B900210020C6E92E
:102A30001A00084670BD00BF4FF4004071684A0894
:102A400002EB40004FF6EF72B0FBF1F0A0F1100185
:102A5000914225D84FF6F0710140C0F3420008447E
:102A600015E000BFFEF770FB30B912E0FEF780FB07
:102A700010B90EE04FF4004071684FF6EF7200EBB2
:102A80005100B0FBF1F0A0F11001914208D831687B
:102A9000C86000210020C6E91A00084670BD00BFCA
:102AA00001210020C6E91A00084670BD00000000A0
:102AB0004165A0F85820A0F85A200022816882665B
:102AC00051B1B1F1805F0BD0B1F5805F0CD10169DC
:102AD00021B940F2FF110AE0016939B9FF2106E08E
:102AE000016919B13F2102E0002100E07F21A0F837
:102AF0005C100021C0F884102221C0F88010016809
:102B000051E8021F026841F0010142E80213F3B1EB
:102B1000016851E8021F026841F0010142E8021316
:102B2000002B1FBF016851E8021F026841F001013C
:102B30001CBF42E80213002B09D0016851E8021FB4
:102B4000026841F0010142E80213002BD7D18168ED
:102B5000B1F5805F016907D1B1B342F2B161C0F64E
:102B60000001816606E000BF42F2B162C0F60002D9
:102B7000826671B3016851E8001F026841F49071E8
:102B800042E80013002B4CD0016851E8001F026896
:102B900041F4907142E80013002B1FBF016851E817
:102BA000001F026841F490711CBF42E80013002B23
:102BB00037D0016851E8001F026841F4907142E883
:102BC0000013002BD6D12CE042F2F941C0F60001EF
:102BD0008166016851E8001F026841F0200142E867
:102BE0000013F3B1016851E8001F026841F02001B1
:102BF00042E80013002B1FBF016851E8001F026864
:102C000041F020011CBF42E80013002B09D00168ED
:102C100051E8001F026841F0200142E80013002B38
:102C2000D7D10020704700002DE9F04180460068B0
:102C30000D46C7693940491BB1FA81F149099142F2
:102C400025D1069C34B31646611C29D1C16929409F
:102C5000491BB1FA81F14909B14218D1C169294032
:102C6000491BB1FA81F14909B14201BFC16929404B
:102C7000491BB1FA81F104BF4909B14207D1C169C9
:102C80002940491BB1FA81F14909B142DED0002047
:102C9000BDE8F081FDF708FD0320BDE8F08100BF2D
:102CA0001F4607E0C0692840401BB0FA80F0400989
:102CB000B042ECD1FDF7F8FCC01BA04200F2B68098
:102CC000D8F8000001684907ECD5402D18BF802DC9
:102CD000E8D0C169090700F1AD80C1690905E1D5F6
:102CE0004FF400610162D8F8000050E8000FD8F8F6
:102CF000001020F4907041E8000222B3D8F80000E0
:102D000050E8000FD8F8001020F4907041E800025D
:102D1000002A1FBFD8F8000050E8000FD8F80010B4
:102D200020F490701CBF41E80002002A0BD0D8F8B4
:102D3000000050E8000FD8F8001020F4907041E82F
:102D40000002002ACFD1D8F8000050E8020FD8F8CE
:102D5000001020F0010041E8020222B3D8F8000080
:102D600050E8020FD8F8001020F0010041E80202FC
:102D7000002A1FBFD8F8000050E8020FD8F8001052
:102D800020F001001CBF41E80202002A0BD0D8F855
:102D9000000050E8020FD8F8001020F0010041E8D0
:102DA0000202002ACFD1D8F8600001282FD1D8F82C
:102DB000000050E8000FD8F8001020F0100041E8A3
:102DC000000222B3D8F8000050E8000FD8F8001035
:102DD00020F0100041E80002002A1FBFD8F80000D0
:102DE00050E8000FD8F8001020F010001CBF41E898
:102DF0000002002A0BD0D8F8000050E8000FD8F8E5
:102E0000001020F0100041E80002002ACFD120205D
:102E1000C8F880000021C8F86010C8F86810C8F829
:102E20008400032088F87810BDE8F0810320BDE815
:102E3000F08100BF08210162D8F8000050E8000FBF
:102E4000D8F8001020F4907041E8000222B3D8F8BE
:102E5000000050E8000FD8F8001020F4907041E80E
:102E60000002002A1FBFD8F8000050E8000FD8F871
:102E7000001020F490701CBF41E80002002A0BD023
:102E8000D8F8000050E8000FD8F8001020F4907037
:102E900041E80002002ACFD1D8F8000050E8020F24
:102EA000D8F8001020F0010041E8020222B3D8F85F
:102EB000000050E8020FD8F8001020F0010041E8AF
:102EC0000202002A1FBFD8F8000050E8020FD8F80D
:102ED000001020F001001CBF41E80202002A0BD0C4
:102EE000D8F8000050E8020FD8F8001020F00100D8
:102EF00041E80202002ACFD1D8F8600001282FD182
:102F0000D8F8000050E8000FD8F8001020F01000AA
:102F100041E8000222B3D8F8000050E8000FD8F8CA
:102F2000001020F0100041E80002002A1FBFD8F86E
:102F3000000050E8000FD8F8001020F010001CBF6F
:102F400041E80002002A0BD0D8F8000050E8000F3A
:102F5000D8F8001020F0100041E80002002ACFD17C
:102F60002020C8F880000020C8F86000C8F8680079
:102F70000821C8F8841088F878000120BDE8F081A5
:102F800041F6C050C2F20000FEF72ABB000000006C
:102F9000FEE70000000000004169C078087070473B
:102FA000F0B5ABB002AC8C21201D00272A972997E1
:102FB000FDF78DF94FF4001002902046FDF7BCFCA0
:102FC00043F630060024C4F20206C4F2020426AD21
:102FD0003068294640F001003060306800F00100A0
:102FE000019001984FF40070CDE9260720462897FC
:102FF000FDF776FA4FF4C050269002202946CDE91D
:103000002707032029900A202A902046FDF768FA16
:103010007068062140F0800070607068002200F047
:10302000800001900198706940F48040706170697F
:1030300000F48040009000984320FDF701FC4320FD
:10304000FDF7EAFB2BB0F0BD2DE9F04F84B041F263
:10305000EC020D46C2F20002002702EBC106039506
:103060007378F78003EB430302EBC30EF34600EBE8
:10307000411303F5A0625BF8804F14F480210091A6
:103080000DD04DF6FF76D0F8087406EA144467F3C5
:103090004D3484F40054ABF80240DBF8004024F0D7
:1030A00000441460BEF89410BBF900A00026CDE9DE
:1030B000011359B157460B466FF3DF27CC19013C7A
:1030C000B4FBF7F41FFA84F903E000BF4FF00109E5
:1030D00000239EF88A404FF498084D466FF39F29CD
:1030E000C4F3011708EA04444FEA477CB4F590049E
:1030F000A7F103074CEAC94118BF0124B7FA87F7C3
:10310000BAF1000F48BF01267F09194427430EF189
:10311000880457EA060A08BF01F10041DDF808C03B
:10312000CCF810159EF88A10BBF80030BEF88870F5
:1031300013F4F04F47EA014601F0BF018EF88A1000
:103140000CD0C6F30151EB074FF6FF7318BF81F0A7
:103150000201C0F28F030F051E4007E04FF6FF711A
:10316000C0F28F0106EA01074FF4001647EA060194
:103170002180090CA1705EF8841FCCF804154FF073
:10318000FF31CCF80815816CBBF9001000290DD473
:10319000BEF9021040F2F944BAF1000F18BF40F234
:1031A000D944002948BF40F2F94401E040F2B95443
:1031B000CCF80C450121039B9940D0F818341943F1
:1031C000C0F81814BBF90010B1F1FF3F12DD11680F
:1031D000019B41F000411160D3B1009A4FF0806132
:1031E000002A00F1180208BF20210EE0C16AC1F3D5
:1031F000074141B911684903F8D5D0F81014C1F35B
:1032000006410029F6D04FF00041106808431060D5
:1032100004B0BDE8F08F000010B541F640546221C3
:10322000C2F2000404F11E00FDF751F809A109489B
:1032300020604A6862608868A060CA68E2600869C5
:103240004A69C4E90402888BA08336208969A16198
:1032500010BD00BF68656C703A0A202068656C700C
:10326000202D200A202076657273696F6E202D2034
:103270000A000000000000002DE9F04391B04EF676
:10328000E1019946C0F600019046FDF755F858B1A6
:1032900007462AA003223946FDF73FF850B1002720
:1032A000384611B0BDE8F0830027384611B0BDE8BC
:1032B000F08300BF4EF6E104002601ADC0F6000425
:1032C0000020214645F826700136FDF735F80746FF
:1032D0000028F5D1002045F82600029C18A12046C0
:1032E000FDF700F840B901A93046FFF795FF074602
:1032F0000138484515D3029C13A12046FCF7F2FF84
:1033000038B901A9304600F023F80746013848458E
:1033100007D301A93046FFF77FFF0746013848452C
:10332000BED241F640514046C2F200013A46FCF797
:10333000B5FF384611B0BDE8F08300BF636C69008B
:1033400068656C700000000076657273696F6E00CE
:1033500010B541F640547021C2F2000404F110008F
:10336000FCF7B5FF46F2765046F66972C7F2723046
:10337000206043F2200043F22E11C3F66E22C3F206
:103380002E00C4E901201020C0F20A01E16010BD46
:103390002DE9F0418AB0C178C1B14EF2B5504EF678
:1033A0002C31C0F60000C0F600014FF4A2720AF002
:1033B000EBFD4EF6F050CEF200000068C00700F0C2
:1033C0008B8000BE0AB0BDE8F08100BF047840F2F7
:1033D0007018C2F200088068671F808808EBC70574
:1033E000A97A884232D12E46204616F8091F08F0E5
:1033F000BBFF80B108EB0710317800F1100200200C
:10340000009001230190204609F06AF8B8B931789C
:10341000204609F031F84EF2B5504EF62C31C0F688
:103420000000C0F6000140F24D120AF0ADFD4EF66C
:10343000F050CEF200000068C00700D000BE297A2C
:1034400020460AB0BDE8F04108F03ABE012122460C
:1034500051FA80F02321C3B283424FF0030018BF1A
:1034600020218DF8210008208DF8201008A9ADF842
:1034700022000020CDE9041043F29131ADF826007E
:10348000CDF80900C0F600010390CDE906104EF614
:10349000C8104EF6BF21C0F60000C0F60001ADF81E
:1034A00024308DF808400AF06FFD02A807F038F8C4
:1034B00090B94EF2B5504EF61731C0F60000C0F686
:1034C000000193220AF060FD4EF6F050CEF20000AB
:1034D0000068C00700D000BE0AB0BDE8F08100005F
:1034E00080B588B0C17899B14EF2B5502EA1C0F622
:1034F000000040F231120AF047FD4EF6F050CEF2D5
:1035000000000068C0074DD000BE08B080BD00BFFD
:10351000027840F27011C2F200018DF80020501FB5
:1035200001EB001301EBC000997D5B7E817206A95F
:10353000C37240F22330ADF818000820C0F2010039
:10354000CDF81A000020ADF81E00CDE9021043F2BC
:103550009131CDF801000190C0F60001CDE90410D1
:103560004EF6C8104EF6BF21C0F60000C0F60001AE
:1035700001230AF009FD684606F0D2FF90B94EF229
:10358000B5504EF61731C0F60000C0F60001932288
:103590000AF0FAFC4EF6F050CEF200000068C007C8
:1035A00000D000BE08B080BD636F6E6669675F7350
:1035B00065745F706F72745F706F77657200000082
:1035C000B0B55FEA920C00F5805011D01CF00304F6
:1035D000ACF1010E0ED00B46012C056843F8045BDC
:1035E0000CD11946F446BEF1030F1FD22FE000BFE5
:1035F0000B462CE0BEF1030F18D228E0022C036822
:103600004B6009D101F10803ACF1020C1946BEF17F
:10361000030F0BD21BE000BFACF1030C01F10C0354
:1036200004688C601946BEF1030F10D30B4600BF2F
:10363000016819600168596001689960ACF1040C77
:1036400001685FEA0C45D96003F11003F0D112F074
:1036500003010BD001290068187007D003294FEA35
:103660001021597018BFB0BD000C9870B0BD00009B
:10367000B0B500EB01309C0800F580502DD014F05F
:103680000305A4F1010C13D09646012D5EF8041B2E
:10369000016061460ED0022D516801602ED1A11E3D
:1036A00002F1080EBCF1030F724616D306E000BF0C
:1036B00096462146BCF1030F72460ED3724600BFF8
:1036C0001568056055680560956805600439D5681A
:1036D0000C0402F110020560F2D113F0030308BFDD
:1036E000B0BD1178012B07D05578032B41EA052195
:1036F00002D1927841EA02410160B0BDE11E02F1BF
:103700000C0E95680560BCF1030F7246E5D3D5E752
:103710002DE9F04F81B001280FF2744388BF0020DB
:1037200040F2000A934600010D46C4F2040A1F58F5
:103730000FF27C400AF080FE4EF6F736F96BC0F6C9
:10374000000630460AF020FC396C30460AF01CFCBA
:10375000796C30460AF018FCB96C30460AF014FC5B
:10376000F96C30460AF010FC396D0FF278400AF01F
:103770000BFC386C4FF6FF7120EA01090024002091
:10378000C4F65474C5F23150A14518BF814540F0CC
:103790008980B86820F00100B860EDB13D4655F869
:1037A0000C4FE86B6A6C00F0C00102F440488029BD
:1037B00040F0B2804FF62770CFF6C57004404EF649
:1037C000DE30C0F600000AF037FE3A4604F1100081
:1037D000F86052F8381FC1E00FF220400AF02CFECA
:1037E0003D46574555F80C0F40F040002860B96B36
:1037F00041F48031B96307D143F65001C4F20201AC
:103800000A6822F080420A603969002909D43969BE
:1038100000295CBF3969002903D43969B1F1FF3F40
:10382000F2DC396C4FF6FE72114044F20A229142EA
:10383000396941F0010139610ED23969C9071ED0D9
:103840003969C9071CBF39695FEAC17117D0396985
:10385000C907F2D113E000BF3969890009D4396979
:1038600089005CBF39695FEA810102D43969890046
:10387000F2D5396941F0005121F00101396139690E
:10388000002909D4396900295CBF3969002903D4AA
:103890003969B1F1FF3FF2DC052161F38D20286029
:1038A000B5E000BF40F20008C5F23258C1453FF410
:1038B00070AF4EF2B5504EF6F056C0F60000CCA1F7
:1038C000AD22CEF200060AF05FFB3068C00700D0E0
:1038D00000BE0020A145C5F231503FF45AAF8145EA
:1038E00018BFC1453FF455AF4EF2B5504EF60041FA
:1038F000C0F60000C0F60001D3220AF045FB4EF6E8
:10390000F0500026CEF20000C5F231560068C00724
:1039100000F0278100BE24E1C6B24EF6C430C0F6E6
:1039200000000AF089FD24F05800B8F1000F18BF1C
:1039300008303A463F2EF86052F8381F0ED85745E7
:1039400041F48031B96307D143F65001C4F202015A
:103950000A6822F080420A60012103E021F48031EC
:10396000116000213A69002A09D43A69002A5CBF33
:103970003A69002A03D43A69B2F1FF3FF2DC3A6CAB
:103980004FF6FE731A4044F20A239A423A6942F013
:1039900001023A610ED23A69D2071ED03A69D207C3
:1039A0001CBF3A695FEAC27217D03A69D207F2D1F6
:1039B00013E000BF3A69920009D43A6992005CBFF3
:1039C0003A695FEA820202D43A699200F2D53A6912
:1039D00042F0005222F001023A613A69002A09D409
:1039E0003A69002A5CBF3A69002A03D43A69B2F105
:1039F000FF3FF2DC4FF4A052B8F1000F08BF4FF4C4
:103A0000105220F4705000291044286063D040F216
:103A10008800C2F20000016844F2FF70C0F2E810B2
:103A2000814203D94FF4C05050E000BF49F6DF5047
:103A3000C0F2A310814203D94FF4E05046E000BF2A
:103A400043F2FF50C0F26E10814203D94FF4005090
:103A50003CE000BF4AF23F40C0F24C10814203D923
:103A60004FF4105032E000BF42F6FF40C0F2311078
:103A7000814203D94FF4205028E000BF44F69F1044
:103A8000C0F21A10814203D94FF430501EE000BF3B
:103A900047F27F30C0F20610814203D94FF4405004
:103AA00014E000BF42F2FF30C0F2F400814203D9BB
:103AB0004FF450500AE000BF4EF2BF124FF4705066
:103AC000C0F2E402914288BF4FF46050296821F4AB
:103AD000705108432860F86840F00700F860D7F894
:103AE000000E20F00F00C7F8000E4FF4846038611C
:103AF0003869800609D53869800644BF38695FEAAD
:103B0000806002D538698006F2D4102038613869A7
:103B1000C00609D53869C00644BF38695FEAC0608D
:103B200002D53869C006F2D44FF0FF307861786072
:103B30000020B86136A059460AF026FABBF1000F02
:103B400008D0B868002640F02600B860C5F23156AB
:103B500007E000BF0026B869C5F2315640F01000FA
:103B6000B861A9EB0A00A9EB0601A0F17560A1F507
:103B70008032B0FA80F0B1FA81F14009B2FA82F2F3
:103B8000490952090843104301B0BDE8F08F00BF56
:103B90000000005043000000060000000005000087
:103BA000000004404D00000009000000001000006B
:103BB000677569642C2067736E707369642C206765
:103BC0006877636667312C20676877636667322C95
:103BD00020676877636667332C206768776366675A
:103BE000340D00003078253038580D0A00000000F0
:103BF000636865636B5F64776332000046756C6C65
:103C000073706565642050485920696E69740D00B1
:103C1000444D41203D2025750D0A000000000000A4
:103C2000022901D100207047806C10F0C00018BF3D
:103C3000012070470000000080B501EB410341F214
:103C4000EC0CC2F2000C0CEBC30E3EF8882F9EF871
:103C50000230AEF8002043F080038EF802309CF86A
:103C600000202AB19CF801208A4201D1002194E071
:103C70009CF8082032B19CF809208A4202D1012127
:103C80008BE000BF9CF8102032B19CF811208A42D2
:103C900002D1022181E000BF9CF8182032B19CF8CB
:103CA00019208A4202D1032177E000BF9CF820202E
:103CB00032B19CF821208A4202D104216DE000BF7C
:103CC0009CF8282032B19CF829208A4202D1052193
:103CD00063E000BF9CF8302032B19CF831208A426A
:103CE00002D1062159E000BF9CF8382032B19CF87F
:103CF00039208A4202D107214FE000BF9CF84020C2
:103D000032B19CF841208A4202D1082145E000BF2F
:103D10009CF8482032B19CF849208A4202D10921FE
:103D20003BE000BF9CF8502032B19CF851208A4201
:103D300002D10A2131E000BF9CF8582032B19CF832
:103D400059208A4202D10B2127E000BF9CF8602055
:103D500032B19CF861208A4202D10C211DE000BFE3
:103D60009CF8682032B19CF869208A4202D10D216A
:103D700013E000BF9CF8702032B19CF871208A4299
:103D800002D10E2109E000BF9CF87820002A45D01E
:103D90009CF879208A4241D10F210CEBC10200EB43
:103DA0004111937843F080039370D1F80025836C20
:103DB000520301F5A06211D4C36A13F47F0F21D11D
:103DC000C36A13F47F0F04BFC36A13F47F0F19D1C2
:103DD000C36A13F47F0FEFD014E000BFD0F81034A3
:103DE00013F4FE0F0ED1D0F8103413F4FE0F04BFFD
:103DF000D0F8103413F4FE0F04D1D0F8103413F4BB
:103E0000FE0FEBD0D1F80C0540F00200C1F80C0514
:103E1000106840F04040106080BD00BFAEF1080067
:103E200041886FF3DF31418080BD00000000000059
:103E30002DE9F04F89B041F67836411ECBB2C2F27F
:103E4000000641F69C115E22C2F20001079010FBB1
:103E50000211002016F8084F052B758838BFA1F114
:103E60005E002946089058A00AF08EF8AC4280F017
:103E7000998041F678307119C2F20000204400F1B7
:103E80000809089800F11D0205921530049006916A
:103E90001AE000BF2078089999F8052099F80230B7
:103EA00099F80670097899F807600444CDE900276D
:103EB00002964EF20070C0F60000079A0AF064F80D
:103EC00006998C42A1466DD299F8000009EB0004D6
:103ED0008C4267D8002869D099F801000428F0D1F5
:103EE00040F2D010A1EB09018DB2C2F200004FF0F8
:103EF000000A002400780CE040F2D010C2F200006A
:103F00000078013402215FFA84FA51FA80F15145B8
:103F100042D9C1B2E6B28E420AD240F2D011C2F208
:103F20000001C9680029ECD0CAEBCA000AE000BF52
:103F3000211AC9B20129E4D8C1EBC1004EF6D04123
:103F4000C0F6000101EB800B089807994A460078FB
:103F5000DBF80C702B46B8470928CDD38046854244
:103F6000CAD3DBF8001026A00AF00EF8CDF80090B6
:103F70000823CDF804803046DDE9042105F054FE25
:103F800040F2D01009EB0804C2F200000078811C56
:103F900051453FF47FAF93E74C4651453FF47AAF2C
:103FA0008EE700BF09B0BDE8F08F00BF41F6783062
:103FB000C2F20000A9EB0000A0F1080114A009B0B2
:103FC000BDE8F04F09F0E0BF50617273696E672081
:103FD000436F6E66696775726174696F6E206465A0
:103FE0007363726970746F72202877546F74616C98
:103FF0004C656E677468203D202575290D0A000008
:1040000020202573206F70656E65640D0A00000026
:10401000456E636F756E74657265642061207A65A4
:10402000726F2D6C656E6774682064657363726966
:1040300070746F72206166746572202575206279D4
:104040007465730D0A00000080B582B0019041F6DE
:10405000C050C2F2000001A901224FF0FF33FDF76A
:10406000C3FE019802B080BD2DE9F04F83B02C2231
:10407000002918BF4FF48262044600268058A16CC4
:10408000C1F3833101914FF6FC71C0F2030101EAE3
:104090008001029100F4FE00009004E00198864245
:1040A00006F1010650D004EB4611D1F80075D1F8A5
:1040B0000C0500F0020007F400428018EED141F236
:1040C000EC00C2F2000000EBC6004278102A41D298
:1040D000D1F81015C1F3C948B8F1000FDED000992E
:1040E00000294DD002EB420100F1060A6FF3DF27F1
:1040F00041F2EC00C2F2000000EBC101BAF800008E
:1041000001F1940901F1900BB9F80010091A8DB270
:10411000BD4228BF3D460299A94211D3DBF80010E9
:104120002B4611FA80F22046F1B2FFF7A1FABAF855
:104130000000B8F101082844AAF80000E4D1ADE776
:10414000012003B0BDE8F08F012080F0010003B032
:10415000BDE8F08F4EF2B5500CA1C0F600004FF450
:10416000607209F011FF4EF6F050CEF200000068C8
:10417000C00700D000BE002003B0BDE8F08F00BF34
:10418000002080F0010003B0BDE8F08F68616E642C
:104190006C655F74786669666F5F656D70747900D1
:1041A00070B541F2EC060128C2F200060D4688BF48
:1041B0000020B6F88220000113B2B3F1FF3F4EF2A7
:1041C0008453C0F600031C5807DCC2F38610A842D3
:1041D00003D100212046FFF72FFDB6F89A0001B267
:1041E000B1F1FF3F07DCC0F38610A84203D10121E3
:1041F0002046FFF721FDB6F8B20001B2B1F1FF3F52
:1042000007DCC0F38610A84203D102212046FFF745
:1042100013FDB6F8CA0001B2B1F1FF3F07DCC0F3ED
:104220008610A84203D103212046FFF705FDB6F80A
:10423000E20001B2B1F1FF3F07DCC0F38610A842F3
:1042400003D104212046FFF7F7FCB6F8FA0001B2CB
:10425000B1F1FF3F07DCC0F38610A84203D105216E
:104260002046FFF7E9FCB6F8120101B2B1F1FF3FB9
:1042700007DCC0F38610A84203D106212046FFF7D1
:10428000DBFCB6F82A0101B2B1F1FF3F07DCC0F355
:104290008610A84203D107212046FFF7CDFCB6F8CF
:1042A000420101B2B1F1FF3F07DCC0F38610A84222
:1042B00003D108212046FFF7BFFCB6F85A0101B22E
:1042C000B1F1FF3F07DCC0F38610A84203D10921FA
:1042D0002046FFF7B1FCB6F8720101B2B1F1FF3F21
:1042E00007DCC0F38610A84203D10A212046FFF75D
:1042F000A3FCB6F88A0101B2B1F1FF3F07DCC0F3BD
:104300008610A84203D10B212046FFF795FCB6F892
:10431000A20101B2B1F1FF3F07DCC0F38610A84251
:1043200003D10C212046FFF787FCB6F8BA0101B291
:10433000B1F1FF3F07DCC0F38610A84203D10D2185
:104340002046FFF779FCB6F8D20101B2B1F1FF3F88
:1043500007DCC0F38610A84203D10E212046FFF7E8
:104360006BFCB6F8EA0101B2B1F1FF3F0ADCC0F321
:104370008610A84218BF70BD0F212046BDE87040CE
:10438000FFF75ABC70BD0000F0B541F2EC0E0128F9
:10439000C2F2000E4FF0000688BF0020BEF8823047
:1043A00002F00F0C0501BEF880001CB2C3F38613A7
:1043B000002CA3EB010348BF0126B3FA83F3BCF141
:1043C000000F4FEA531306EA03044EF28456C0F37B
:1043D000C323C0F60006A3EB0C03B3FA83F34FEA42
:1043E0005317735904EA070400F01081D209A2EBB5
:1043F000D030B0FA80F04009044240F05583BEF856
:104400009A0004B2B4F1FF3F0ADCC0F38610884280
:1044100002BFBEF89800C0F3C324644500F00C83CB
:10442000BEF8B20004B2B4F1FF3F0ADCC0F386105C
:10443000884202BFBEF8B000C0F3C324644500F058
:10444000FF82BEF8CA0004B2B4F1FF3F0ADCC0F339
:104450008610884202BFBEF8C800C0F3C32464457A
:1044600000F0F282BEF8E20004B2B4F1FF3F0ADCD1
:10447000C0F38610884202BFBEF8E000C0F3C32438
:10448000644500F0E582BEF8FA0004B2B4F1FF3FE3
:104490000ADCC0F38610884202BFBEF8F800C0F301
:1044A000C324644500F0D882BEF8120104B2B4F10E
:1044B000FF3F0ADCC0F38610884202BFBEF810013D
:1044C000C0F3C324644500F0CB82BEF82A0104B2D5
:1044D000B4F1FF3F0ADCC0F38610884202BFBEF889
:1044E0002801C0F3C324644500F0BE82BEF8420137
:1044F00004B2B4F1FF3F0ADCC0F38610884202BF69
:10450000BEF84001C0F3C324644500F0B182BEF898
:104510005A0104B2B4F1FF3F0ADCC0F386108842AE
:1045200002BFBEF85801C0F3C324644500F0A48262
:10453000BEF8720104B2B4F1FF3F0ADCC0F386108A
:10454000884202BFBEF87001C0F3C324644500F086
:104550009782BEF88A0104B2B4F1FF3F0ADCC0F3CF
:104560008610884202BFBEF88801C0F3C3246445A8
:1045700000F08A82BEF8A20104B2B4F1FF3F0ADC67
:10458000C0F38610884202BFBEF8A001C0F3C32466
:10459000644500F07D82BEF8BA0104B2B4F1FF3F79
:1045A0000ADCC0F38610884202BFBEF8B801C0F32F
:1045B000C324644500F07082BEF8D20104B2B4F1A5
:1045C000FF3F0ADCC0F38610884202BFBEF8D0016C
:1045D000C0F3C324644500F06382BEF8EA4120B210
:1045E000B0F1FF3F4FF0000000F30184C4F38614E4
:1045F0008C4240F0FC83BEF8E841C4F3C325654516
:1046000004BFE40B944240F0F2834DE2002C40F0F2
:10461000FC80BEF89A0002B2B2F1FF3F0ADCC0F3A0
:104620008610884206D1BEF89800C0F3C3206045CA
:1046300000F0EB80BEF8B20002B2B2F1FF3F0ADC3C
:10464000C0F38610884206D1BEF8B000C0F3C32084
:10465000604500F0DA80BEF8CA0002B2B2F1FF3F56
:104660000ADCC0F38610884206D1BEF8C800C0F349
:10467000C320604500F0C980BEF8E20002B2B2F18A
:10468000FF3F0ADCC0F38610884206D1BEF8E00086
:10469000C0F3C320604500F0B880BEF8FA0002B253
:1046A000B2F1FF3F0ADCC0F38610884206D1BEF8A3
:1046B000F800C0F3C320604500F0A780BEF81201E7
:1046C00002B2B2F1FF3F0ADCC0F38610884206D185
:1046D000BEF81001C0F3C320604500F09680BEF81C
:1046E0002A0102B2B2F1FF3F0ADCC0F38610884211
:1046F00006D1BEF82801C0F3C320604500F08580D4
:10470000BEF8420102B2B2F1FF3F09DCC0F38610ED
:10471000884205D1BEF84001C0F3C320604574D083
:10472000BEF85A0102B2B2F1FF3F09DCC0F38610B5
:10473000884205D1BEF85801C0F3C320604564D05B
:10474000BEF8720102B2B2F1FF3F09DCC0F386107D
:10475000884205D1BEF87001C0F3C320604554D033
:10476000BEF88A0102B2B2F1FF3F09DCC0F3861045
:10477000884205D1BEF88801C0F3C320604544D00B
:10478000BEF8A20102B2B2F1FF3F09DCC0F386100D
:10479000884205D1BEF8A001C0F3C320604534D0E3
:1047A000BEF8BA0102B2B2F1FF3F09DCC0F38610D5
:1047B000884205D1BEF8B801C0F3C320604524D0BB
:1047C000BEF8D20102B2B2F1FF3F09DCC0F386109D
:1047D000884205D1BEF8D001C0F3C320604514D093
:1047E000BEF8EA2110B2B0F1FF3F4FF0000000F335
:1047F000FE82C2F386128A4240F0F982BEF8E821B6
:10480000C2F3C322624540F0F282986C9EF8002009
:1048100052B1D3F80025C2F386548C4204D1C2F3BE
:10482000C322624500F08C82C0F38330002800F080
:1048300085829EF8082052B1D3F82025C2F3865411
:104840008C4204D1C2F3C322624500F07B8201286E
:1048500000F074829EF8102052B1D3F84025C2F3C4
:1048600086548C4204D1C2F3C322624500F06C82AC
:10487000022800F063829EF8182052B1D3F8602518
:10488000C2F386548C4204D1C2F3C322624500F0C5
:104890005D82032800F052829EF8202052B1D3F8A6
:1048A0008025C2F386548C4204D1C2F3C3226245F0
:1048B00000F04E82042800F041829EF8282052B178
:1048C000D3F8A025C2F386548C4204D1C2F3C3228C
:1048D000624500F03F82052800F030829EF83020CB
:1048E00052B1D3F8C025C2F386548C4204D1C2F32E
:1048F000C322624500F03082062800F01F829EF835
:10490000382052B1D3F8E025C2F386548C4204D14A
:10491000C2F3C322624500F02182072800F00E8214
:104920009EF8402052B1D3F80026C2F386548C4240
:1049300004D1C2F3C322624500F01282082800F0BD
:10494000FD819EF8482052B1D3F82026C2F3865448
:104950008C4204D1C2F3C322624500F003820928CD
:1049600000F0EC819EF8502052B1D3F84026C2F3FB
:1049700086548C4204D1C2F3C322624500F0F48114
:104980000A2800F0DB819EF8582052B1D3F8602647
:10499000C2F386548C4204D1C2F3C322624500F0B4
:1049A000E5810B2800F0CA819EF8602052B1D3F84F
:1049B0008026C2F386548C4204D1C2F3C3226245DE
:1049C00000F0D6810C2800F0B9819EF8682052B121
:1049D000D3F8A026C2F386548C4204D1C2F3C3227A
:1049E000624500F0C7810D2800F0A8819EF8702074
:1049F00052B1D3F8C026C2F386548C4204D1C2F31C
:104A0000C322624500F0B8810E2800F097819EF81D
:104A10007800002800F09281D3F8E026C2F3865097
:104A200088424FF0010040F0E281C2F3C3216145AA
:104A300018BFF0BD7FE100BFC00B904234D0EFE45F
:104A4000C00B904230D0FCE4C00B90422CD009E562
:104A5000C00B904228D016E5C00B904224D023E52D
:104A6000C00B904220D030E5C00B90421CD03DE5F9
:104A7000C00B904218D04AE5C00B904214D057E5C5
:104A8000C00B904210D064E5C00B90420CD071E591
:104A9000C00B904208D07EE5C00B904204D08BE55D
:104AA000C00B90427FF499AD986C9EF8004074B1B1
:104AB000D3F80045C4F386558D4208D1C4F3C3250D
:104AC000654504BFC4F3C034944200F03981C0F39B
:104AD0008330002800F032819EF8084074B1D3F88A
:104AE0002045C4F386558D4208D1C4F3C3256545DE
:104AF00004BFC4F3C034944200F02481012800F0C4
:104B00001D819EF8104074B1D3F84045C4F386551A
:104B10008D4208D1C4F3C325654504BFC4F3C03436
:104B2000944200F01181022800F008819EF818409C
:104B300074B1D3F86045C4F386558D4208D1C4F3EF
:104B4000C325654504BFC4F3C034944200F0FE8021
:104B5000032800F0F3809EF8204074B1D3F880451C
:104B6000C4F386558D4208D1C4F3C325654504BFFF
:104B7000C4F3C034944200F0EB80042800F0DE80DF
:104B80009EF8284074B1D3F8A045C4F386558D42F1
:104B900008D1C4F3C325654504BFC4F3C0349442AF
:104BA00000F0D880052800F0C9809EF8304074B12C
:104BB000D3F8C045C4F386558D4208D1C4F3C3254C
:104BC000654504BFC4F3C034944200F0C580062894
:104BD00000F0B4809EF8384074B1D3F8E045C4F3D7
:104BE00086558D4208D1C4F3C325654504BFC4F37F
:104BF000C034944200F0B280072800F09F809EF8F5
:104C0000404074B1D3F80046C4F386558D4208D1B4
:104C1000C4F3C325654504BFC4F3C034944200F017
:104C20009F80082800F08A809EF8484074B1D3F82D
:104C30002046C4F386558D4208D1C4F3C32565458B
:104C400004BFC4F3C034944200F08C80092875D0AE
:104C50009EF8504074B1D3F84046C4F386558D4257
:104C600008D1C4F3C325654504BFC4F3C0349442DE
:104C700000F07A800A2861D09EF858406CB1D3F8D1
:104C80006046C4F386558D4207D1C4F3C3256545FC
:104C900004BFC4F3C034944268D00B284ED09EF8B1
:104CA00060406CB1D3F88046C4F386558D4207D17D
:104CB000C4F3C325654504BFC4F3C034944257D040
:104CC0000C283BD09EF868406CB1D3F8A046C4F3E2
:104CD00086558D4207D1C4F3C325654504BFC4F38F
:104CE000C034944246D00D2828D09EF870406CB154
:104CF000D3F8C046C4F386558D4207D1C4F3C3250B
:104D0000654504BFC4F3C034944235D00E2815D095
:104D10009EF8780090B1D3F8E046C4F386508842FC
:104D20004FF0010063D1C4F3C321614504BFC4F354
:104D3000C03191425BD10F201FE000BF0120F0BDC8
:104D400000201AE0012018E0022016E0032014E001
:104D5000042012E0052010E006200EE007200CE001
:104D600008200AE0092008E00A2006E00B2004E001
:104D70000C2002E00D2000E00E2003EB4010D0F8E4
:104D800000159A6C490300F5A06111D4DA6A12F497
:104D90007F0F21D1DA6A12F47F0F04BFDA6A12F4AE
:104DA0007F0F19D1DA6A12F47F0FEFD014E000BF41
:104DB000D3F8102412F4FE0F0ED1D3F8102412F4FD
:104DC000FE0F04BFD3F8102412F4FE0F04D1D3F861
:104DD000102412F4FE0FEBD0D0F80C2542F00202A2
:104DE000C0F80C25086840F0404008600120F0BD84
:104DF000F0B581B001284EF2845388BF0020C0F680
:104E00000003144600010D461858D0F84004C0F3C2
:104E1000414003280AD14EF6F050CEF2000000685F
:104E2000C00700D000BE002703E000BFB0FA80F04A
:104E300047096946284605F02FFB41F2EC00C2F213
:104E40000000B0F98210B1F1FF3F4FF0000103DD27
:104E500000F18002002394E0B0F99A20B2F1FF3F04
:104E600004DD00F1980201238BE000BFB0F9B2200D
:104E7000B2F1FF3F04DD00F1B002022381E000BF88
:104E8000B0F9CA20B2F1FF3F04DD00F1C8020323EC
:104E900077E000BFB0F9E220B2F1FF3F04DD00F19E
:104EA000E00204236DE000BFB0F9FA20B2F1FF3F49
:104EB00004DD00F1F802052363E000BFB0F9122120
:104EC000B2F1FF3F04DD00F58872062359E000BF10
:104ED000B0F92A21B2F1FF3F04DD00F594720723F7
:104EE0004FE000BFB0F94221B2F1FF3F04DD00F511
:104EF000A072082345E000BFB0F95A21B2F1FF3F8C
:104F000004DD00F5AC7209233BE000BFB0F972216B
:104F1000B2F1FF3F04DD00F5B8720A2331E000BFB3
:104F2000B0F98A21B2F1FF3F04DD00F5C4720B2312
:104F300027E000BFB0F9A221B2F1FF3F04DD00F588
:104F4000D0720C231DE000BFB0F9BA21B2F1FF3FCF
:104F500004DD00F5DC720D2313E000BFB0F9D221AF
:104F6000B2F1FF3F04DD00F5E8720E2309E000BF57
:104F7000B0F9EA21B2F1FF3F40F3AE8000F5F472E0
:104F80000F2303EB4303C2E90011C2E90211C2E996
:104F9000041100EBC3014FF400405080A088B1F829
:104FA0008020B1F8826060F30A02A1F88020A07826
:104FB00022F4F04200F00F0042EAC020A1F8800085
:104FC000A3789DF80320DB0963F3DF30531EB3FAA7
:104FD00083F3A1F880005B0926F002009DF80160D0
:104FE00040EA4300A1F88200E37800F0030065F393
:104FF0008C1047F6FE7503F0030340EA83009DF82A
:10500000023000F50040A1F8820003F07F00B1F803
:10501000863066F3CD10961E18BF01262B40002F58
:10502000A1F8840002F0030718BF43EAC633A1F8D1
:10503000863031F8880F8B78088040EA034323F4E8
:10504000701343EA87431F0C8F70E07800F0030071
:10505000032817D001283BD1A07903F44C03002A80
:10506000A0F101074FF0010000FA07F60E806FF380
:105070009F4606EB03074FEA17428A701ED001B025
:10508000F0BD00BFA079022A0ED1421E012000FA15
:1050900002F203F44C0302F440370A803B441A0C3A
:1050A0008A7001B0F0BD00BF03F44C02C00008805C
:1050B000100C8870012001B0F0BD00BF4FF6F870F1
:1050C000C0F2030000EAC60018430880000C887094
:1050D000012001B0F0BD00BF4EF2B55008A1C0F6EE
:1050E000000040F20B2208F04FFF4EF6F050CEF2D7
:1050F00000000068C00700D000BE002001B0F0BD75
:105100006863645F656470745F6F70656E00000053
:10511000F0B581B041F2EC0C0128C2F2000C02F0B3
:105120000F0E88BF0020BCF882500027BCF88040DA
:10513000D2092EB2C5F38615002EC4F3C326A5EB03
:105140000105B5FA85F5A6EB0E0648BF0127B6FAAC
:1051500086F66D093D407609BEF1000F05EA0605A9
:1051600000F04A81A2EBD436B6FA86F676093542CB
:1051700040F04381BCF89A4025B2B5F1FF3F0DDC09
:10518000C4F386148C4209D1BCF89840C4F3C325FB
:10519000754504BFE50B954200F04281BCF8B24072
:1051A00025B2B5F1FF3F0DDCC4F386148C4209D162
:1051B000BCF8B040C4F3C325754504BFE50B954268
:1051C00000F04081BCF8CA4025B2B5F1FF3F0DDCCC
:1051D000C4F386148C4209D1BCF8C840C4F3C3257B
:1051E000754504BFE50B954200F03E81BCF8E240F6
:1051F00025B2B5F1FF3F0DDCC4F386148C4209D112
:10520000BCF8E040C4F3C325754504BFE50B9542E7
:1052100000F03C81BCF8FA4025B2B5F1FF3F0DDC4F
:10522000C4F386148C4209D1BCF8F840C4F3C325FA
:10523000754504BFE50B954200F03A81BCF8124178
:1052400025B2B5F1FF3F0DDCC4F386148C4209D1C1
:10525000BCF81041C4F3C325754504BFE50B954266
:1052600000F03881BCF82A4125B2B5F1FF3F0DDCD2
:10527000C4F386148C4209D1BCF82841C4F3C32579
:10528000754504BFE50B954200F03681BCF84241FC
:1052900025B2B5F1FF3F0DDCC4F386148C4209D171
:1052A000BCF84041C4F3C325754504BFE50B9542E6
:1052B00000F03481BCF85A4125B2B5F1FF3F0DDC56
:1052C000C4F386148C4209D1BCF85841C4F3C325F9
:1052D000754504BFE50B954200F03281BCF8724180
:1052E00025B2B5F1FF3F0DDCC4F386148C4209D121
:1052F000BCF87041C4F3C325754504BFE50B954266
:1053000000F03681BCF88A4125B2B5F1FF3F0DDCD3
:10531000C4F386148C4209D1BCF88841C4F3C32578
:10532000754504BFE50B954200F03481BCF8A241FD
:1053300025B2B5F1FF3F0DDCC4F386148C4209D1D0
:10534000BCF8A041C4F3C325754504BFE50B9542E5
:1053500000F03281BCF8BA4125B2B5F1FF3F0DDC57
:10536000C4F386148C4209D1BCF8B841C4F3C325F8
:10537000754504BFE50B954200F03081BCF8D24181
:1053800025B2B5F1FF3F0DDCC4F386148C4209D180
:10539000BCF8D041C4F3C325754504BFE50B954265
:1053A00000F02E81BCF8EA4125B2B5F1FF3F0DDCDB
:1053B000C4F386148C4209D1BCF8E841C4F3C3217C
:1053C000714504BFE10B914200F02F814EF2B550C0
:1053D0000FF21C41C0F6000040F2C52208F0D4FDD7
:1053E0004EF6F050CEF200000068C00740F0AA80F0
:1053F0000024204601B0F0BD15B1002516E100BF24
:10540000BCF89A4025B2B5F1FF3F0BDCC4F386141B
:105410008C4207D1BCF89840C4F3C325754501D12F
:10542000012503E1BCF8B24025B2B5F1FF3F0BDC2A
:10543000C4F386148C4207D1BCF8B040C4F3C32532
:10544000754501D10225F1E0BCF8CA4025B2B5F19D
:10545000FF3F0BDCC4F386148C4207D1BCF8C84074
:10546000C4F3C325754501D10325DFE0BCF8E24054
:1054700025B2B5F1FF3F0BDCC4F386148C4207D193
:10548000BCF8E040C4F3C325754501D10425CDE047
:10549000BCF8FA4025B2B5F1FF3F0BDCC4F386142B
:1054A0008C4207D1BCF8F840C4F3C325754501D13F
:1054B0000525BBE0BCF8124125B2B5F1FF3F0BDC7E
:1054C000C4F386148C4207D1BCF81041C4F3C32541
:1054D000754501D10625A9E0BCF82A4125B2B5F1F0
:1054E000FF3F0BDCC4F386148C4207D1BCF8284183
:1054F000C4F3C325754501D1072597E0BCF84241A7
:1055000025B2B5F1FF3F0BDCC4F386148C4207D102
:10551000BCF84041C4F3C325754501D1082585E099
:10552000BCF85A4125B2B5F1FF3F11DCC4F3861433
:105530008C420DD1BCF85841C4F3C325754507D141
:10554000092573E000BE0024204601B0F0BD00BF75
:10555000BCF8724125B2B5F1FF3F0BDCC4F38614F1
:105560008C4207D1BCF87041C4F3C325754501D105
:105570000A255BE0BCF88A4125B2B5F1FF3F0BDCA0
:10558000C4F386148C4207D1BCF88841C4F3C32508
:10559000754501D10B2549E0BCF8A24125B2B5F112
:1055A000FF3F0BDCC4F386148C4207D1BCF8A0414A
:1055B000C4F3C325754501D10C2537E0BCF8BA41C9
:1055C00025B2B5F1FF3F0BDCC4F386148C4207D142
:1055D000BCF8B841C4F3C325754501D10D2525E0BC
:1055E000BCF8D24125B2B5F1FF3F0BDCC4F3861401
:1055F0008C4207D1BCF8D041C4F3C325754501D115
:105600000E2513E0BCF8EA4125B2B5F1FF3F3FF7A4
:10561000DDAEC4F386148C427FF4D8AEBCF8E8410A
:10562000C4F3C32171457FF4D1AE0F2505EB4501CD
:105630000CEBC10191F98A60B1F8887047EA06461F
:10564000002E00F19C804EF284570001C0F6000746
:10565000BEF1000F069EC1F890303858A1F8946052
:1056600005D16FF3DF34803144EAC2320A80816CA5
:105670009CF80020002A4FF0000200F08580C1F362
:105680008331002968D0634613F8087F002F00F0AB
:105690008580012960D0634613F8107F002F00F049
:1056A0007F80022958D0634613F8187F002F79D0E5
:1056B000032951D0634613F8207F002F74D00429AA
:1056C0004AD0634613F8287F002F6FD0052943D0B6
:1056D000634613F8307F002F6AD006293CD063461A
:1056E00013F8387F002F65D0072935D0634613F8AB
:1056F000407F002F60D008292ED0634613F8487FE2
:10570000002F5BD0092927D0634613F8507F002F64
:1057100056D00A2920D0634613F8587F002F51D065
:105720000B2919D0634613F8607F002F4CD00C2949
:1057300012D0634613F8687F002F47D00D290BD095
:10574000634613F8707F002F42D00E2904D06346C1
:1057500013F8781F00293DD04EF2B5504EF6771160
:10576000C0F60000C0F6000140F2B72208F00CFCC1
:105770004EF6F050CEF200000068C00708D10024B9
:10578000204601B0F0BD00BF0021634623E000BF0A
:10579000002400BE204601B0F0BD00BF01211AE088
:1057A000022118E0032116E0042114E0052112E093
:1057B000062110E007210EE008210CE009210AE093
:1057C0000A2108E00B2106E00C2104E00D2102E093
:1057D0000E2100E00F210CEBC10701241C605A6070
:1057E00004227D70FA70FDF72FFC204601B0F0BD59
:1057F0006863645F656470745F786665720000005A
:10580000B0B582B0054640780C46012802D8297907
:10581000002941D040F2D010C2F200004068DCB153
:105820000021019101AA0023294607F019FE0199E0
:1058300051B14EF604514FF08052CEF200010A6091
:10584000BFF34F8FBFF36F8F70B12878224669780E
:1058500005F08EF92CE000BF4FF0FF3200232946FF
:1058600007F0D6FC0028F0D14EF2B5504EF650119C
:10587000C0F60000C0F6000140F24B1208F084FBB5
:105880004EF60450CEF20000D0F8EC00C0070FD066
:1058900000BE02B0B0BD00BF40F2100C2B78C2F2C7
:1058A000000C012101FA03F39CF80220134201D0FD
:1058B00002B0B0BD0028ADD142EA03008CF802006E
:1058C000A8E7000000000000F0B581B006460128FE
:1058D00088BF00204EF284574FF400710001C0F6DB
:1058E00000073C5841F2EC00C2F20000FAF7EFFC6E
:1058F00002212046FEF794F90146A06C00223046B2
:10590000FDF706FF0546002852D0D4F8000442F601
:105910002A1120F00400C4F80004206CC4F654716D
:10592000884205D3D4F8040440F48030C4F8040459
:10593000E068012161F35E70E0606069C00709D131
:105940006069C00704BF60695FEAC07002D1606926
:10595000C007F2D007EB0610A76CA16C0221C66845
:105960002046FEF75DF98422002818BF4FF401722B
:1059700020210028C7F3833018BF4FF48071C6F38D
:105980008F0310444218934226D24EF2B55026A1FE
:10599000C0F6000040F2751208F0F6FA4EF6F0502C
:1059A000CEF200000068C00722D000BE20E000BF99
:1059B0004EF2B55019A1C0F6000040F29B1208F05B
:1059C000E3FA4EF6F050CEF200000068C00700D0B7
:1059D00000BE284601B0F0BDB708BA1A43EA074333
:1059E000E3656062C2EA0140A0621004C4F80001ED
:1059F000AE20C4F840044FF48050C4F84004A069BD
:105A000040F04C5040F00400A061A06840F001005C
:105A100020F08000A060284601B0F0BD6863645F9C
:105A2000696E697400000000646669666F5F686F84
:105A300073745F696E697400012888BF70474EF205
:105A400084514EF20013C0F60001CEF2000301EBC8
:105A500000101C21406800F01F0201EAD000012163
:105A60009140C150704700002DE9F04F8DB00128E2
:105A7000024602904EF2845288BF0020C0F6000217
:105A800000011658B069726902EA000804915FEAE1
:105A9000C80002D54FF0805070615FEA087040F195
:105AA000198108207061D6F84004C0F341400328F2
:105AB0000AD14EF6F050CEF200000068C00700D0C8
:105AC00000BE082506E000BF4EF2E441C0F600012A
:105AD00051F8205041F2EC0A4FF0000BC2F2000ADC
